{"contracts/MerkleFactory.sol":{"MerkleFactory":{"abi":[{"inputs":[{"internalType":"address","name":"_weth","type":"address"}],"stateMutability":"nonpayable","type":"constructor"},{"anonymous":false,"inputs":[{"indexed":true,"internalType":"address","name":"previousOwner","type":"address"},{"indexed":true,"internalType":"address","name":"newOwner","type":"address"}],"name":"OwnershipTransferred","type":"event"},{"inputs":[{"internalType":"address","name":"","type":"address"}],"name":"airdropUserList","outputs":[{"internalType":"string","name":"","type":"string"}],"stateMutability":"view","type":"function"},{"inputs":[{"internalType":"bool","name":"_isPayingInToken","type":"bool"},{"internalType":"address","name":"_token","type":"address"},{"internalType":"uint256","name":"_amount","type":"uint256"},{"internalType":"uint256","name":"_startDate","type":"uint256"},{"internalType":"uint256","name":"_endDate","type":"uint256"},{"internalType":"string","name":"_url","type":"string"},{"internalType":"bytes32","name":"_merkleRoot","type":"bytes32"}],"name":"createNewAirdrop","outputs":[],"stateMutability":"payable","type":"function"},{"inputs":[],"name":"feeAddress","outputs":[{"internalType":"address payable","name":"","type":"address"}],"stateMutability":"view","type":"function"},{"inputs":[],"name":"feeValue","outputs":[{"internalType":"uint256","name":"","type":"uint256"}],"stateMutability":"view","type":"function"},{"inputs":[],"name":"getAllAirdrops","outputs":[{"internalType":"address[]","name":"","type":"address[]"}],"stateMutability":"view","type":"function"},{"inputs":[{"internalType":"address","name":"_creator","type":"address"}],"name":"getAllCreatorAirdrops","outputs":[{"internalType":"address[]","name":"","type":"address[]"}],"stateMutability":"view","type":"function"},{"inputs":[{"internalType":"address","name":"_token","type":"address"}],"name":"getAllTokenAirdrops","outputs":[{"internalType":"address[]","name":"","type":"address[]"}],"stateMutability":"view","type":"function"},{"inputs":[],"name":"maxClaimPeriod","outputs":[{"internalType":"uint256","name":"","type":"uint256"}],"stateMutability":"view","type":"function"},{"inputs":[],"name":"minClaimPeriod","outputs":[{"internalType":"uint256","name":"","type":"uint256"}],"stateMutability":"view","type":"function"},{"inputs":[],"name":"owner","outputs":[{"internalType":"address","name":"","type":"address"}],"stateMutability":"view","type":"function"},{"inputs":[],"name":"renounceOwnership","outputs":[],"stateMutability":"nonpayable","type":"function"},{"inputs":[{"internalType":"uint256","name":"min","type":"uint256"},{"internalType":"uint256","name":"max","type":"uint256"}],"name":"setClaimPeriod","outputs":[],"stateMutability":"nonpayable","type":"function"},{"inputs":[{"internalType":"address payable","name":"_newAddress","type":"address"},{"internalType":"uint256","name":"_newFees","type":"uint256"}],"name":"setFees","outputs":[],"stateMutability":"nonpayable","type":"function"},{"inputs":[{"internalType":"address","name":"newOwner","type":"address"}],"name":"transferOwnership","outputs":[],"stateMutability":"nonpayable","type":"function"}],"evm":{"bytecode":{"linkReferences":{},"object":"60a0604052662386f26fc10000600555621275006007556276a7006008553480156200002a57600080fd5b5060405162003a9338038062003a93833981810160405281019062000050919062000222565b6200007062000064620000ec60201b60201c565b620000f460201b60201c565b8073ffffffffffffffffffffffffffffffffffffffff1660808173ffffffffffffffffffffffffffffffffffffffff168152505033600660006101000a81548173ffffffffffffffffffffffffffffffffffffffff021916908373ffffffffffffffffffffffffffffffffffffffff1602179055505062000254565b600033905090565b60008060009054906101000a900473ffffffffffffffffffffffffffffffffffffffff169050816000806101000a81548173ffffffffffffffffffffffffffffffffffffffff021916908373ffffffffffffffffffffffffffffffffffffffff1602179055508173ffffffffffffffffffffffffffffffffffffffff168173ffffffffffffffffffffffffffffffffffffffff167f8be0079c531659141344cd1fd0a4f28419497f9722a3daafe3b4186f6b6457e060405160405180910390a35050565b600080fd5b600073ffffffffffffffffffffffffffffffffffffffff82169050919050565b6000620001ea82620001bd565b9050919050565b620001fc81620001dd565b81146200020857600080fd5b50565b6000815190506200021c81620001f1565b92915050565b6000602082840312156200023b576200023a620001b8565b5b60006200024b848285016200020b565b91505092915050565b60805161382362000270600039600061071501526138236000f3fe608060405260043610620000f25760003560e01c806378563a04116200008b578063d7444eeb1162000061578063d7444eeb14620002d7578063df6ec1bd1462000307578063e887673d1462000335578063f2fde38b146200037957620000f2565b806378563a0414620002575780638da5cb5b14620002775780639fddaa9314620002a757620000f2565b80634127535811620000cd5780634127535814620001af5780635e5c6ada14620001df5780636ae3484e146200020d578063715018a6146200023d57620000f2565b806306d9c56914620000f7578063191d6163146200013b57806338c7c2bc146200016b575b600080fd5b3480156200010457600080fd5b506200012360048036038101906200011d919062000ed6565b620003a7565b60405162000132919062000fa2565b60405180910390f35b3480156200014857600080fd5b50620001536200044f565b60405162000162919062000fe1565b60405180910390f35b3480156200017857600080fd5b5062000197600480360381019062000191919062000ed6565b62000455565b604051620001a69190620010cc565b60405180910390f35b348015620001bc57600080fd5b50620001c762000524565b604051620001d6919062001115565b60405180910390f35b348015620001ec57600080fd5b506200020b600480360381019062000205919062001194565b6200054a565b005b3480156200021a57600080fd5b5062000225620005a0565b60405162000234919062000fe1565b60405180910390f35b3480156200024a57600080fd5b5062000255620005a6565b005b6200027560048036038101906200026f9190620013a4565b620005be565b005b3480156200028457600080fd5b506200028f62000aca565b6040516200029e919062001487565b60405180910390f35b348015620002b457600080fd5b50620002bf62000af3565b604051620002ce919062000fe1565b60405180910390f35b348015620002e457600080fd5b50620002ef62000af9565b604051620002fe9190620010cc565b60405180910390f35b3480156200031457600080fd5b506200033360048036038101906200032d9190620014a4565b62000b89565b005b3480156200034257600080fd5b506200036160048036038101906200035b919062000ed6565b62000ba5565b604051620003709190620010cc565b60405180910390f35b3480156200038657600080fd5b50620003a560048036038101906200039f919062000ed6565b62000c74565b005b60036020528060005260406000206000915090508054620003c8906200151a565b80601f0160208091040260200160405190810160405280929190818152602001828054620003f6906200151a565b8015620004475780601f106200041b5761010080835404028352916020019162000447565b820191906000526020600020905b8154815290600101906020018083116200042957829003601f168201915b505050505081565b60075481565b6060600160008373ffffffffffffffffffffffffffffffffffffffff1673ffffffffffffffffffffffffffffffffffffffff1681526020019081526020016000208054806020026020016040519081016040528092919081815260200182805480156200051857602002820191906000526020600020905b8160009054906101000a900473ffffffffffffffffffffffffffffffffffffffff1673ffffffffffffffffffffffffffffffffffffffff1681526020019060010190808311620004cd575b50505050509050919050565b600660009054906101000a900473ffffffffffffffffffffffffffffffffffffffff1681565b6200055462000cfe565b81600660006101000a81548173ffffffffffffffffffffffffffffffffffffffff021916908373ffffffffffffffffffffffffffffffffffffffff160217905550806005819055505050565b60085481565b620005b062000cfe565b620005bc600062000d83565b565b60008484620005ce91906200157e565b90506007548110158015620005e557506008548111155b62000627576040517f08c379a00000000000000000000000000000000000000000000000000000000081526004016200061e906200162f565b60405180910390fd5b600086116200066d576040517f08c379a00000000000000000000000000000000000000000000000000000000081526004016200066490620016a1565b60405180910390fd5b600087336200067b62000aca565b8888876040516200068c9062000e4f565b6200069d96959493929190620016d4565b604051809103906000f080158015620006ba573d6000803e3d6000fd5b50905083600360008373ffffffffffffffffffffffffffffffffffffffff1673ffffffffffffffffffffffffffffffffffffffff16815260200190815260200160002090816200070b919062001913565b508815620007e3577f000000000000000000000000000000000000000000000000000000000000000073ffffffffffffffffffffffffffffffffffffffff166323b872dd33600660009054906101000a900473ffffffffffffffffffffffffffffffffffffffff166005546040518463ffffffff1660e01b8152600401620007969392919062001a5b565b6020604051808303816000875af1158015620007b6573d6000803e3d6000fd5b505050506040513d601f19601f82011682018060405250810190620007dc919062001aaf565b5062000896565b6005543410156200082b576040517f08c379a0000000000000000000000000000000000000000000000000000000008152600401620008229062001b31565b60405180910390fd5b600660009054906101000a900473ffffffffffffffffffffffffffffffffffffffff1673ffffffffffffffffffffffffffffffffffffffff166108fc349081150290604051600060405180830381858888f1935050505015801562000894573d6000803e3d6000fd5b505b6004819080600181540180825580915050600190039060005260206000200160009091909190916101000a81548173ffffffffffffffffffffffffffffffffffffffff021916908373ffffffffffffffffffffffffffffffffffffffff160217905550600160008973ffffffffffffffffffffffffffffffffffffffff1673ffffffffffffffffffffffffffffffffffffffff168152602001908152602001600020819080600181540180825580915050600190039060005260206000200160009091909190916101000a81548173ffffffffffffffffffffffffffffffffffffffff021916908373ffffffffffffffffffffffffffffffffffffffff160217905550600260003373ffffffffffffffffffffffffffffffffffffffff1673ffffffffffffffffffffffffffffffffffffffff168152602001908152602001600020819080600181540180825580915050600190039060005260206000200160009091909190916101000a81548173ffffffffffffffffffffffffffffffffffffffff021916908373ffffffffffffffffffffffffffffffffffffffff1602179055508773ffffffffffffffffffffffffffffffffffffffff166323b872dd33838a6040518463ffffffff1660e01b815260040162000a789392919062001b53565b6020604051808303816000875af115801562000a98573d6000803e3d6000fd5b505050506040513d601f19601f8201168201806040525081019062000abe919062001aaf565b50505050505050505050565b60008060009054906101000a900473ffffffffffffffffffffffffffffffffffffffff16905090565b60055481565b6060600480548060200260200160405190810160405280929190818152602001828054801562000b7f57602002820191906000526020600020905b8160009054906101000a900473ffffffffffffffffffffffffffffffffffffffff1673ffffffffffffffffffffffffffffffffffffffff168152602001906001019080831162000b34575b5050505050905090565b62000b9362000cfe565b81600781905550806008819055505050565b6060600260008373ffffffffffffffffffffffffffffffffffffffff1673ffffffffffffffffffffffffffffffffffffffff16815260200190815260200160002080548060200260200160405190810160405280929190818152602001828054801562000c6857602002820191906000526020600020905b8160009054906101000a900473ffffffffffffffffffffffffffffffffffffffff1673ffffffffffffffffffffffffffffffffffffffff168152602001906001019080831162000c1d575b50505050509050919050565b62000c7e62000cfe565b600073ffffffffffffffffffffffffffffffffffffffff168173ffffffffffffffffffffffffffffffffffffffff160362000cf0576040517f08c379a000000000000000000000000000000000000000000000000000000000815260040162000ce79062001c06565b60405180910390fd5b62000cfb8162000d83565b50565b62000d0862000e47565b73ffffffffffffffffffffffffffffffffffffffff1662000d2862000aca565b73ffffffffffffffffffffffffffffffffffffffff161462000d81576040517f08c379a000000000000000000000000000000000000000000000000000000000815260040162000d789062001c78565b60405180910390fd5b565b60008060009054906101000a900473ffffffffffffffffffffffffffffffffffffffff169050816000806101000a81548173ffffffffffffffffffffffffffffffffffffffff021916908373ffffffffffffffffffffffffffffffffffffffff1602179055508173ffffffffffffffffffffffffffffffffffffffff168173ffffffffffffffffffffffffffffffffffffffff167f8be0079c531659141344cd1fd0a4f28419497f9722a3daafe3b4186f6b6457e060405160405180910390a35050565b600033905090565b611b538062001c9b83390190565b6000604051905090565b600080fd5b600080fd5b600073ffffffffffffffffffffffffffffffffffffffff82169050919050565b600062000e9e8262000e71565b9050919050565b62000eb08162000e91565b811462000ebc57600080fd5b50565b60008135905062000ed08162000ea5565b92915050565b60006020828403121562000eef5762000eee62000e67565b5b600062000eff8482850162000ebf565b91505092915050565b600081519050919050565b600082825260208201905092915050565b60005b8381101562000f4457808201518184015260208101905062000f27565b60008484015250505050565b6000601f19601f8301169050919050565b600062000f6e8262000f08565b62000f7a818562000f13565b935062000f8c81856020860162000f24565b62000f978162000f50565b840191505092915050565b6000602082019050818103600083015262000fbe818462000f61565b905092915050565b6000819050919050565b62000fdb8162000fc6565b82525050565b600060208201905062000ff8600083018462000fd0565b92915050565b600081519050919050565b600082825260208201905092915050565b6000819050602082019050919050565b620010358162000e91565b82525050565b60006200104983836200102a565b60208301905092915050565b6000602082019050919050565b60006200106f8262000ffe565b6200107b818562001009565b935062001088836200101a565b8060005b83811015620010bf578151620010a388826200103b565b9750620010b08362001055565b9250506001810190506200108c565b5085935050505092915050565b60006020820190508181036000830152620010e8818462001062565b905092915050565b6000620010fd8262000e71565b9050919050565b6200110f81620010f0565b82525050565b60006020820190506200112c600083018462001104565b92915050565b6200113d81620010f0565b81146200114957600080fd5b50565b6000813590506200115d8162001132565b92915050565b6200116e8162000fc6565b81146200117a57600080fd5b50565b6000813590506200118e8162001163565b92915050565b60008060408385031215620011ae57620011ad62000e67565b5b6000620011be858286016200114c565b9250506020620011d1858286016200117d565b9150509250929050565b60008115159050919050565b620011f281620011db565b8114620011fe57600080fd5b50565b6000813590506200121281620011e7565b92915050565b600080fd5b600080fd5b7f4e487b7100000000000000000000000000000000000000000000000000000000600052604160045260246000fd5b6200125c8262000f50565b810181811067ffffffffffffffff821117156200127e576200127d62001222565b5b80604052505050565b60006200129362000e5d565b9050620012a1828262001251565b919050565b600067ffffffffffffffff821115620012c457620012c362001222565b5b620012cf8262000f50565b9050602081019050919050565b82818337600083830152505050565b600062001302620012fc84620012a6565b62001287565b9050828152602081018484840111156200132157620013206200121d565b5b6200132e848285620012dc565b509392505050565b600082601f8301126200134e576200134d62001218565b5b813562001360848260208601620012eb565b91505092915050565b6000819050919050565b6200137e8162001369565b81146200138a57600080fd5b50565b6000813590506200139e8162001373565b92915050565b600080600080600080600060e0888a031215620013c657620013c562000e67565b5b6000620013d68a828b0162001201565b9750506020620013e98a828b0162000ebf565b9650506040620013fc8a828b016200117d565b95505060606200140f8a828b016200117d565b9450506080620014228a828b016200117d565b93505060a088013567ffffffffffffffff81111562001446576200144562000e6c565b5b620014548a828b0162001336565b92505060c0620014678a828b016200138d565b91505092959891949750929550565b620014818162000e91565b82525050565b60006020820190506200149e600083018462001476565b92915050565b60008060408385031215620014be57620014bd62000e67565b5b6000620014ce858286016200117d565b9250506020620014e1858286016200117d565b9150509250929050565b7f4e487b7100000000000000000000000000000000000000000000000000000000600052602260045260246000fd5b600060028204905060018216806200153357607f821691505b602082108103620015495762001548620014eb565b5b50919050565b7f4e487b7100000000000000000000000000000000000000000000000000000000600052601160045260246000fd5b60006200158b8262000fc6565b9150620015988362000fc6565b9250828203905081811115620015b357620015b26200154f565b5b92915050565b7f496e76616c6964206475726174696f6e20746f20636c61696d2061697264726f60008201527f7000000000000000000000000000000000000000000000000000000000000000602082015250565b60006200161760218362000f13565b91506200162482620015b9565b604082019050919050565b600060208201905081810360008301526200164a8162001608565b9050919050565b7f5a65726f20616d6f756e74000000000000000000000000000000000000000000600082015250565b600062001689600b8362000f13565b9150620016968262001651565b602082019050919050565b60006020820190508181036000830152620016bc816200167a565b9050919050565b620016ce8162001369565b82525050565b600060c082019050620016eb600083018962001476565b620016fa602083018862001476565b62001709604083018762001476565b62001718606083018662000fd0565b62001727608083018562000fd0565b6200173660a0830184620016c3565b979650505050505050565b60008190508160005260206000209050919050565b60006020601f8301049050919050565b600082821b905092915050565b600060088302620017a57fffffffffffffffffffffffffffffffffffffffffffffffffffffffffffffffff8262001766565b620017b1868362001766565b95508019841693508086168417925050509392505050565b6000819050919050565b6000620017f4620017ee620017e88462000fc6565b620017c9565b62000fc6565b9050919050565b6000819050919050565b6200181083620017d3565b620018286200181f82620017fb565b84845462001773565b825550505050565b600090565b6200183f62001830565b6200184c81848462001805565b505050565b5b8181101562001874576200186860008262001835565b60018101905062001852565b5050565b601f821115620018c3576200188d8162001741565b620018988462001756565b81016020851015620018a8578190505b620018c0620018b78562001756565b83018262001851565b50505b505050565b600082821c905092915050565b6000620018e860001984600802620018c8565b1980831691505092915050565b6000620019038383620018d5565b9150826002028217905092915050565b6200191e8262000f08565b67ffffffffffffffff8111156200193a576200193962001222565b5b6200194682546200151a565b6200195382828562001878565b600060209050601f8311600181146200198b576000841562001976578287015190505b620019828582620018f5565b865550620019f2565b601f1984166200199b8662001741565b60005b82811015620019c5578489015182556001820191506020850194506020810190506200199e565b86831015620019e55784890151620019e1601f891682620018d5565b8355505b6001600288020188555050505b505050505050565b600062001a1b62001a1562001a0f8462000e71565b620017c9565b62000e71565b9050919050565b600062001a2f82620019fa565b9050919050565b600062001a438262001a22565b9050919050565b62001a558162001a36565b82525050565b600060608201905062001a72600083018662001476565b62001a81602083018562001a4a565b62001a90604083018462000fd0565b949350505050565b60008151905062001aa981620011e7565b92915050565b60006020828403121562001ac85762001ac762000e67565b5b600062001ad88482850162001a98565b91505092915050565b7f46656573206e6f74207061696400000000000000000000000000000000000000600082015250565b600062001b19600d8362000f13565b915062001b268262001ae1565b602082019050919050565b6000602082019050818103600083015262001b4c8162001b0a565b9050919050565b600060608201905062001b6a600083018662001476565b62001b79602083018562001476565b62001b88604083018462000fd0565b949350505050565b7f4f776e61626c653a206e6577206f776e657220697320746865207a65726f206160008201527f6464726573730000000000000000000000000000000000000000000000000000602082015250565b600062001bee60268362000f13565b915062001bfb8262001b90565b604082019050919050565b6000602082019050818103600083015262001c218162001bdf565b9050919050565b7f4f776e61626c653a2063616c6c6572206973206e6f7420746865206f776e6572600082015250565b600062001c6060208362000f13565b915062001c6d8262001c28565b602082019050919050565b6000602082019050818103600083015262001c938162001c51565b905091905056fe60c06040523480156200001157600080fd5b5060405162001b5338038062001b538339818101604052810190620000379190620001ef565b80608081815250508573ffffffffffffffffffffffffffffffffffffffff1660a08173ffffffffffffffffffffffffffffffffffffffff1681525050826004819055508160058190555084600660006101000a81548173ffffffffffffffffffffffffffffffffffffffff021916908373ffffffffffffffffffffffffffffffffffffffff16021790555083600760006101000a81548173ffffffffffffffffffffffffffffffffffffffff021916908373ffffffffffffffffffffffffffffffffffffffff1602179055505050505050506200028b565b600080fd5b600073ffffffffffffffffffffffffffffffffffffffff82169050919050565b6000620001418262000114565b9050919050565b620001538162000134565b81146200015f57600080fd5b50565b600081519050620001738162000148565b92915050565b6000819050919050565b6200018e8162000179565b81146200019a57600080fd5b50565b600081519050620001ae8162000183565b92915050565b6000819050919050565b620001c981620001b4565b8114620001d557600080fd5b50565b600081519050620001e981620001be565b92915050565b60008060008060008060c087890312156200020f576200020e6200010f565b5b60006200021f89828a0162000162565b96505060206200023289828a0162000162565b95505060406200024589828a0162000162565b94505060606200025889828a016200019d565b93505060806200026b89828a016200019d565b92505060a06200027e89828a01620001d8565b9150509295509295509295565b60805160a051611878620002db600039600081816103d2015281816104a4015281816107930152818161086201528181610b1b0152610bee01526000818161057c015261099c01526118786000f3fe608060405234801561001057600080fd5b50600436106100b45760003560e01c8063a9dc9ecf11610071578063a9dc9ecf1461018d578063b0d36e25146101a9578063c202e732146101d9578063c24a0f8b14610209578063c41d927214610227578063dc6d144614610257576100b4565b8063082b1d1f146100b95780630b97bc86146100d55780632eb4a7ab146100f35780632f52ebb7146101115780633b7fcdca1461012d578063a06bf4bd1461015d575b600080fd5b6100d360048036038101906100ce9190610efc565b610287565b005b6100dd610574565b6040516100ea9190610f42565b60405180910390f35b6100fb61057a565b6040516101089190610f76565b60405180910390f35b61012b60048036038101906101269190611022565b61059e565b005b610147600480360381019061014291906110e0565b610905565b6040516101549190611128565b60405180910390f35b61017760048036038101906101729190611143565b610925565b6040516101849190611128565b60405180910390f35b6101a760048036038101906101a29190610efc565b6109d0565b005b6101c360048036038101906101be9190610efc565b610cbe565b6040516101d09190611128565b60405180910390f35b6101f360048036038101906101ee9190610efc565b610cde565b6040516102009190611128565b60405180910390f35b610211610d52565b60405161021e9190610f42565b60405180910390f35b610241600480360381019061023c9190610efc565b610d58565b60405161024e9190611128565b60405180910390f35b610271600480360381019061026c9190610efc565b610d78565b60405161027e9190611128565b60405180910390f35b600660009054906101000a900473ffffffffffffffffffffffffffffffffffffffff1673ffffffffffffffffffffffffffffffffffffffff163373ffffffffffffffffffffffffffffffffffffffff1614610317576040517f08c379a000000000000000000000000000000000000000000000000000000000815260040161030e90611214565b60405180910390fd5b61032081610cde565b61035f576040517f08c379a000000000000000000000000000000000000000000000000000000000815260040161035690611280565b60405180910390fd5b600160008260ff1660ff16815260200190815260200160002060009054906101000a900460ff16156103c6576040517f08c379a00000000000000000000000000000000000000000000000000000000081526004016103bd906112ec565b60405180910390fd5b600060035403610471577f000000000000000000000000000000000000000000000000000000000000000073ffffffffffffffffffffffffffffffffffffffff166370a08231306040518263ffffffff1660e01b8152600401610429919061131b565b602060405180830381865afa158015610446573d6000803e3d6000fd5b505050506040513d601f19601f8201168201806040525081019061046a919061134b565b6003819055505b60018060008360ff1660ff16815260200190815260200160002060006101000a81548160ff0219169083151502179055507f000000000000000000000000000000000000000000000000000000000000000073ffffffffffffffffffffffffffffffffffffffff1663a9059cbb600660009054906101000a900473ffffffffffffffffffffffffffffffffffffffff16600460035461051091906113d6565b6040518363ffffffff1660e01b815260040161052d929190611407565b6020604051808303816000875af115801561054c573d6000803e3d6000fd5b505050506040513d601f19601f82011682018060405250810190610570919061145c565b5050565b60045481565b7f000000000000000000000000000000000000000000000000000000000000000081565b60045442101580156105b257506005544211155b6105f1576040517f08c379a00000000000000000000000000000000000000000000000000000000081526004016105e8906114d5565b60405180910390fd5b6105fd33848484610925565b61063c576040517f08c379a000000000000000000000000000000000000000000000000000000000815260040161063390611541565b60405180910390fd5b6000803373ffffffffffffffffffffffffffffffffffffffff1673ffffffffffffffffffffffffffffffffffffffff16815260200190815260200160002060009054906101000a900460ff16156106c8576040517f08c379a00000000000000000000000000000000000000000000000000000000081526004016106bf906112ec565b60405180910390fd5b60016000803373ffffffffffffffffffffffffffffffffffffffff1673ffffffffffffffffffffffffffffffffffffffff16815260200190815260200160002060006101000a81548160ff0219169083151502179055503373ffffffffffffffffffffffffffffffffffffffff167f47cee97cb7acd717b3c0aa1435d004cd5b3c8c57d70dbceb4e4458bbd60e39d4846040516107659190610f42565b60405180910390a260006103e8600563ffffffff16856107859190611561565b61078f91906113d6565b90507f000000000000000000000000000000000000000000000000000000000000000073ffffffffffffffffffffffffffffffffffffffff1663a9059cbb600760009054906101000a900473ffffffffffffffffffffffffffffffffffffffff16836040518363ffffffff1660e01b815260040161080e929190611407565b6020604051808303816000875af115801561082d573d6000803e3d6000fd5b505050506040513d601f19601f82011682018060405250810190610851919061145c565b50808461085e91906115a3565b93507f000000000000000000000000000000000000000000000000000000000000000073ffffffffffffffffffffffffffffffffffffffff1663a9059cbb33866040518363ffffffff1660e01b81526004016108bb929190611407565b6020604051808303816000875af11580156108da573d6000803e3d6000fd5b505050506040513d601f19601f820116820180604052508101906108fe919061145c565b5050505050565b60006020528060005260406000206000915054906101000a900460ff1681565b600080858560405160200161093b929190611640565b60405160208183030381529060405280519060200120905060006109c1858580806020026020016040519081016040528093929190818152602001838360200280828437600081840152601f19601f820116905080830192505050505050507f000000000000000000000000000000000000000000000000000000000000000084610e0a565b90508092505050949350505050565b600760009054906101000a900473ffffffffffffffffffffffffffffffffffffffff1673ffffffffffffffffffffffffffffffffffffffff163373ffffffffffffffffffffffffffffffffffffffff1614610a60576040517f08c379a0000000000000000000000000000000000000000000000000000000008152600401610a57906116b8565b60405180910390fd5b610a6981610cde565b610aa8576040517f08c379a0000000000000000000000000000000000000000000000000000000008152600401610a9f90611280565b60405180910390fd5b600260008260ff1660ff16815260200190815260200160002060009054906101000a900460ff1615610b0f576040517f08c379a0000000000000000000000000000000000000000000000000000000008152600401610b06906112ec565b60405180910390fd5b600060035403610bba577f000000000000000000000000000000000000000000000000000000000000000073ffffffffffffffffffffffffffffffffffffffff166370a08231306040518263ffffffff1660e01b8152600401610b72919061131b565b602060405180830381865afa158015610b8f573d6000803e3d6000fd5b505050506040513d601f19601f82011682018060405250810190610bb3919061134b565b6003819055505b6001600260008360ff1660ff16815260200190815260200160002060006101000a81548160ff0219169083151502179055507f000000000000000000000000000000000000000000000000000000000000000073ffffffffffffffffffffffffffffffffffffffff1663a9059cbb600760009054906101000a900473ffffffffffffffffffffffffffffffffffffffff166004600354610c5a91906113d6565b6040518363ffffffff1660e01b8152600401610c77929190611407565b6020604051808303816000875af1158015610c96573d6000803e3d6000fd5b505050506040513d601f19601f82011682018060405250810190610cba919061145c565b5050565b60026020528060005260406000206000915054906101000a900460ff1681565b600080620151806001846002610cf491906116d8565b610cfe9190611715565b60ff16610d0b919061175a565b63ffffffff16600554610d1e9190611797565b905060006201518063ffffffff1682610d379190611797565b9050814210158015610d495750804211155b92505050919050565b60055481565b60016020528060005260406000206000915054906101000a900460ff1681565b6000806201518063ffffffff16620151806001856002610d9891906116d8565b610da29190611715565b60ff16610daf919061175a565b63ffffffff16600554610dc29190611797565b610dcc9190611797565b9050804210158015610e025750600160008460ff1660ff16815260200190815260200160002060009054906101000a900460ff16155b915050919050565b600082610e178584610e21565b1490509392505050565b60008082905060005b8451811015610e6c57610e5782868381518110610e4a57610e496117cb565b5b6020026020010151610e77565b91508080610e64906117fa565b915050610e2a565b508091505092915050565b6000818310610e8f57610e8a8284610ea2565b610e9a565b610e998383610ea2565b5b905092915050565b600082600052816020526040600020905092915050565b600080fd5b600080fd5b600060ff82169050919050565b610ed981610ec3565b8114610ee457600080fd5b50565b600081359050610ef681610ed0565b92915050565b600060208284031215610f1257610f11610eb9565b5b6000610f2084828501610ee7565b91505092915050565b6000819050919050565b610f3c81610f29565b82525050565b6000602082019050610f576000830184610f33565b92915050565b6000819050919050565b610f7081610f5d565b82525050565b6000602082019050610f8b6000830184610f67565b92915050565b610f9a81610f29565b8114610fa557600080fd5b50565b600081359050610fb781610f91565b92915050565b600080fd5b600080fd5b600080fd5b60008083601f840112610fe257610fe1610fbd565b5b8235905067ffffffffffffffff811115610fff57610ffe610fc2565b5b60208301915083602082028301111561101b5761101a610fc7565b5b9250929050565b60008060006040848603121561103b5761103a610eb9565b5b600061104986828701610fa8565b935050602084013567ffffffffffffffff81111561106a57611069610ebe565b5b61107686828701610fcc565b92509250509250925092565b600073ffffffffffffffffffffffffffffffffffffffff82169050919050565b60006110ad82611082565b9050919050565b6110bd816110a2565b81146110c857600080fd5b50565b6000813590506110da816110b4565b92915050565b6000602082840312156110f6576110f5610eb9565b5b6000611104848285016110cb565b91505092915050565b60008115159050919050565b6111228161110d565b82525050565b600060208201905061113d6000830184611119565b92915050565b6000806000806060858703121561115d5761115c610eb9565b5b600061116b878288016110cb565b945050602061117c87828801610fa8565b935050604085013567ffffffffffffffff81111561119d5761119c610ebe565b5b6111a987828801610fcc565b925092505092959194509250565b600082825260208201905092915050565b7f4e6f742063726561746f72000000000000000000000000000000000000000000600082015250565b60006111fe600b836111b7565b9150611209826111c8565b602082019050919050565b6000602082019050818103600083015261122d816111f1565b9050919050565b7f4e6f7420696e20636c61696d20706572696f6400000000000000000000000000600082015250565b600061126a6013836111b7565b915061127582611234565b602082019050919050565b600060208201905081810360008301526112998161125d565b9050919050565b7f416c726561647920636c61696d65640000000000000000000000000000000000600082015250565b60006112d6600f836111b7565b91506112e1826112a0565b602082019050919050565b60006020820190508181036000830152611305816112c9565b9050919050565b611315816110a2565b82525050565b6000602082019050611330600083018461130c565b92915050565b60008151905061134581610f91565b92915050565b60006020828403121561136157611360610eb9565b5b600061136f84828501611336565b91505092915050565b7f4e487b7100000000000000000000000000000000000000000000000000000000600052601260045260246000fd5b7f4e487b7100000000000000000000000000000000000000000000000000000000600052601160045260246000fd5b60006113e182610f29565b91506113ec83610f29565b9250826113fc576113fb611378565b5b828204905092915050565b600060408201905061141c600083018561130c565b6114296020830184610f33565b9392505050565b6114398161110d565b811461144457600080fd5b50565b60008151905061145681611430565b92915050565b60006020828403121561147257611471610eb9565b5b600061148084828501611447565b91505092915050565b7f4e6f7420537461727465642f4578706972656400000000000000000000000000600082015250565b60006114bf6013836111b7565b91506114ca82611489565b602082019050919050565b600060208201905081810360008301526114ee816114b2565b9050919050565b7f496e76616c69642070726f6f6600000000000000000000000000000000000000600082015250565b600061152b600d836111b7565b9150611536826114f5565b602082019050919050565b6000602082019050818103600083015261155a8161151e565b9050919050565b600061156c82610f29565b915061157783610f29565b925082820261158581610f29565b9150828204841483151761159c5761159b6113a7565b5b5092915050565b60006115ae82610f29565b91506115b983610f29565b92508282039050818111156115d1576115d06113a7565b5b92915050565b60008160601b9050919050565b60006115ef826115d7565b9050919050565b6000611601826115e4565b9050919050565b611619611614826110a2565b6115f6565b82525050565b6000819050919050565b61163a61163582610f29565b61161f565b82525050565b600061164c8285611608565b60148201915061165c8284611629565b6020820191508190509392505050565b7f4e6f74206f776e65720000000000000000000000000000000000000000000000600082015250565b60006116a26009836111b7565b91506116ad8261166c565b602082019050919050565b600060208201905081810360008301526116d181611695565b9050919050565b60006116e382610ec3565b91506116ee83610ec3565b92508282026116fc81610ec3565b915080821461170e5761170d6113a7565b5b5092915050565b600061172082610ec3565b915061172b83610ec3565b9250828201905060ff811115611744576117436113a7565b5b92915050565b600063ffffffff82169050919050565b60006117658261174a565b91506117708361174a565b925082820261177e8161174a565b91508082146117905761178f6113a7565b5b5092915050565b60006117a282610f29565b91506117ad83610f29565b92508282019050808211156117c5576117c46113a7565b5b92915050565b7f4e487b7100000000000000000000000000000000000000000000000000000000600052603260045260246000fd5b600061180582610f29565b91507fffffffffffffffffffffffffffffffffffffffffffffffffffffffffffffffff8203611837576118366113a7565b5b60018201905091905056fea26469706673582212207baf54d21b4d3eb2288e1c3ad115d6bbcfbbbef58273a1eb4f0a310504f0920164736f6c63430008120033a26469706673582212201a73619cbe6d0ee21dbff2c0ccce3208779a9f609380cd4b8fbecdb13252f53e64736f6c63430008120033","opcodes":"PUSH1 0xA0 PUSH1 0x40 MSTORE PUSH7 0x2386F26FC10000 PUSH1 0x5 SSTORE PUSH3 0x127500 PUSH1 0x7 SSTORE PUSH3 0x76A700 PUSH1 0x8 SSTORE CALLVALUE DUP1 ISZERO PUSH3 0x2A JUMPI PUSH1 0x0 DUP1 REVERT JUMPDEST POP PUSH1 0x40 MLOAD PUSH3 0x3A93 CODESIZE SUB DUP1 PUSH3 0x3A93 DUP4 CODECOPY DUP2 DUP2 ADD PUSH1 0x40 MSTORE DUP2 ADD SWAP1 PUSH3 0x50 SWAP2 SWAP1 PUSH3 0x222 JUMP JUMPDEST PUSH3 0x70 PUSH3 0x64 PUSH3 0xEC PUSH1 0x20 SHL PUSH1 0x20 SHR JUMP JUMPDEST PUSH3 0xF4 PUSH1 0x20 SHL PUSH1 0x20 SHR JUMP JUMPDEST DUP1 PUSH20 0xFFFFFFFFFFFFFFFFFFFFFFFFFFFFFFFFFFFFFFFF AND PUSH1 0x80 DUP2 PUSH20 0xFFFFFFFFFFFFFFFFFFFFFFFFFFFFFFFFFFFFFFFF AND DUP2 MSTORE POP POP CALLER PUSH1 0x6 PUSH1 0x0 PUSH2 0x100 EXP DUP2 SLOAD DUP2 PUSH20 0xFFFFFFFFFFFFFFFFFFFFFFFFFFFFFFFFFFFFFFFF MUL NOT AND SWAP1 DUP4 PUSH20 0xFFFFFFFFFFFFFFFFFFFFFFFFFFFFFFFFFFFFFFFF AND MUL OR SWAP1 SSTORE POP POP PUSH3 0x254 JUMP JUMPDEST PUSH1 0x0 CALLER SWAP1 POP SWAP1 JUMP JUMPDEST PUSH1 0x0 DUP1 PUSH1 0x0 SWAP1 SLOAD SWAP1 PUSH2 0x100 EXP SWAP1 DIV PUSH20 0xFFFFFFFFFFFFFFFFFFFFFFFFFFFFFFFFFFFFFFFF AND SWAP1 POP DUP2 PUSH1 0x0 DUP1 PUSH2 0x100 EXP DUP2 SLOAD DUP2 PUSH20 0xFFFFFFFFFFFFFFFFFFFFFFFFFFFFFFFFFFFFFFFF MUL NOT AND SWAP1 DUP4 PUSH20 0xFFFFFFFFFFFFFFFFFFFFFFFFFFFFFFFFFFFFFFFF AND MUL OR SWAP1 SSTORE POP DUP2 PUSH20 0xFFFFFFFFFFFFFFFFFFFFFFFFFFFFFFFFFFFFFFFF AND DUP2 PUSH20 0xFFFFFFFFFFFFFFFFFFFFFFFFFFFFFFFFFFFFFFFF AND PUSH32 0x8BE0079C531659141344CD1FD0A4F28419497F9722A3DAAFE3B4186F6B6457E0 PUSH1 0x40 MLOAD PUSH1 0x40 MLOAD DUP1 SWAP2 SUB SWAP1 LOG3 POP POP JUMP JUMPDEST PUSH1 0x0 DUP1 REVERT JUMPDEST PUSH1 0x0 PUSH20 0xFFFFFFFFFFFFFFFFFFFFFFFFFFFFFFFFFFFFFFFF DUP3 AND SWAP1 POP SWAP2 SWAP1 POP JUMP JUMPDEST PUSH1 0x0 PUSH3 0x1EA DUP3 PUSH3 0x1BD JUMP JUMPDEST SWAP1 POP SWAP2 SWAP1 POP JUMP JUMPDEST PUSH3 0x1FC DUP2 PUSH3 0x1DD JUMP JUMPDEST DUP2 EQ PUSH3 0x208 JUMPI PUSH1 0x0 DUP1 REVERT JUMPDEST POP JUMP JUMPDEST PUSH1 0x0 DUP2 MLOAD SWAP1 POP PUSH3 0x21C DUP2 PUSH3 0x1F1 JUMP JUMPDEST SWAP3 SWAP2 POP POP JUMP JUMPDEST PUSH1 0x0 PUSH1 0x20 DUP3 DUP5 SUB SLT ISZERO PUSH3 0x23B JUMPI PUSH3 0x23A PUSH3 0x1B8 JUMP JUMPDEST JUMPDEST PUSH1 0x0 PUSH3 0x24B DUP5 DUP3 DUP6 ADD PUSH3 0x20B JUMP JUMPDEST SWAP2 POP POP SWAP3 SWAP2 POP POP JUMP JUMPDEST PUSH1 0x80 MLOAD PUSH2 0x3823 PUSH3 0x270 PUSH1 0x0 CODECOPY PUSH1 0x0 PUSH2 0x715 ADD MSTORE PUSH2 0x3823 PUSH1 0x0 RETURN INVALID PUSH1 0x80 PUSH1 0x40 MSTORE PUSH1 0x4 CALLDATASIZE LT PUSH3 0xF2 JUMPI PUSH1 0x0 CALLDATALOAD PUSH1 0xE0 SHR DUP1 PUSH4 0x78563A04 GT PUSH3 0x8B JUMPI DUP1 PUSH4 0xD7444EEB GT PUSH3 0x61 JUMPI DUP1 PUSH4 0xD7444EEB EQ PUSH3 0x2D7 JUMPI DUP1 PUSH4 0xDF6EC1BD EQ PUSH3 0x307 JUMPI DUP1 PUSH4 0xE887673D EQ PUSH3 0x335 JUMPI DUP1 PUSH4 0xF2FDE38B EQ PUSH3 0x379 JUMPI PUSH3 0xF2 JUMP JUMPDEST DUP1 PUSH4 0x78563A04 EQ PUSH3 0x257 JUMPI DUP1 PUSH4 0x8DA5CB5B EQ PUSH3 0x277 JUMPI DUP1 PUSH4 0x9FDDAA93 EQ PUSH3 0x2A7 JUMPI PUSH3 0xF2 JUMP JUMPDEST DUP1 PUSH4 0x41275358 GT PUSH3 0xCD JUMPI DUP1 PUSH4 0x41275358 EQ PUSH3 0x1AF JUMPI DUP1 PUSH4 0x5E5C6ADA EQ PUSH3 0x1DF JUMPI DUP1 PUSH4 0x6AE3484E EQ PUSH3 0x20D JUMPI DUP1 PUSH4 0x715018A6 EQ PUSH3 0x23D JUMPI PUSH3 0xF2 JUMP JUMPDEST DUP1 PUSH4 0x6D9C569 EQ PUSH3 0xF7 JUMPI DUP1 PUSH4 0x191D6163 EQ PUSH3 0x13B JUMPI DUP1 PUSH4 0x38C7C2BC EQ PUSH3 0x16B JUMPI JUMPDEST PUSH1 0x0 DUP1 REVERT JUMPDEST CALLVALUE DUP1 ISZERO PUSH3 0x104 JUMPI PUSH1 0x0 DUP1 REVERT JUMPDEST POP PUSH3 0x123 PUSH1 0x4 DUP1 CALLDATASIZE SUB DUP2 ADD SWAP1 PUSH3 0x11D SWAP2 SWAP1 PUSH3 0xED6 JUMP JUMPDEST PUSH3 0x3A7 JUMP JUMPDEST PUSH1 0x40 MLOAD PUSH3 0x132 SWAP2 SWAP1 PUSH3 0xFA2 JUMP JUMPDEST PUSH1 0x40 MLOAD DUP1 SWAP2 SUB SWAP1 RETURN JUMPDEST CALLVALUE DUP1 ISZERO PUSH3 0x148 JUMPI PUSH1 0x0 DUP1 REVERT JUMPDEST POP PUSH3 0x153 PUSH3 0x44F JUMP JUMPDEST PUSH1 0x40 MLOAD PUSH3 0x162 SWAP2 SWAP1 PUSH3 0xFE1 JUMP JUMPDEST PUSH1 0x40 MLOAD DUP1 SWAP2 SUB SWAP1 RETURN JUMPDEST CALLVALUE DUP1 ISZERO PUSH3 0x178 JUMPI PUSH1 0x0 DUP1 REVERT JUMPDEST POP PUSH3 0x197 PUSH1 0x4 DUP1 CALLDATASIZE SUB DUP2 ADD SWAP1 PUSH3 0x191 SWAP2 SWAP1 PUSH3 0xED6 JUMP JUMPDEST PUSH3 0x455 JUMP JUMPDEST PUSH1 0x40 MLOAD PUSH3 0x1A6 SWAP2 SWAP1 PUSH3 0x10CC JUMP JUMPDEST PUSH1 0x40 MLOAD DUP1 SWAP2 SUB SWAP1 RETURN JUMPDEST CALLVALUE DUP1 ISZERO PUSH3 0x1BC JUMPI PUSH1 0x0 DUP1 REVERT JUMPDEST POP PUSH3 0x1C7 PUSH3 0x524 JUMP JUMPDEST PUSH1 0x40 MLOAD PUSH3 0x1D6 SWAP2 SWAP1 PUSH3 0x1115 JUMP JUMPDEST PUSH1 0x40 MLOAD DUP1 SWAP2 SUB SWAP1 RETURN JUMPDEST CALLVALUE DUP1 ISZERO PUSH3 0x1EC JUMPI PUSH1 0x0 DUP1 REVERT JUMPDEST POP PUSH3 0x20B PUSH1 0x4 DUP1 CALLDATASIZE SUB DUP2 ADD SWAP1 PUSH3 0x205 SWAP2 SWAP1 PUSH3 0x1194 JUMP JUMPDEST PUSH3 0x54A JUMP JUMPDEST STOP JUMPDEST CALLVALUE DUP1 ISZERO PUSH3 0x21A JUMPI PUSH1 0x0 DUP1 REVERT JUMPDEST POP PUSH3 0x225 PUSH3 0x5A0 JUMP JUMPDEST PUSH1 0x40 MLOAD PUSH3 0x234 SWAP2 SWAP1 PUSH3 0xFE1 JUMP JUMPDEST PUSH1 0x40 MLOAD DUP1 SWAP2 SUB SWAP1 RETURN JUMPDEST CALLVALUE DUP1 ISZERO PUSH3 0x24A JUMPI PUSH1 0x0 DUP1 REVERT JUMPDEST POP PUSH3 0x255 PUSH3 0x5A6 JUMP JUMPDEST STOP JUMPDEST PUSH3 0x275 PUSH1 0x4 DUP1 CALLDATASIZE SUB DUP2 ADD SWAP1 PUSH3 0x26F SWAP2 SWAP1 PUSH3 0x13A4 JUMP JUMPDEST PUSH3 0x5BE JUMP JUMPDEST STOP JUMPDEST CALLVALUE DUP1 ISZERO PUSH3 0x284 JUMPI PUSH1 0x0 DUP1 REVERT JUMPDEST POP PUSH3 0x28F PUSH3 0xACA JUMP JUMPDEST PUSH1 0x40 MLOAD PUSH3 0x29E SWAP2 SWAP1 PUSH3 0x1487 JUMP JUMPDEST PUSH1 0x40 MLOAD DUP1 SWAP2 SUB SWAP1 RETURN JUMPDEST CALLVALUE DUP1 ISZERO PUSH3 0x2B4 JUMPI PUSH1 0x0 DUP1 REVERT JUMPDEST POP PUSH3 0x2BF PUSH3 0xAF3 JUMP JUMPDEST PUSH1 0x40 MLOAD PUSH3 0x2CE SWAP2 SWAP1 PUSH3 0xFE1 JUMP JUMPDEST PUSH1 0x40 MLOAD DUP1 SWAP2 SUB SWAP1 RETURN JUMPDEST CALLVALUE DUP1 ISZERO PUSH3 0x2E4 JUMPI PUSH1 0x0 DUP1 REVERT JUMPDEST POP PUSH3 0x2EF PUSH3 0xAF9 JUMP JUMPDEST PUSH1 0x40 MLOAD PUSH3 0x2FE SWAP2 SWAP1 PUSH3 0x10CC JUMP JUMPDEST PUSH1 0x40 MLOAD DUP1 SWAP2 SUB SWAP1 RETURN JUMPDEST CALLVALUE DUP1 ISZERO PUSH3 0x314 JUMPI PUSH1 0x0 DUP1 REVERT JUMPDEST POP PUSH3 0x333 PUSH1 0x4 DUP1 CALLDATASIZE SUB DUP2 ADD SWAP1 PUSH3 0x32D SWAP2 SWAP1 PUSH3 0x14A4 JUMP JUMPDEST PUSH3 0xB89 JUMP JUMPDEST STOP JUMPDEST CALLVALUE DUP1 ISZERO PUSH3 0x342 JUMPI PUSH1 0x0 DUP1 REVERT JUMPDEST POP PUSH3 0x361 PUSH1 0x4 DUP1 CALLDATASIZE SUB DUP2 ADD SWAP1 PUSH3 0x35B SWAP2 SWAP1 PUSH3 0xED6 JUMP JUMPDEST PUSH3 0xBA5 JUMP JUMPDEST PUSH1 0x40 MLOAD PUSH3 0x370 SWAP2 SWAP1 PUSH3 0x10CC JUMP JUMPDEST PUSH1 0x40 MLOAD DUP1 SWAP2 SUB SWAP1 RETURN JUMPDEST CALLVALUE DUP1 ISZERO PUSH3 0x386 JUMPI PUSH1 0x0 DUP1 REVERT JUMPDEST POP PUSH3 0x3A5 PUSH1 0x4 DUP1 CALLDATASIZE SUB DUP2 ADD SWAP1 PUSH3 0x39F SWAP2 SWAP1 PUSH3 0xED6 JUMP JUMPDEST PUSH3 0xC74 JUMP JUMPDEST STOP JUMPDEST PUSH1 0x3 PUSH1 0x20 MSTORE DUP1 PUSH1 0x0 MSTORE PUSH1 0x40 PUSH1 0x0 KECCAK256 PUSH1 0x0 SWAP2 POP SWAP1 POP DUP1 SLOAD PUSH3 0x3C8 SWAP1 PUSH3 0x151A JUMP JUMPDEST DUP1 PUSH1 0x1F ADD PUSH1 0x20 DUP1 SWAP2 DIV MUL PUSH1 0x20 ADD PUSH1 0x40 MLOAD SWAP1 DUP2 ADD PUSH1 0x40 MSTORE DUP1 SWAP3 SWAP2 SWAP1 DUP2 DUP2 MSTORE PUSH1 0x20 ADD DUP3 DUP1 SLOAD PUSH3 0x3F6 SWAP1 PUSH3 0x151A JUMP JUMPDEST DUP1 ISZERO PUSH3 0x447 JUMPI DUP1 PUSH1 0x1F LT PUSH3 0x41B JUMPI PUSH2 0x100 DUP1 DUP4 SLOAD DIV MUL DUP4 MSTORE SWAP2 PUSH1 0x20 ADD SWAP2 PUSH3 0x447 JUMP JUMPDEST DUP3 ADD SWAP2 SWAP1 PUSH1 0x0 MSTORE PUSH1 0x20 PUSH1 0x0 KECCAK256 SWAP1 JUMPDEST DUP2 SLOAD DUP2 MSTORE SWAP1 PUSH1 0x1 ADD SWAP1 PUSH1 0x20 ADD DUP1 DUP4 GT PUSH3 0x429 JUMPI DUP3 SWAP1 SUB PUSH1 0x1F AND DUP3 ADD SWAP2 JUMPDEST POP POP POP POP POP DUP2 JUMP JUMPDEST PUSH1 0x7 SLOAD DUP2 JUMP JUMPDEST PUSH1 0x60 PUSH1 0x1 PUSH1 0x0 DUP4 PUSH20 0xFFFFFFFFFFFFFFFFFFFFFFFFFFFFFFFFFFFFFFFF AND PUSH20 0xFFFFFFFFFFFFFFFFFFFFFFFFFFFFFFFFFFFFFFFF AND DUP2 MSTORE PUSH1 0x20 ADD SWAP1 DUP2 MSTORE PUSH1 0x20 ADD PUSH1 0x0 KECCAK256 DUP1 SLOAD DUP1 PUSH1 0x20 MUL PUSH1 0x20 ADD PUSH1 0x40 MLOAD SWAP1 DUP2 ADD PUSH1 0x40 MSTORE DUP1 SWAP3 SWAP2 SWAP1 DUP2 DUP2 MSTORE PUSH1 0x20 ADD DUP3 DUP1 SLOAD DUP1 ISZERO PUSH3 0x518 JUMPI PUSH1 0x20 MUL DUP3 ADD SWAP2 SWAP1 PUSH1 0x0 MSTORE PUSH1 0x20 PUSH1 0x0 KECCAK256 SWAP1 JUMPDEST DUP2 PUSH1 0x0 SWAP1 SLOAD SWAP1 PUSH2 0x100 EXP SWAP1 DIV PUSH20 0xFFFFFFFFFFFFFFFFFFFFFFFFFFFFFFFFFFFFFFFF AND PUSH20 0xFFFFFFFFFFFFFFFFFFFFFFFFFFFFFFFFFFFFFFFF AND DUP2 MSTORE PUSH1 0x20 ADD SWAP1 PUSH1 0x1 ADD SWAP1 DUP1 DUP4 GT PUSH3 0x4CD JUMPI JUMPDEST POP POP POP POP POP SWAP1 POP SWAP2 SWAP1 POP JUMP JUMPDEST PUSH1 0x6 PUSH1 0x0 SWAP1 SLOAD SWAP1 PUSH2 0x100 EXP SWAP1 DIV PUSH20 0xFFFFFFFFFFFFFFFFFFFFFFFFFFFFFFFFFFFFFFFF AND DUP2 JUMP JUMPDEST PUSH3 0x554 PUSH3 0xCFE JUMP JUMPDEST DUP2 PUSH1 0x6 PUSH1 0x0 PUSH2 0x100 EXP DUP2 SLOAD DUP2 PUSH20 0xFFFFFFFFFFFFFFFFFFFFFFFFFFFFFFFFFFFFFFFF MUL NOT AND SWAP1 DUP4 PUSH20 0xFFFFFFFFFFFFFFFFFFFFFFFFFFFFFFFFFFFFFFFF AND MUL OR SWAP1 SSTORE POP DUP1 PUSH1 0x5 DUP2 SWAP1 SSTORE POP POP POP JUMP JUMPDEST PUSH1 0x8 SLOAD DUP2 JUMP JUMPDEST PUSH3 0x5B0 PUSH3 0xCFE JUMP JUMPDEST PUSH3 0x5BC PUSH1 0x0 PUSH3 0xD83 JUMP JUMPDEST JUMP JUMPDEST PUSH1 0x0 DUP5 DUP5 PUSH3 0x5CE SWAP2 SWAP1 PUSH3 0x157E JUMP JUMPDEST SWAP1 POP PUSH1 0x7 SLOAD DUP2 LT ISZERO DUP1 ISZERO PUSH3 0x5E5 JUMPI POP PUSH1 0x8 SLOAD DUP2 GT ISZERO JUMPDEST PUSH3 0x627 JUMPI PUSH1 0x40 MLOAD PUSH32 0x8C379A000000000000000000000000000000000000000000000000000000000 DUP2 MSTORE PUSH1 0x4 ADD PUSH3 0x61E SWAP1 PUSH3 0x162F JUMP JUMPDEST PUSH1 0x40 MLOAD DUP1 SWAP2 SUB SWAP1 REVERT JUMPDEST PUSH1 0x0 DUP7 GT PUSH3 0x66D JUMPI PUSH1 0x40 MLOAD PUSH32 0x8C379A000000000000000000000000000000000000000000000000000000000 DUP2 MSTORE PUSH1 0x4 ADD PUSH3 0x664 SWAP1 PUSH3 0x16A1 JUMP JUMPDEST PUSH1 0x40 MLOAD DUP1 SWAP2 SUB SWAP1 REVERT JUMPDEST PUSH1 0x0 DUP8 CALLER PUSH3 0x67B PUSH3 0xACA JUMP JUMPDEST DUP9 DUP9 DUP8 PUSH1 0x40 MLOAD PUSH3 0x68C SWAP1 PUSH3 0xE4F JUMP JUMPDEST PUSH3 0x69D SWAP7 SWAP6 SWAP5 SWAP4 SWAP3 SWAP2 SWAP1 PUSH3 0x16D4 JUMP JUMPDEST PUSH1 0x40 MLOAD DUP1 SWAP2 SUB SWAP1 PUSH1 0x0 CREATE DUP1 ISZERO DUP1 ISZERO PUSH3 0x6BA JUMPI RETURNDATASIZE PUSH1 0x0 DUP1 RETURNDATACOPY RETURNDATASIZE PUSH1 0x0 REVERT JUMPDEST POP SWAP1 POP DUP4 PUSH1 0x3 PUSH1 0x0 DUP4 PUSH20 0xFFFFFFFFFFFFFFFFFFFFFFFFFFFFFFFFFFFFFFFF AND PUSH20 0xFFFFFFFFFFFFFFFFFFFFFFFFFFFFFFFFFFFFFFFF AND DUP2 MSTORE PUSH1 0x20 ADD SWAP1 DUP2 MSTORE PUSH1 0x20 ADD PUSH1 0x0 KECCAK256 SWAP1 DUP2 PUSH3 0x70B SWAP2 SWAP1 PUSH3 0x1913 JUMP JUMPDEST POP DUP9 ISZERO PUSH3 0x7E3 JUMPI PUSH32 0x0 PUSH20 0xFFFFFFFFFFFFFFFFFFFFFFFFFFFFFFFFFFFFFFFF AND PUSH4 0x23B872DD CALLER PUSH1 0x6 PUSH1 0x0 SWAP1 SLOAD SWAP1 PUSH2 0x100 EXP SWAP1 DIV PUSH20 0xFFFFFFFFFFFFFFFFFFFFFFFFFFFFFFFFFFFFFFFF AND PUSH1 0x5 SLOAD PUSH1 0x40 MLOAD DUP5 PUSH4 0xFFFFFFFF AND PUSH1 0xE0 SHL DUP2 MSTORE PUSH1 0x4 ADD PUSH3 0x796 SWAP4 SWAP3 SWAP2 SWAP1 PUSH3 0x1A5B JUMP JUMPDEST PUSH1 0x20 PUSH1 0x40 MLOAD DUP1 DUP4 SUB DUP2 PUSH1 0x0 DUP8 GAS CALL ISZERO DUP1 ISZERO PUSH3 0x7B6 JUMPI RETURNDATASIZE PUSH1 0x0 DUP1 RETURNDATACOPY RETURNDATASIZE PUSH1 0x0 REVERT JUMPDEST POP POP POP POP PUSH1 0x40 MLOAD RETURNDATASIZE PUSH1 0x1F NOT PUSH1 0x1F DUP3 ADD AND DUP3 ADD DUP1 PUSH1 0x40 MSTORE POP DUP2 ADD SWAP1 PUSH3 0x7DC SWAP2 SWAP1 PUSH3 0x1AAF JUMP JUMPDEST POP PUSH3 0x896 JUMP JUMPDEST PUSH1 0x5 SLOAD CALLVALUE LT ISZERO PUSH3 0x82B JUMPI PUSH1 0x40 MLOAD PUSH32 0x8C379A000000000000000000000000000000000000000000000000000000000 DUP2 MSTORE PUSH1 0x4 ADD PUSH3 0x822 SWAP1 PUSH3 0x1B31 JUMP JUMPDEST PUSH1 0x40 MLOAD DUP1 SWAP2 SUB SWAP1 REVERT JUMPDEST PUSH1 0x6 PUSH1 0x0 SWAP1 SLOAD SWAP1 PUSH2 0x100 EXP SWAP1 DIV PUSH20 0xFFFFFFFFFFFFFFFFFFFFFFFFFFFFFFFFFFFFFFFF AND PUSH20 0xFFFFFFFFFFFFFFFFFFFFFFFFFFFFFFFFFFFFFFFF AND PUSH2 0x8FC CALLVALUE SWAP1 DUP2 ISZERO MUL SWAP1 PUSH1 0x40 MLOAD PUSH1 0x0 PUSH1 0x40 MLOAD DUP1 DUP4 SUB DUP2 DUP6 DUP9 DUP9 CALL SWAP4 POP POP POP POP ISZERO DUP1 ISZERO PUSH3 0x894 JUMPI RETURNDATASIZE PUSH1 0x0 DUP1 RETURNDATACOPY RETURNDATASIZE PUSH1 0x0 REVERT JUMPDEST POP JUMPDEST PUSH1 0x4 DUP2 SWAP1 DUP1 PUSH1 0x1 DUP2 SLOAD ADD DUP1 DUP3 SSTORE DUP1 SWAP2 POP POP PUSH1 0x1 SWAP1 SUB SWAP1 PUSH1 0x0 MSTORE PUSH1 0x20 PUSH1 0x0 KECCAK256 ADD PUSH1 0x0 SWAP1 SWAP2 SWAP1 SWAP2 SWAP1 SWAP2 PUSH2 0x100 EXP DUP2 SLOAD DUP2 PUSH20 0xFFFFFFFFFFFFFFFFFFFFFFFFFFFFFFFFFFFFFFFF MUL NOT AND SWAP1 DUP4 PUSH20 0xFFFFFFFFFFFFFFFFFFFFFFFFFFFFFFFFFFFFFFFF AND MUL OR SWAP1 SSTORE POP PUSH1 0x1 PUSH1 0x0 DUP10 PUSH20 0xFFFFFFFFFFFFFFFFFFFFFFFFFFFFFFFFFFFFFFFF AND PUSH20 0xFFFFFFFFFFFFFFFFFFFFFFFFFFFFFFFFFFFFFFFF AND DUP2 MSTORE PUSH1 0x20 ADD SWAP1 DUP2 MSTORE PUSH1 0x20 ADD PUSH1 0x0 KECCAK256 DUP2 SWAP1 DUP1 PUSH1 0x1 DUP2 SLOAD ADD DUP1 DUP3 SSTORE DUP1 SWAP2 POP POP PUSH1 0x1 SWAP1 SUB SWAP1 PUSH1 0x0 MSTORE PUSH1 0x20 PUSH1 0x0 KECCAK256 ADD PUSH1 0x0 SWAP1 SWAP2 SWAP1 SWAP2 SWAP1 SWAP2 PUSH2 0x100 EXP DUP2 SLOAD DUP2 PUSH20 0xFFFFFFFFFFFFFFFFFFFFFFFFFFFFFFFFFFFFFFFF MUL NOT AND SWAP1 DUP4 PUSH20 0xFFFFFFFFFFFFFFFFFFFFFFFFFFFFFFFFFFFFFFFF AND MUL OR SWAP1 SSTORE POP PUSH1 0x2 PUSH1 0x0 CALLER PUSH20 0xFFFFFFFFFFFFFFFFFFFFFFFFFFFFFFFFFFFFFFFF AND PUSH20 0xFFFFFFFFFFFFFFFFFFFFFFFFFFFFFFFFFFFFFFFF AND DUP2 MSTORE PUSH1 0x20 ADD SWAP1 DUP2 MSTORE PUSH1 0x20 ADD PUSH1 0x0 KECCAK256 DUP2 SWAP1 DUP1 PUSH1 0x1 DUP2 SLOAD ADD DUP1 DUP3 SSTORE DUP1 SWAP2 POP POP PUSH1 0x1 SWAP1 SUB SWAP1 PUSH1 0x0 MSTORE PUSH1 0x20 PUSH1 0x0 KECCAK256 ADD PUSH1 0x0 SWAP1 SWAP2 SWAP1 SWAP2 SWAP1 SWAP2 PUSH2 0x100 EXP DUP2 SLOAD DUP2 PUSH20 0xFFFFFFFFFFFFFFFFFFFFFFFFFFFFFFFFFFFFFFFF MUL NOT AND SWAP1 DUP4 PUSH20 0xFFFFFFFFFFFFFFFFFFFFFFFFFFFFFFFFFFFFFFFF AND MUL OR SWAP1 SSTORE POP DUP8 PUSH20 0xFFFFFFFFFFFFFFFFFFFFFFFFFFFFFFFFFFFFFFFF AND PUSH4 0x23B872DD CALLER DUP4 DUP11 PUSH1 0x40 MLOAD DUP5 PUSH4 0xFFFFFFFF AND PUSH1 0xE0 SHL DUP2 MSTORE PUSH1 0x4 ADD PUSH3 0xA78 SWAP4 SWAP3 SWAP2 SWAP1 PUSH3 0x1B53 JUMP JUMPDEST PUSH1 0x20 PUSH1 0x40 MLOAD DUP1 DUP4 SUB DUP2 PUSH1 0x0 DUP8 GAS CALL ISZERO DUP1 ISZERO PUSH3 0xA98 JUMPI RETURNDATASIZE PUSH1 0x0 DUP1 RETURNDATACOPY RETURNDATASIZE PUSH1 0x0 REVERT JUMPDEST POP POP POP POP PUSH1 0x40 MLOAD RETURNDATASIZE PUSH1 0x1F NOT PUSH1 0x1F DUP3 ADD AND DUP3 ADD DUP1 PUSH1 0x40 MSTORE POP DUP2 ADD SWAP1 PUSH3 0xABE SWAP2 SWAP1 PUSH3 0x1AAF JUMP JUMPDEST POP POP POP POP POP POP POP POP POP POP JUMP JUMPDEST PUSH1 0x0 DUP1 PUSH1 0x0 SWAP1 SLOAD SWAP1 PUSH2 0x100 EXP SWAP1 DIV PUSH20 0xFFFFFFFFFFFFFFFFFFFFFFFFFFFFFFFFFFFFFFFF AND SWAP1 POP SWAP1 JUMP JUMPDEST PUSH1 0x5 SLOAD DUP2 JUMP JUMPDEST PUSH1 0x60 PUSH1 0x4 DUP1 SLOAD DUP1 PUSH1 0x20 MUL PUSH1 0x20 ADD PUSH1 0x40 MLOAD SWAP1 DUP2 ADD PUSH1 0x40 MSTORE DUP1 SWAP3 SWAP2 SWAP1 DUP2 DUP2 MSTORE PUSH1 0x20 ADD DUP3 DUP1 SLOAD DUP1 ISZERO PUSH3 0xB7F JUMPI PUSH1 0x20 MUL DUP3 ADD SWAP2 SWAP1 PUSH1 0x0 MSTORE PUSH1 0x20 PUSH1 0x0 KECCAK256 SWAP1 JUMPDEST DUP2 PUSH1 0x0 SWAP1 SLOAD SWAP1 PUSH2 0x100 EXP SWAP1 DIV PUSH20 0xFFFFFFFFFFFFFFFFFFFFFFFFFFFFFFFFFFFFFFFF AND PUSH20 0xFFFFFFFFFFFFFFFFFFFFFFFFFFFFFFFFFFFFFFFF AND DUP2 MSTORE PUSH1 0x20 ADD SWAP1 PUSH1 0x1 ADD SWAP1 DUP1 DUP4 GT PUSH3 0xB34 JUMPI JUMPDEST POP POP POP POP POP SWAP1 POP SWAP1 JUMP JUMPDEST PUSH3 0xB93 PUSH3 0xCFE JUMP JUMPDEST DUP2 PUSH1 0x7 DUP2 SWAP1 SSTORE POP DUP1 PUSH1 0x8 DUP2 SWAP1 SSTORE POP POP POP JUMP JUMPDEST PUSH1 0x60 PUSH1 0x2 PUSH1 0x0 DUP4 PUSH20 0xFFFFFFFFFFFFFFFFFFFFFFFFFFFFFFFFFFFFFFFF AND PUSH20 0xFFFFFFFFFFFFFFFFFFFFFFFFFFFFFFFFFFFFFFFF AND DUP2 MSTORE PUSH1 0x20 ADD SWAP1 DUP2 MSTORE PUSH1 0x20 ADD PUSH1 0x0 KECCAK256 DUP1 SLOAD DUP1 PUSH1 0x20 MUL PUSH1 0x20 ADD PUSH1 0x40 MLOAD SWAP1 DUP2 ADD PUSH1 0x40 MSTORE DUP1 SWAP3 SWAP2 SWAP1 DUP2 DUP2 MSTORE PUSH1 0x20 ADD DUP3 DUP1 SLOAD DUP1 ISZERO PUSH3 0xC68 JUMPI PUSH1 0x20 MUL DUP3 ADD SWAP2 SWAP1 PUSH1 0x0 MSTORE PUSH1 0x20 PUSH1 0x0 KECCAK256 SWAP1 JUMPDEST DUP2 PUSH1 0x0 SWAP1 SLOAD SWAP1 PUSH2 0x100 EXP SWAP1 DIV PUSH20 0xFFFFFFFFFFFFFFFFFFFFFFFFFFFFFFFFFFFFFFFF AND PUSH20 0xFFFFFFFFFFFFFFFFFFFFFFFFFFFFFFFFFFFFFFFF AND DUP2 MSTORE PUSH1 0x20 ADD SWAP1 PUSH1 0x1 ADD SWAP1 DUP1 DUP4 GT PUSH3 0xC1D JUMPI JUMPDEST POP POP POP POP POP SWAP1 POP SWAP2 SWAP1 POP JUMP JUMPDEST PUSH3 0xC7E PUSH3 0xCFE JUMP JUMPDEST PUSH1 0x0 PUSH20 0xFFFFFFFFFFFFFFFFFFFFFFFFFFFFFFFFFFFFFFFF AND DUP2 PUSH20 0xFFFFFFFFFFFFFFFFFFFFFFFFFFFFFFFFFFFFFFFF AND SUB PUSH3 0xCF0 JUMPI PUSH1 0x40 MLOAD PUSH32 0x8C379A000000000000000000000000000000000000000000000000000000000 DUP2 MSTORE PUSH1 0x4 ADD PUSH3 0xCE7 SWAP1 PUSH3 0x1C06 JUMP JUMPDEST PUSH1 0x40 MLOAD DUP1 SWAP2 SUB SWAP1 REVERT JUMPDEST PUSH3 0xCFB DUP2 PUSH3 0xD83 JUMP JUMPDEST POP JUMP JUMPDEST PUSH3 0xD08 PUSH3 0xE47 JUMP JUMPDEST PUSH20 0xFFFFFFFFFFFFFFFFFFFFFFFFFFFFFFFFFFFFFFFF AND PUSH3 0xD28 PUSH3 0xACA JUMP JUMPDEST PUSH20 0xFFFFFFFFFFFFFFFFFFFFFFFFFFFFFFFFFFFFFFFF AND EQ PUSH3 0xD81 JUMPI PUSH1 0x40 MLOAD PUSH32 0x8C379A000000000000000000000000000000000000000000000000000000000 DUP2 MSTORE PUSH1 0x4 ADD PUSH3 0xD78 SWAP1 PUSH3 0x1C78 JUMP JUMPDEST PUSH1 0x40 MLOAD DUP1 SWAP2 SUB SWAP1 REVERT JUMPDEST JUMP JUMPDEST PUSH1 0x0 DUP1 PUSH1 0x0 SWAP1 SLOAD SWAP1 PUSH2 0x100 EXP SWAP1 DIV PUSH20 0xFFFFFFFFFFFFFFFFFFFFFFFFFFFFFFFFFFFFFFFF AND SWAP1 POP DUP2 PUSH1 0x0 DUP1 PUSH2 0x100 EXP DUP2 SLOAD DUP2 PUSH20 0xFFFFFFFFFFFFFFFFFFFFFFFFFFFFFFFFFFFFFFFF MUL NOT AND SWAP1 DUP4 PUSH20 0xFFFFFFFFFFFFFFFFFFFFFFFFFFFFFFFFFFFFFFFF AND MUL OR SWAP1 SSTORE POP DUP2 PUSH20 0xFFFFFFFFFFFFFFFFFFFFFFFFFFFFFFFFFFFFFFFF AND DUP2 PUSH20 0xFFFFFFFFFFFFFFFFFFFFFFFFFFFFFFFFFFFFFFFF AND PUSH32 0x8BE0079C531659141344CD1FD0A4F28419497F9722A3DAAFE3B4186F6B6457E0 PUSH1 0x40 MLOAD PUSH1 0x40 MLOAD DUP1 SWAP2 SUB SWAP1 LOG3 POP POP JUMP JUMPDEST PUSH1 0x0 CALLER SWAP1 POP SWAP1 JUMP JUMPDEST PUSH2 0x1B53 DUP1 PUSH3 0x1C9B DUP4 CODECOPY ADD SWAP1 JUMP JUMPDEST PUSH1 0x0 PUSH1 0x40 MLOAD SWAP1 POP SWAP1 JUMP JUMPDEST PUSH1 0x0 DUP1 REVERT JUMPDEST PUSH1 0x0 DUP1 REVERT JUMPDEST PUSH1 0x0 PUSH20 0xFFFFFFFFFFFFFFFFFFFFFFFFFFFFFFFFFFFFFFFF DUP3 AND SWAP1 POP SWAP2 SWAP1 POP JUMP JUMPDEST PUSH1 0x0 PUSH3 0xE9E DUP3 PUSH3 0xE71 JUMP JUMPDEST SWAP1 POP SWAP2 SWAP1 POP JUMP JUMPDEST PUSH3 0xEB0 DUP2 PUSH3 0xE91 JUMP JUMPDEST DUP2 EQ PUSH3 0xEBC JUMPI PUSH1 0x0 DUP1 REVERT JUMPDEST POP JUMP JUMPDEST PUSH1 0x0 DUP2 CALLDATALOAD SWAP1 POP PUSH3 0xED0 DUP2 PUSH3 0xEA5 JUMP JUMPDEST SWAP3 SWAP2 POP POP JUMP JUMPDEST PUSH1 0x0 PUSH1 0x20 DUP3 DUP5 SUB SLT ISZERO PUSH3 0xEEF JUMPI PUSH3 0xEEE PUSH3 0xE67 JUMP JUMPDEST JUMPDEST PUSH1 0x0 PUSH3 0xEFF DUP5 DUP3 DUP6 ADD PUSH3 0xEBF JUMP JUMPDEST SWAP2 POP POP SWAP3 SWAP2 POP POP JUMP JUMPDEST PUSH1 0x0 DUP2 MLOAD SWAP1 POP SWAP2 SWAP1 POP JUMP JUMPDEST PUSH1 0x0 DUP3 DUP3 MSTORE PUSH1 0x20 DUP3 ADD SWAP1 POP SWAP3 SWAP2 POP POP JUMP JUMPDEST PUSH1 0x0 JUMPDEST DUP4 DUP2 LT ISZERO PUSH3 0xF44 JUMPI DUP1 DUP3 ADD MLOAD DUP2 DUP5 ADD MSTORE PUSH1 0x20 DUP2 ADD SWAP1 POP PUSH3 0xF27 JUMP JUMPDEST PUSH1 0x0 DUP5 DUP5 ADD MSTORE POP POP POP POP JUMP JUMPDEST PUSH1 0x0 PUSH1 0x1F NOT PUSH1 0x1F DUP4 ADD AND SWAP1 POP SWAP2 SWAP1 POP JUMP JUMPDEST PUSH1 0x0 PUSH3 0xF6E DUP3 PUSH3 0xF08 JUMP JUMPDEST PUSH3 0xF7A DUP2 DUP6 PUSH3 0xF13 JUMP JUMPDEST SWAP4 POP PUSH3 0xF8C DUP2 DUP6 PUSH1 0x20 DUP7 ADD PUSH3 0xF24 JUMP JUMPDEST PUSH3 0xF97 DUP2 PUSH3 0xF50 JUMP JUMPDEST DUP5 ADD SWAP2 POP POP SWAP3 SWAP2 POP POP JUMP JUMPDEST PUSH1 0x0 PUSH1 0x20 DUP3 ADD SWAP1 POP DUP2 DUP2 SUB PUSH1 0x0 DUP4 ADD MSTORE PUSH3 0xFBE DUP2 DUP5 PUSH3 0xF61 JUMP JUMPDEST SWAP1 POP SWAP3 SWAP2 POP POP JUMP JUMPDEST PUSH1 0x0 DUP2 SWAP1 POP SWAP2 SWAP1 POP JUMP JUMPDEST PUSH3 0xFDB DUP2 PUSH3 0xFC6 JUMP JUMPDEST DUP3 MSTORE POP POP JUMP JUMPDEST PUSH1 0x0 PUSH1 0x20 DUP3 ADD SWAP1 POP PUSH3 0xFF8 PUSH1 0x0 DUP4 ADD DUP5 PUSH3 0xFD0 JUMP JUMPDEST SWAP3 SWAP2 POP POP JUMP JUMPDEST PUSH1 0x0 DUP2 MLOAD SWAP1 POP SWAP2 SWAP1 POP JUMP JUMPDEST PUSH1 0x0 DUP3 DUP3 MSTORE PUSH1 0x20 DUP3 ADD SWAP1 POP SWAP3 SWAP2 POP POP JUMP JUMPDEST PUSH1 0x0 DUP2 SWAP1 POP PUSH1 0x20 DUP3 ADD SWAP1 POP SWAP2 SWAP1 POP JUMP JUMPDEST PUSH3 0x1035 DUP2 PUSH3 0xE91 JUMP JUMPDEST DUP3 MSTORE POP POP JUMP JUMPDEST PUSH1 0x0 PUSH3 0x1049 DUP4 DUP4 PUSH3 0x102A JUMP JUMPDEST PUSH1 0x20 DUP4 ADD SWAP1 POP SWAP3 SWAP2 POP POP JUMP JUMPDEST PUSH1 0x0 PUSH1 0x20 DUP3 ADD SWAP1 POP SWAP2 SWAP1 POP JUMP JUMPDEST PUSH1 0x0 PUSH3 0x106F DUP3 PUSH3 0xFFE JUMP JUMPDEST PUSH3 0x107B DUP2 DUP6 PUSH3 0x1009 JUMP JUMPDEST SWAP4 POP PUSH3 0x1088 DUP4 PUSH3 0x101A JUMP JUMPDEST DUP1 PUSH1 0x0 JUMPDEST DUP4 DUP2 LT ISZERO PUSH3 0x10BF JUMPI DUP2 MLOAD PUSH3 0x10A3 DUP9 DUP3 PUSH3 0x103B JUMP JUMPDEST SWAP8 POP PUSH3 0x10B0 DUP4 PUSH3 0x1055 JUMP JUMPDEST SWAP3 POP POP PUSH1 0x1 DUP2 ADD SWAP1 POP PUSH3 0x108C JUMP JUMPDEST POP DUP6 SWAP4 POP POP POP POP SWAP3 SWAP2 POP POP JUMP JUMPDEST PUSH1 0x0 PUSH1 0x20 DUP3 ADD SWAP1 POP DUP2 DUP2 SUB PUSH1 0x0 DUP4 ADD MSTORE PUSH3 0x10E8 DUP2 DUP5 PUSH3 0x1062 JUMP JUMPDEST SWAP1 POP SWAP3 SWAP2 POP POP JUMP JUMPDEST PUSH1 0x0 PUSH3 0x10FD DUP3 PUSH3 0xE71 JUMP JUMPDEST SWAP1 POP SWAP2 SWAP1 POP JUMP JUMPDEST PUSH3 0x110F DUP2 PUSH3 0x10F0 JUMP JUMPDEST DUP3 MSTORE POP POP JUMP JUMPDEST PUSH1 0x0 PUSH1 0x20 DUP3 ADD SWAP1 POP PUSH3 0x112C PUSH1 0x0 DUP4 ADD DUP5 PUSH3 0x1104 JUMP JUMPDEST SWAP3 SWAP2 POP POP JUMP JUMPDEST PUSH3 0x113D DUP2 PUSH3 0x10F0 JUMP JUMPDEST DUP2 EQ PUSH3 0x1149 JUMPI PUSH1 0x0 DUP1 REVERT JUMPDEST POP JUMP JUMPDEST PUSH1 0x0 DUP2 CALLDATALOAD SWAP1 POP PUSH3 0x115D DUP2 PUSH3 0x1132 JUMP JUMPDEST SWAP3 SWAP2 POP POP JUMP JUMPDEST PUSH3 0x116E DUP2 PUSH3 0xFC6 JUMP JUMPDEST DUP2 EQ PUSH3 0x117A JUMPI PUSH1 0x0 DUP1 REVERT JUMPDEST POP JUMP JUMPDEST PUSH1 0x0 DUP2 CALLDATALOAD SWAP1 POP PUSH3 0x118E DUP2 PUSH3 0x1163 JUMP JUMPDEST SWAP3 SWAP2 POP POP JUMP JUMPDEST PUSH1 0x0 DUP1 PUSH1 0x40 DUP4 DUP6 SUB SLT ISZERO PUSH3 0x11AE JUMPI PUSH3 0x11AD PUSH3 0xE67 JUMP JUMPDEST JUMPDEST PUSH1 0x0 PUSH3 0x11BE DUP6 DUP3 DUP7 ADD PUSH3 0x114C JUMP JUMPDEST SWAP3 POP POP PUSH1 0x20 PUSH3 0x11D1 DUP6 DUP3 DUP7 ADD PUSH3 0x117D JUMP JUMPDEST SWAP2 POP POP SWAP3 POP SWAP3 SWAP1 POP JUMP JUMPDEST PUSH1 0x0 DUP2 ISZERO ISZERO SWAP1 POP SWAP2 SWAP1 POP JUMP JUMPDEST PUSH3 0x11F2 DUP2 PUSH3 0x11DB JUMP JUMPDEST DUP2 EQ PUSH3 0x11FE JUMPI PUSH1 0x0 DUP1 REVERT JUMPDEST POP JUMP JUMPDEST PUSH1 0x0 DUP2 CALLDATALOAD SWAP1 POP PUSH3 0x1212 DUP2 PUSH3 0x11E7 JUMP JUMPDEST SWAP3 SWAP2 POP POP JUMP JUMPDEST PUSH1 0x0 DUP1 REVERT JUMPDEST PUSH1 0x0 DUP1 REVERT JUMPDEST PUSH32 0x4E487B7100000000000000000000000000000000000000000000000000000000 PUSH1 0x0 MSTORE PUSH1 0x41 PUSH1 0x4 MSTORE PUSH1 0x24 PUSH1 0x0 REVERT JUMPDEST PUSH3 0x125C DUP3 PUSH3 0xF50 JUMP JUMPDEST DUP2 ADD DUP2 DUP2 LT PUSH8 0xFFFFFFFFFFFFFFFF DUP3 GT OR ISZERO PUSH3 0x127E JUMPI PUSH3 0x127D PUSH3 0x1222 JUMP JUMPDEST JUMPDEST DUP1 PUSH1 0x40 MSTORE POP POP POP JUMP JUMPDEST PUSH1 0x0 PUSH3 0x1293 PUSH3 0xE5D JUMP JUMPDEST SWAP1 POP PUSH3 0x12A1 DUP3 DUP3 PUSH3 0x1251 JUMP JUMPDEST SWAP2 SWAP1 POP JUMP JUMPDEST PUSH1 0x0 PUSH8 0xFFFFFFFFFFFFFFFF DUP3 GT ISZERO PUSH3 0x12C4 JUMPI PUSH3 0x12C3 PUSH3 0x1222 JUMP JUMPDEST JUMPDEST PUSH3 0x12CF DUP3 PUSH3 0xF50 JUMP JUMPDEST SWAP1 POP PUSH1 0x20 DUP2 ADD SWAP1 POP SWAP2 SWAP1 POP JUMP JUMPDEST DUP3 DUP2 DUP4 CALLDATACOPY PUSH1 0x0 DUP4 DUP4 ADD MSTORE POP POP POP JUMP JUMPDEST PUSH1 0x0 PUSH3 0x1302 PUSH3 0x12FC DUP5 PUSH3 0x12A6 JUMP JUMPDEST PUSH3 0x1287 JUMP JUMPDEST SWAP1 POP DUP3 DUP2 MSTORE PUSH1 0x20 DUP2 ADD DUP5 DUP5 DUP5 ADD GT ISZERO PUSH3 0x1321 JUMPI PUSH3 0x1320 PUSH3 0x121D JUMP JUMPDEST JUMPDEST PUSH3 0x132E DUP5 DUP3 DUP6 PUSH3 0x12DC JUMP JUMPDEST POP SWAP4 SWAP3 POP POP POP JUMP JUMPDEST PUSH1 0x0 DUP3 PUSH1 0x1F DUP4 ADD SLT PUSH3 0x134E JUMPI PUSH3 0x134D PUSH3 0x1218 JUMP JUMPDEST JUMPDEST DUP2 CALLDATALOAD PUSH3 0x1360 DUP5 DUP3 PUSH1 0x20 DUP7 ADD PUSH3 0x12EB JUMP JUMPDEST SWAP2 POP POP SWAP3 SWAP2 POP POP JUMP JUMPDEST PUSH1 0x0 DUP2 SWAP1 POP SWAP2 SWAP1 POP JUMP JUMPDEST PUSH3 0x137E DUP2 PUSH3 0x1369 JUMP JUMPDEST DUP2 EQ PUSH3 0x138A JUMPI PUSH1 0x0 DUP1 REVERT JUMPDEST POP JUMP JUMPDEST PUSH1 0x0 DUP2 CALLDATALOAD SWAP1 POP PUSH3 0x139E DUP2 PUSH3 0x1373 JUMP JUMPDEST SWAP3 SWAP2 POP POP JUMP JUMPDEST PUSH1 0x0 DUP1 PUSH1 0x0 DUP1 PUSH1 0x0 DUP1 PUSH1 0x0 PUSH1 0xE0 DUP9 DUP11 SUB SLT ISZERO PUSH3 0x13C6 JUMPI PUSH3 0x13C5 PUSH3 0xE67 JUMP JUMPDEST JUMPDEST PUSH1 0x0 PUSH3 0x13D6 DUP11 DUP3 DUP12 ADD PUSH3 0x1201 JUMP JUMPDEST SWAP8 POP POP PUSH1 0x20 PUSH3 0x13E9 DUP11 DUP3 DUP12 ADD PUSH3 0xEBF JUMP JUMPDEST SWAP7 POP POP PUSH1 0x40 PUSH3 0x13FC DUP11 DUP3 DUP12 ADD PUSH3 0x117D JUMP JUMPDEST SWAP6 POP POP PUSH1 0x60 PUSH3 0x140F DUP11 DUP3 DUP12 ADD PUSH3 0x117D JUMP JUMPDEST SWAP5 POP POP PUSH1 0x80 PUSH3 0x1422 DUP11 DUP3 DUP12 ADD PUSH3 0x117D JUMP JUMPDEST SWAP4 POP POP PUSH1 0xA0 DUP9 ADD CALLDATALOAD PUSH8 0xFFFFFFFFFFFFFFFF DUP2 GT ISZERO PUSH3 0x1446 JUMPI PUSH3 0x1445 PUSH3 0xE6C JUMP JUMPDEST JUMPDEST PUSH3 0x1454 DUP11 DUP3 DUP12 ADD PUSH3 0x1336 JUMP JUMPDEST SWAP3 POP POP PUSH1 0xC0 PUSH3 0x1467 DUP11 DUP3 DUP12 ADD PUSH3 0x138D JUMP JUMPDEST SWAP2 POP POP SWAP3 SWAP6 SWAP9 SWAP2 SWAP5 SWAP8 POP SWAP3 SWAP6 POP JUMP JUMPDEST PUSH3 0x1481 DUP2 PUSH3 0xE91 JUMP JUMPDEST DUP3 MSTORE POP POP JUMP JUMPDEST PUSH1 0x0 PUSH1 0x20 DUP3 ADD SWAP1 POP PUSH3 0x149E PUSH1 0x0 DUP4 ADD DUP5 PUSH3 0x1476 JUMP JUMPDEST SWAP3 SWAP2 POP POP JUMP JUMPDEST PUSH1 0x0 DUP1 PUSH1 0x40 DUP4 DUP6 SUB SLT ISZERO PUSH3 0x14BE JUMPI PUSH3 0x14BD PUSH3 0xE67 JUMP JUMPDEST JUMPDEST PUSH1 0x0 PUSH3 0x14CE DUP6 DUP3 DUP7 ADD PUSH3 0x117D JUMP JUMPDEST SWAP3 POP POP PUSH1 0x20 PUSH3 0x14E1 DUP6 DUP3 DUP7 ADD PUSH3 0x117D JUMP JUMPDEST SWAP2 POP POP SWAP3 POP SWAP3 SWAP1 POP JUMP JUMPDEST PUSH32 0x4E487B7100000000000000000000000000000000000000000000000000000000 PUSH1 0x0 MSTORE PUSH1 0x22 PUSH1 0x4 MSTORE PUSH1 0x24 PUSH1 0x0 REVERT JUMPDEST PUSH1 0x0 PUSH1 0x2 DUP3 DIV SWAP1 POP PUSH1 0x1 DUP3 AND DUP1 PUSH3 0x1533 JUMPI PUSH1 0x7F DUP3 AND SWAP2 POP JUMPDEST PUSH1 0x20 DUP3 LT DUP2 SUB PUSH3 0x1549 JUMPI PUSH3 0x1548 PUSH3 0x14EB JUMP JUMPDEST JUMPDEST POP SWAP2 SWAP1 POP JUMP JUMPDEST PUSH32 0x4E487B7100000000000000000000000000000000000000000000000000000000 PUSH1 0x0 MSTORE PUSH1 0x11 PUSH1 0x4 MSTORE PUSH1 0x24 PUSH1 0x0 REVERT JUMPDEST PUSH1 0x0 PUSH3 0x158B DUP3 PUSH3 0xFC6 JUMP JUMPDEST SWAP2 POP PUSH3 0x1598 DUP4 PUSH3 0xFC6 JUMP JUMPDEST SWAP3 POP DUP3 DUP3 SUB SWAP1 POP DUP2 DUP2 GT ISZERO PUSH3 0x15B3 JUMPI PUSH3 0x15B2 PUSH3 0x154F JUMP JUMPDEST JUMPDEST SWAP3 SWAP2 POP POP JUMP JUMPDEST PUSH32 0x496E76616C6964206475726174696F6E20746F20636C61696D2061697264726F PUSH1 0x0 DUP3 ADD MSTORE PUSH32 0x7000000000000000000000000000000000000000000000000000000000000000 PUSH1 0x20 DUP3 ADD MSTORE POP JUMP JUMPDEST PUSH1 0x0 PUSH3 0x1617 PUSH1 0x21 DUP4 PUSH3 0xF13 JUMP JUMPDEST SWAP2 POP PUSH3 0x1624 DUP3 PUSH3 0x15B9 JUMP JUMPDEST PUSH1 0x40 DUP3 ADD SWAP1 POP SWAP2 SWAP1 POP JUMP JUMPDEST PUSH1 0x0 PUSH1 0x20 DUP3 ADD SWAP1 POP DUP2 DUP2 SUB PUSH1 0x0 DUP4 ADD MSTORE PUSH3 0x164A DUP2 PUSH3 0x1608 JUMP JUMPDEST SWAP1 POP SWAP2 SWAP1 POP JUMP JUMPDEST PUSH32 0x5A65726F20616D6F756E74000000000000000000000000000000000000000000 PUSH1 0x0 DUP3 ADD MSTORE POP JUMP JUMPDEST PUSH1 0x0 PUSH3 0x1689 PUSH1 0xB DUP4 PUSH3 0xF13 JUMP JUMPDEST SWAP2 POP PUSH3 0x1696 DUP3 PUSH3 0x1651 JUMP JUMPDEST PUSH1 0x20 DUP3 ADD SWAP1 POP SWAP2 SWAP1 POP JUMP JUMPDEST PUSH1 0x0 PUSH1 0x20 DUP3 ADD SWAP1 POP DUP2 DUP2 SUB PUSH1 0x0 DUP4 ADD MSTORE PUSH3 0x16BC DUP2 PUSH3 0x167A JUMP JUMPDEST SWAP1 POP SWAP2 SWAP1 POP JUMP JUMPDEST PUSH3 0x16CE DUP2 PUSH3 0x1369 JUMP JUMPDEST DUP3 MSTORE POP POP JUMP JUMPDEST PUSH1 0x0 PUSH1 0xC0 DUP3 ADD SWAP1 POP PUSH3 0x16EB PUSH1 0x0 DUP4 ADD DUP10 PUSH3 0x1476 JUMP JUMPDEST PUSH3 0x16FA PUSH1 0x20 DUP4 ADD DUP9 PUSH3 0x1476 JUMP JUMPDEST PUSH3 0x1709 PUSH1 0x40 DUP4 ADD DUP8 PUSH3 0x1476 JUMP JUMPDEST PUSH3 0x1718 PUSH1 0x60 DUP4 ADD DUP7 PUSH3 0xFD0 JUMP JUMPDEST PUSH3 0x1727 PUSH1 0x80 DUP4 ADD DUP6 PUSH3 0xFD0 JUMP JUMPDEST PUSH3 0x1736 PUSH1 0xA0 DUP4 ADD DUP5 PUSH3 0x16C3 JUMP JUMPDEST SWAP8 SWAP7 POP POP POP POP POP POP POP JUMP JUMPDEST PUSH1 0x0 DUP2 SWAP1 POP DUP2 PUSH1 0x0 MSTORE PUSH1 0x20 PUSH1 0x0 KECCAK256 SWAP1 POP SWAP2 SWAP1 POP JUMP JUMPDEST PUSH1 0x0 PUSH1 0x20 PUSH1 0x1F DUP4 ADD DIV SWAP1 POP SWAP2 SWAP1 POP JUMP JUMPDEST PUSH1 0x0 DUP3 DUP3 SHL SWAP1 POP SWAP3 SWAP2 POP POP JUMP JUMPDEST PUSH1 0x0 PUSH1 0x8 DUP4 MUL PUSH3 0x17A5 PUSH32 0xFFFFFFFFFFFFFFFFFFFFFFFFFFFFFFFFFFFFFFFFFFFFFFFFFFFFFFFFFFFFFFFF DUP3 PUSH3 0x1766 JUMP JUMPDEST PUSH3 0x17B1 DUP7 DUP4 PUSH3 0x1766 JUMP JUMPDEST SWAP6 POP DUP1 NOT DUP5 AND SWAP4 POP DUP1 DUP7 AND DUP5 OR SWAP3 POP POP POP SWAP4 SWAP3 POP POP POP JUMP JUMPDEST PUSH1 0x0 DUP2 SWAP1 POP SWAP2 SWAP1 POP JUMP JUMPDEST PUSH1 0x0 PUSH3 0x17F4 PUSH3 0x17EE PUSH3 0x17E8 DUP5 PUSH3 0xFC6 JUMP JUMPDEST PUSH3 0x17C9 JUMP JUMPDEST PUSH3 0xFC6 JUMP JUMPDEST SWAP1 POP SWAP2 SWAP1 POP JUMP JUMPDEST PUSH1 0x0 DUP2 SWAP1 POP SWAP2 SWAP1 POP JUMP JUMPDEST PUSH3 0x1810 DUP4 PUSH3 0x17D3 JUMP JUMPDEST PUSH3 0x1828 PUSH3 0x181F DUP3 PUSH3 0x17FB JUMP JUMPDEST DUP5 DUP5 SLOAD PUSH3 0x1773 JUMP JUMPDEST DUP3 SSTORE POP POP POP POP JUMP JUMPDEST PUSH1 0x0 SWAP1 JUMP JUMPDEST PUSH3 0x183F PUSH3 0x1830 JUMP JUMPDEST PUSH3 0x184C DUP2 DUP5 DUP5 PUSH3 0x1805 JUMP JUMPDEST POP POP POP JUMP JUMPDEST JUMPDEST DUP2 DUP2 LT ISZERO PUSH3 0x1874 JUMPI PUSH3 0x1868 PUSH1 0x0 DUP3 PUSH3 0x1835 JUMP JUMPDEST PUSH1 0x1 DUP2 ADD SWAP1 POP PUSH3 0x1852 JUMP JUMPDEST POP POP JUMP JUMPDEST PUSH1 0x1F DUP3 GT ISZERO PUSH3 0x18C3 JUMPI PUSH3 0x188D DUP2 PUSH3 0x1741 JUMP JUMPDEST PUSH3 0x1898 DUP5 PUSH3 0x1756 JUMP JUMPDEST DUP2 ADD PUSH1 0x20 DUP6 LT ISZERO PUSH3 0x18A8 JUMPI DUP2 SWAP1 POP JUMPDEST PUSH3 0x18C0 PUSH3 0x18B7 DUP6 PUSH3 0x1756 JUMP JUMPDEST DUP4 ADD DUP3 PUSH3 0x1851 JUMP JUMPDEST POP POP JUMPDEST POP POP POP JUMP JUMPDEST PUSH1 0x0 DUP3 DUP3 SHR SWAP1 POP SWAP3 SWAP2 POP POP JUMP JUMPDEST PUSH1 0x0 PUSH3 0x18E8 PUSH1 0x0 NOT DUP5 PUSH1 0x8 MUL PUSH3 0x18C8 JUMP JUMPDEST NOT DUP1 DUP4 AND SWAP2 POP POP SWAP3 SWAP2 POP POP JUMP JUMPDEST PUSH1 0x0 PUSH3 0x1903 DUP4 DUP4 PUSH3 0x18D5 JUMP JUMPDEST SWAP2 POP DUP3 PUSH1 0x2 MUL DUP3 OR SWAP1 POP SWAP3 SWAP2 POP POP JUMP JUMPDEST PUSH3 0x191E DUP3 PUSH3 0xF08 JUMP JUMPDEST PUSH8 0xFFFFFFFFFFFFFFFF DUP2 GT ISZERO PUSH3 0x193A JUMPI PUSH3 0x1939 PUSH3 0x1222 JUMP JUMPDEST JUMPDEST PUSH3 0x1946 DUP3 SLOAD PUSH3 0x151A JUMP JUMPDEST PUSH3 0x1953 DUP3 DUP3 DUP6 PUSH3 0x1878 JUMP JUMPDEST PUSH1 0x0 PUSH1 0x20 SWAP1 POP PUSH1 0x1F DUP4 GT PUSH1 0x1 DUP2 EQ PUSH3 0x198B JUMPI PUSH1 0x0 DUP5 ISZERO PUSH3 0x1976 JUMPI DUP3 DUP8 ADD MLOAD SWAP1 POP JUMPDEST PUSH3 0x1982 DUP6 DUP3 PUSH3 0x18F5 JUMP JUMPDEST DUP7 SSTORE POP PUSH3 0x19F2 JUMP JUMPDEST PUSH1 0x1F NOT DUP5 AND PUSH3 0x199B DUP7 PUSH3 0x1741 JUMP JUMPDEST PUSH1 0x0 JUMPDEST DUP3 DUP2 LT ISZERO PUSH3 0x19C5 JUMPI DUP5 DUP10 ADD MLOAD DUP3 SSTORE PUSH1 0x1 DUP3 ADD SWAP2 POP PUSH1 0x20 DUP6 ADD SWAP5 POP PUSH1 0x20 DUP2 ADD SWAP1 POP PUSH3 0x199E JUMP JUMPDEST DUP7 DUP4 LT ISZERO PUSH3 0x19E5 JUMPI DUP5 DUP10 ADD MLOAD PUSH3 0x19E1 PUSH1 0x1F DUP10 AND DUP3 PUSH3 0x18D5 JUMP JUMPDEST DUP4 SSTORE POP JUMPDEST PUSH1 0x1 PUSH1 0x2 DUP9 MUL ADD DUP9 SSTORE POP POP POP JUMPDEST POP POP POP POP POP POP JUMP JUMPDEST PUSH1 0x0 PUSH3 0x1A1B PUSH3 0x1A15 PUSH3 0x1A0F DUP5 PUSH3 0xE71 JUMP JUMPDEST PUSH3 0x17C9 JUMP JUMPDEST PUSH3 0xE71 JUMP JUMPDEST SWAP1 POP SWAP2 SWAP1 POP JUMP JUMPDEST PUSH1 0x0 PUSH3 0x1A2F DUP3 PUSH3 0x19FA JUMP JUMPDEST SWAP1 POP SWAP2 SWAP1 POP JUMP JUMPDEST PUSH1 0x0 PUSH3 0x1A43 DUP3 PUSH3 0x1A22 JUMP JUMPDEST SWAP1 POP SWAP2 SWAP1 POP JUMP JUMPDEST PUSH3 0x1A55 DUP2 PUSH3 0x1A36 JUMP JUMPDEST DUP3 MSTORE POP POP JUMP JUMPDEST PUSH1 0x0 PUSH1 0x60 DUP3 ADD SWAP1 POP PUSH3 0x1A72 PUSH1 0x0 DUP4 ADD DUP7 PUSH3 0x1476 JUMP JUMPDEST PUSH3 0x1A81 PUSH1 0x20 DUP4 ADD DUP6 PUSH3 0x1A4A JUMP JUMPDEST PUSH3 0x1A90 PUSH1 0x40 DUP4 ADD DUP5 PUSH3 0xFD0 JUMP JUMPDEST SWAP5 SWAP4 POP POP POP POP JUMP JUMPDEST PUSH1 0x0 DUP2 MLOAD SWAP1 POP PUSH3 0x1AA9 DUP2 PUSH3 0x11E7 JUMP JUMPDEST SWAP3 SWAP2 POP POP JUMP JUMPDEST PUSH1 0x0 PUSH1 0x20 DUP3 DUP5 SUB SLT ISZERO PUSH3 0x1AC8 JUMPI PUSH3 0x1AC7 PUSH3 0xE67 JUMP JUMPDEST JUMPDEST PUSH1 0x0 PUSH3 0x1AD8 DUP5 DUP3 DUP6 ADD PUSH3 0x1A98 JUMP JUMPDEST SWAP2 POP POP SWAP3 SWAP2 POP POP JUMP JUMPDEST PUSH32 0x46656573206E6F74207061696400000000000000000000000000000000000000 PUSH1 0x0 DUP3 ADD MSTORE POP JUMP JUMPDEST PUSH1 0x0 PUSH3 0x1B19 PUSH1 0xD DUP4 PUSH3 0xF13 JUMP JUMPDEST SWAP2 POP PUSH3 0x1B26 DUP3 PUSH3 0x1AE1 JUMP JUMPDEST PUSH1 0x20 DUP3 ADD SWAP1 POP SWAP2 SWAP1 POP JUMP JUMPDEST PUSH1 0x0 PUSH1 0x20 DUP3 ADD SWAP1 POP DUP2 DUP2 SUB PUSH1 0x0 DUP4 ADD MSTORE PUSH3 0x1B4C DUP2 PUSH3 0x1B0A JUMP JUMPDEST SWAP1 POP SWAP2 SWAP1 POP JUMP JUMPDEST PUSH1 0x0 PUSH1 0x60 DUP3 ADD SWAP1 POP PUSH3 0x1B6A PUSH1 0x0 DUP4 ADD DUP7 PUSH3 0x1476 JUMP JUMPDEST PUSH3 0x1B79 PUSH1 0x20 DUP4 ADD DUP6 PUSH3 0x1476 JUMP JUMPDEST PUSH3 0x1B88 PUSH1 0x40 DUP4 ADD DUP5 PUSH3 0xFD0 JUMP JUMPDEST SWAP5 SWAP4 POP POP POP POP JUMP JUMPDEST PUSH32 0x4F776E61626C653A206E6577206F776E657220697320746865207A65726F2061 PUSH1 0x0 DUP3 ADD MSTORE PUSH32 0x6464726573730000000000000000000000000000000000000000000000000000 PUSH1 0x20 DUP3 ADD MSTORE POP JUMP JUMPDEST PUSH1 0x0 PUSH3 0x1BEE PUSH1 0x26 DUP4 PUSH3 0xF13 JUMP JUMPDEST SWAP2 POP PUSH3 0x1BFB DUP3 PUSH3 0x1B90 JUMP JUMPDEST PUSH1 0x40 DUP3 ADD SWAP1 POP SWAP2 SWAP1 POP JUMP JUMPDEST PUSH1 0x0 PUSH1 0x20 DUP3 ADD SWAP1 POP DUP2 DUP2 SUB PUSH1 0x0 DUP4 ADD MSTORE PUSH3 0x1C21 DUP2 PUSH3 0x1BDF JUMP JUMPDEST SWAP1 POP SWAP2 SWAP1 POP JUMP JUMPDEST PUSH32 0x4F776E61626C653A2063616C6C6572206973206E6F7420746865206F776E6572 PUSH1 0x0 DUP3 ADD MSTORE POP JUMP JUMPDEST PUSH1 0x0 PUSH3 0x1C60 PUSH1 0x20 DUP4 PUSH3 0xF13 JUMP JUMPDEST SWAP2 POP PUSH3 0x1C6D DUP3 PUSH3 0x1C28 JUMP JUMPDEST PUSH1 0x20 DUP3 ADD SWAP1 POP SWAP2 SWAP1 POP JUMP JUMPDEST PUSH1 0x0 PUSH1 0x20 DUP3 ADD SWAP1 POP DUP2 DUP2 SUB PUSH1 0x0 DUP4 ADD MSTORE PUSH3 0x1C93 DUP2 PUSH3 0x1C51 JUMP JUMPDEST SWAP1 POP SWAP2 SWAP1 POP JUMP INVALID PUSH1 0xC0 PUSH1 0x40 MSTORE CALLVALUE DUP1 ISZERO PUSH3 0x11 JUMPI PUSH1 0x0 DUP1 REVERT JUMPDEST POP PUSH1 0x40 MLOAD PUSH3 0x1B53 CODESIZE SUB DUP1 PUSH3 0x1B53 DUP4 CODECOPY DUP2 DUP2 ADD PUSH1 0x40 MSTORE DUP2 ADD SWAP1 PUSH3 0x37 SWAP2 SWAP1 PUSH3 0x1EF JUMP JUMPDEST DUP1 PUSH1 0x80 DUP2 DUP2 MSTORE POP POP DUP6 PUSH20 0xFFFFFFFFFFFFFFFFFFFFFFFFFFFFFFFFFFFFFFFF AND PUSH1 0xA0 DUP2 PUSH20 0xFFFFFFFFFFFFFFFFFFFFFFFFFFFFFFFFFFFFFFFF AND DUP2 MSTORE POP POP DUP3 PUSH1 0x4 DUP2 SWAP1 SSTORE POP DUP2 PUSH1 0x5 DUP2 SWAP1 SSTORE POP DUP5 PUSH1 0x6 PUSH1 0x0 PUSH2 0x100 EXP DUP2 SLOAD DUP2 PUSH20 0xFFFFFFFFFFFFFFFFFFFFFFFFFFFFFFFFFFFFFFFF MUL NOT AND SWAP1 DUP4 PUSH20 0xFFFFFFFFFFFFFFFFFFFFFFFFFFFFFFFFFFFFFFFF AND MUL OR SWAP1 SSTORE POP DUP4 PUSH1 0x7 PUSH1 0x0 PUSH2 0x100 EXP DUP2 SLOAD DUP2 PUSH20 0xFFFFFFFFFFFFFFFFFFFFFFFFFFFFFFFFFFFFFFFF MUL NOT AND SWAP1 DUP4 PUSH20 0xFFFFFFFFFFFFFFFFFFFFFFFFFFFFFFFFFFFFFFFF AND MUL OR SWAP1 SSTORE POP POP POP POP POP POP POP PUSH3 0x28B JUMP JUMPDEST PUSH1 0x0 DUP1 REVERT JUMPDEST PUSH1 0x0 PUSH20 0xFFFFFFFFFFFFFFFFFFFFFFFFFFFFFFFFFFFFFFFF DUP3 AND SWAP1 POP SWAP2 SWAP1 POP JUMP JUMPDEST PUSH1 0x0 PUSH3 0x141 DUP3 PUSH3 0x114 JUMP JUMPDEST SWAP1 POP SWAP2 SWAP1 POP JUMP JUMPDEST PUSH3 0x153 DUP2 PUSH3 0x134 JUMP JUMPDEST DUP2 EQ PUSH3 0x15F JUMPI PUSH1 0x0 DUP1 REVERT JUMPDEST POP JUMP JUMPDEST PUSH1 0x0 DUP2 MLOAD SWAP1 POP PUSH3 0x173 DUP2 PUSH3 0x148 JUMP JUMPDEST SWAP3 SWAP2 POP POP JUMP JUMPDEST PUSH1 0x0 DUP2 SWAP1 POP SWAP2 SWAP1 POP JUMP JUMPDEST PUSH3 0x18E DUP2 PUSH3 0x179 JUMP JUMPDEST DUP2 EQ PUSH3 0x19A JUMPI PUSH1 0x0 DUP1 REVERT JUMPDEST POP JUMP JUMPDEST PUSH1 0x0 DUP2 MLOAD SWAP1 POP PUSH3 0x1AE DUP2 PUSH3 0x183 JUMP JUMPDEST SWAP3 SWAP2 POP POP JUMP JUMPDEST PUSH1 0x0 DUP2 SWAP1 POP SWAP2 SWAP1 POP JUMP JUMPDEST PUSH3 0x1C9 DUP2 PUSH3 0x1B4 JUMP JUMPDEST DUP2 EQ PUSH3 0x1D5 JUMPI PUSH1 0x0 DUP1 REVERT JUMPDEST POP JUMP JUMPDEST PUSH1 0x0 DUP2 MLOAD SWAP1 POP PUSH3 0x1E9 DUP2 PUSH3 0x1BE JUMP JUMPDEST SWAP3 SWAP2 POP POP JUMP JUMPDEST PUSH1 0x0 DUP1 PUSH1 0x0 DUP1 PUSH1 0x0 DUP1 PUSH1 0xC0 DUP8 DUP10 SUB SLT ISZERO PUSH3 0x20F JUMPI PUSH3 0x20E PUSH3 0x10F JUMP JUMPDEST JUMPDEST PUSH1 0x0 PUSH3 0x21F DUP10 DUP3 DUP11 ADD PUSH3 0x162 JUMP JUMPDEST SWAP7 POP POP PUSH1 0x20 PUSH3 0x232 DUP10 DUP3 DUP11 ADD PUSH3 0x162 JUMP JUMPDEST SWAP6 POP POP PUSH1 0x40 PUSH3 0x245 DUP10 DUP3 DUP11 ADD PUSH3 0x162 JUMP JUMPDEST SWAP5 POP POP PUSH1 0x60 PUSH3 0x258 DUP10 DUP3 DUP11 ADD PUSH3 0x19D JUMP JUMPDEST SWAP4 POP POP PUSH1 0x80 PUSH3 0x26B DUP10 DUP3 DUP11 ADD PUSH3 0x19D JUMP JUMPDEST SWAP3 POP POP PUSH1 0xA0 PUSH3 0x27E DUP10 DUP3 DUP11 ADD PUSH3 0x1D8 JUMP JUMPDEST SWAP2 POP POP SWAP3 SWAP6 POP SWAP3 SWAP6 POP SWAP3 SWAP6 JUMP JUMPDEST PUSH1 0x80 MLOAD PUSH1 0xA0 MLOAD PUSH2 0x1878 PUSH3 0x2DB PUSH1 0x0 CODECOPY PUSH1 0x0 DUP2 DUP2 PUSH2 0x3D2 ADD MSTORE DUP2 DUP2 PUSH2 0x4A4 ADD MSTORE DUP2 DUP2 PUSH2 0x793 ADD MSTORE DUP2 DUP2 PUSH2 0x862 ADD MSTORE DUP2 DUP2 PUSH2 0xB1B ADD MSTORE PUSH2 0xBEE ADD MSTORE PUSH1 0x0 DUP2 DUP2 PUSH2 0x57C ADD MSTORE PUSH2 0x99C ADD MSTORE PUSH2 0x1878 PUSH1 0x0 RETURN INVALID PUSH1 0x80 PUSH1 0x40 MSTORE CALLVALUE DUP1 ISZERO PUSH2 0x10 JUMPI PUSH1 0x0 DUP1 REVERT JUMPDEST POP PUSH1 0x4 CALLDATASIZE LT PUSH2 0xB4 JUMPI PUSH1 0x0 CALLDATALOAD PUSH1 0xE0 SHR DUP1 PUSH4 0xA9DC9ECF GT PUSH2 0x71 JUMPI DUP1 PUSH4 0xA9DC9ECF EQ PUSH2 0x18D JUMPI DUP1 PUSH4 0xB0D36E25 EQ PUSH2 0x1A9 JUMPI DUP1 PUSH4 0xC202E732 EQ PUSH2 0x1D9 JUMPI DUP1 PUSH4 0xC24A0F8B EQ PUSH2 0x209 JUMPI DUP1 PUSH4 0xC41D9272 EQ PUSH2 0x227 JUMPI DUP1 PUSH4 0xDC6D1446 EQ PUSH2 0x257 JUMPI PUSH2 0xB4 JUMP JUMPDEST DUP1 PUSH4 0x82B1D1F EQ PUSH2 0xB9 JUMPI DUP1 PUSH4 0xB97BC86 EQ PUSH2 0xD5 JUMPI DUP1 PUSH4 0x2EB4A7AB EQ PUSH2 0xF3 JUMPI DUP1 PUSH4 0x2F52EBB7 EQ PUSH2 0x111 JUMPI DUP1 PUSH4 0x3B7FCDCA EQ PUSH2 0x12D JUMPI DUP1 PUSH4 0xA06BF4BD EQ PUSH2 0x15D JUMPI JUMPDEST PUSH1 0x0 DUP1 REVERT JUMPDEST PUSH2 0xD3 PUSH1 0x4 DUP1 CALLDATASIZE SUB DUP2 ADD SWAP1 PUSH2 0xCE SWAP2 SWAP1 PUSH2 0xEFC JUMP JUMPDEST PUSH2 0x287 JUMP JUMPDEST STOP JUMPDEST PUSH2 0xDD PUSH2 0x574 JUMP JUMPDEST PUSH1 0x40 MLOAD PUSH2 0xEA SWAP2 SWAP1 PUSH2 0xF42 JUMP JUMPDEST PUSH1 0x40 MLOAD DUP1 SWAP2 SUB SWAP1 RETURN JUMPDEST PUSH2 0xFB PUSH2 0x57A JUMP JUMPDEST PUSH1 0x40 MLOAD PUSH2 0x108 SWAP2 SWAP1 PUSH2 0xF76 JUMP JUMPDEST PUSH1 0x40 MLOAD DUP1 SWAP2 SUB SWAP1 RETURN JUMPDEST PUSH2 0x12B PUSH1 0x4 DUP1 CALLDATASIZE SUB DUP2 ADD SWAP1 PUSH2 0x126 SWAP2 SWAP1 PUSH2 0x1022 JUMP JUMPDEST PUSH2 0x59E JUMP JUMPDEST STOP JUMPDEST PUSH2 0x147 PUSH1 0x4 DUP1 CALLDATASIZE SUB DUP2 ADD SWAP1 PUSH2 0x142 SWAP2 SWAP1 PUSH2 0x10E0 JUMP JUMPDEST PUSH2 0x905 JUMP JUMPDEST PUSH1 0x40 MLOAD PUSH2 0x154 SWAP2 SWAP1 PUSH2 0x1128 JUMP JUMPDEST PUSH1 0x40 MLOAD DUP1 SWAP2 SUB SWAP1 RETURN JUMPDEST PUSH2 0x177 PUSH1 0x4 DUP1 CALLDATASIZE SUB DUP2 ADD SWAP1 PUSH2 0x172 SWAP2 SWAP1 PUSH2 0x1143 JUMP JUMPDEST PUSH2 0x925 JUMP JUMPDEST PUSH1 0x40 MLOAD PUSH2 0x184 SWAP2 SWAP1 PUSH2 0x1128 JUMP JUMPDEST PUSH1 0x40 MLOAD DUP1 SWAP2 SUB SWAP1 RETURN JUMPDEST PUSH2 0x1A7 PUSH1 0x4 DUP1 CALLDATASIZE SUB DUP2 ADD SWAP1 PUSH2 0x1A2 SWAP2 SWAP1 PUSH2 0xEFC JUMP JUMPDEST PUSH2 0x9D0 JUMP JUMPDEST STOP JUMPDEST PUSH2 0x1C3 PUSH1 0x4 DUP1 CALLDATASIZE SUB DUP2 ADD SWAP1 PUSH2 0x1BE SWAP2 SWAP1 PUSH2 0xEFC JUMP JUMPDEST PUSH2 0xCBE JUMP JUMPDEST PUSH1 0x40 MLOAD PUSH2 0x1D0 SWAP2 SWAP1 PUSH2 0x1128 JUMP JUMPDEST PUSH1 0x40 MLOAD DUP1 SWAP2 SUB SWAP1 RETURN JUMPDEST PUSH2 0x1F3 PUSH1 0x4 DUP1 CALLDATASIZE SUB DUP2 ADD SWAP1 PUSH2 0x1EE SWAP2 SWAP1 PUSH2 0xEFC JUMP JUMPDEST PUSH2 0xCDE JUMP JUMPDEST PUSH1 0x40 MLOAD PUSH2 0x200 SWAP2 SWAP1 PUSH2 0x1128 JUMP JUMPDEST PUSH1 0x40 MLOAD DUP1 SWAP2 SUB SWAP1 RETURN JUMPDEST PUSH2 0x211 PUSH2 0xD52 JUMP JUMPDEST PUSH1 0x40 MLOAD PUSH2 0x21E SWAP2 SWAP1 PUSH2 0xF42 JUMP JUMPDEST PUSH1 0x40 MLOAD DUP1 SWAP2 SUB SWAP1 RETURN JUMPDEST PUSH2 0x241 PUSH1 0x4 DUP1 CALLDATASIZE SUB DUP2 ADD SWAP1 PUSH2 0x23C SWAP2 SWAP1 PUSH2 0xEFC JUMP JUMPDEST PUSH2 0xD58 JUMP JUMPDEST PUSH1 0x40 MLOAD PUSH2 0x24E SWAP2 SWAP1 PUSH2 0x1128 JUMP JUMPDEST PUSH1 0x40 MLOAD DUP1 SWAP2 SUB SWAP1 RETURN JUMPDEST PUSH2 0x271 PUSH1 0x4 DUP1 CALLDATASIZE SUB DUP2 ADD SWAP1 PUSH2 0x26C SWAP2 SWAP1 PUSH2 0xEFC JUMP JUMPDEST PUSH2 0xD78 JUMP JUMPDEST PUSH1 0x40 MLOAD PUSH2 0x27E SWAP2 SWAP1 PUSH2 0x1128 JUMP JUMPDEST PUSH1 0x40 MLOAD DUP1 SWAP2 SUB SWAP1 RETURN JUMPDEST PUSH1 0x6 PUSH1 0x0 SWAP1 SLOAD SWAP1 PUSH2 0x100 EXP SWAP1 DIV PUSH20 0xFFFFFFFFFFFFFFFFFFFFFFFFFFFFFFFFFFFFFFFF AND PUSH20 0xFFFFFFFFFFFFFFFFFFFFFFFFFFFFFFFFFFFFFFFF AND CALLER PUSH20 0xFFFFFFFFFFFFFFFFFFFFFFFFFFFFFFFFFFFFFFFF AND EQ PUSH2 0x317 JUMPI PUSH1 0x40 MLOAD PUSH32 0x8C379A000000000000000000000000000000000000000000000000000000000 DUP2 MSTORE PUSH1 0x4 ADD PUSH2 0x30E SWAP1 PUSH2 0x1214 JUMP JUMPDEST PUSH1 0x40 MLOAD DUP1 SWAP2 SUB SWAP1 REVERT JUMPDEST PUSH2 0x320 DUP2 PUSH2 0xCDE JUMP JUMPDEST PUSH2 0x35F JUMPI PUSH1 0x40 MLOAD PUSH32 0x8C379A000000000000000000000000000000000000000000000000000000000 DUP2 MSTORE PUSH1 0x4 ADD PUSH2 0x356 SWAP1 PUSH2 0x1280 JUMP JUMPDEST PUSH1 0x40 MLOAD DUP1 SWAP2 SUB SWAP1 REVERT JUMPDEST PUSH1 0x1 PUSH1 0x0 DUP3 PUSH1 0xFF AND PUSH1 0xFF AND DUP2 MSTORE PUSH1 0x20 ADD SWAP1 DUP2 MSTORE PUSH1 0x20 ADD PUSH1 0x0 KECCAK256 PUSH1 0x0 SWAP1 SLOAD SWAP1 PUSH2 0x100 EXP SWAP1 DIV PUSH1 0xFF AND ISZERO PUSH2 0x3C6 JUMPI PUSH1 0x40 MLOAD PUSH32 0x8C379A000000000000000000000000000000000000000000000000000000000 DUP2 MSTORE PUSH1 0x4 ADD PUSH2 0x3BD SWAP1 PUSH2 0x12EC JUMP JUMPDEST PUSH1 0x40 MLOAD DUP1 SWAP2 SUB SWAP1 REVERT JUMPDEST PUSH1 0x0 PUSH1 0x3 SLOAD SUB PUSH2 0x471 JUMPI PUSH32 0x0 PUSH20 0xFFFFFFFFFFFFFFFFFFFFFFFFFFFFFFFFFFFFFFFF AND PUSH4 0x70A08231 ADDRESS PUSH1 0x40 MLOAD DUP3 PUSH4 0xFFFFFFFF AND PUSH1 0xE0 SHL DUP2 MSTORE PUSH1 0x4 ADD PUSH2 0x429 SWAP2 SWAP1 PUSH2 0x131B JUMP JUMPDEST PUSH1 0x20 PUSH1 0x40 MLOAD DUP1 DUP4 SUB DUP2 DUP7 GAS STATICCALL ISZERO DUP1 ISZERO PUSH2 0x446 JUMPI RETURNDATASIZE PUSH1 0x0 DUP1 RETURNDATACOPY RETURNDATASIZE PUSH1 0x0 REVERT JUMPDEST POP POP POP POP PUSH1 0x40 MLOAD RETURNDATASIZE PUSH1 0x1F NOT PUSH1 0x1F DUP3 ADD AND DUP3 ADD DUP1 PUSH1 0x40 MSTORE POP DUP2 ADD SWAP1 PUSH2 0x46A SWAP2 SWAP1 PUSH2 0x134B JUMP JUMPDEST PUSH1 0x3 DUP2 SWAP1 SSTORE POP JUMPDEST PUSH1 0x1 DUP1 PUSH1 0x0 DUP4 PUSH1 0xFF AND PUSH1 0xFF AND DUP2 MSTORE PUSH1 0x20 ADD SWAP1 DUP2 MSTORE PUSH1 0x20 ADD PUSH1 0x0 KECCAK256 PUSH1 0x0 PUSH2 0x100 EXP DUP2 SLOAD DUP2 PUSH1 0xFF MUL NOT AND SWAP1 DUP4 ISZERO ISZERO MUL OR SWAP1 SSTORE POP PUSH32 0x0 PUSH20 0xFFFFFFFFFFFFFFFFFFFFFFFFFFFFFFFFFFFFFFFF AND PUSH4 0xA9059CBB PUSH1 0x6 PUSH1 0x0 SWAP1 SLOAD SWAP1 PUSH2 0x100 EXP SWAP1 DIV PUSH20 0xFFFFFFFFFFFFFFFFFFFFFFFFFFFFFFFFFFFFFFFF AND PUSH1 0x4 PUSH1 0x3 SLOAD PUSH2 0x510 SWAP2 SWAP1 PUSH2 0x13D6 JUMP JUMPDEST PUSH1 0x40 MLOAD DUP4 PUSH4 0xFFFFFFFF AND PUSH1 0xE0 SHL DUP2 MSTORE PUSH1 0x4 ADD PUSH2 0x52D SWAP3 SWAP2 SWAP1 PUSH2 0x1407 JUMP JUMPDEST PUSH1 0x20 PUSH1 0x40 MLOAD DUP1 DUP4 SUB DUP2 PUSH1 0x0 DUP8 GAS CALL ISZERO DUP1 ISZERO PUSH2 0x54C JUMPI RETURNDATASIZE PUSH1 0x0 DUP1 RETURNDATACOPY RETURNDATASIZE PUSH1 0x0 REVERT JUMPDEST POP POP POP POP PUSH1 0x40 MLOAD RETURNDATASIZE PUSH1 0x1F NOT PUSH1 0x1F DUP3 ADD AND DUP3 ADD DUP1 PUSH1 0x40 MSTORE POP DUP2 ADD SWAP1 PUSH2 0x570 SWAP2 SWAP1 PUSH2 0x145C JUMP JUMPDEST POP POP JUMP JUMPDEST PUSH1 0x4 SLOAD DUP2 JUMP JUMPDEST PUSH32 0x0 DUP2 JUMP JUMPDEST PUSH1 0x4 SLOAD TIMESTAMP LT ISZERO DUP1 ISZERO PUSH2 0x5B2 JUMPI POP PUSH1 0x5 SLOAD TIMESTAMP GT ISZERO JUMPDEST PUSH2 0x5F1 JUMPI PUSH1 0x40 MLOAD PUSH32 0x8C379A000000000000000000000000000000000000000000000000000000000 DUP2 MSTORE PUSH1 0x4 ADD PUSH2 0x5E8 SWAP1 PUSH2 0x14D5 JUMP JUMPDEST PUSH1 0x40 MLOAD DUP1 SWAP2 SUB SWAP1 REVERT JUMPDEST PUSH2 0x5FD CALLER DUP5 DUP5 DUP5 PUSH2 0x925 JUMP JUMPDEST PUSH2 0x63C JUMPI PUSH1 0x40 MLOAD PUSH32 0x8C379A000000000000000000000000000000000000000000000000000000000 DUP2 MSTORE PUSH1 0x4 ADD PUSH2 0x633 SWAP1 PUSH2 0x1541 JUMP JUMPDEST PUSH1 0x40 MLOAD DUP1 SWAP2 SUB SWAP1 REVERT JUMPDEST PUSH1 0x0 DUP1 CALLER PUSH20 0xFFFFFFFFFFFFFFFFFFFFFFFFFFFFFFFFFFFFFFFF AND PUSH20 0xFFFFFFFFFFFFFFFFFFFFFFFFFFFFFFFFFFFFFFFF AND DUP2 MSTORE PUSH1 0x20 ADD SWAP1 DUP2 MSTORE PUSH1 0x20 ADD PUSH1 0x0 KECCAK256 PUSH1 0x0 SWAP1 SLOAD SWAP1 PUSH2 0x100 EXP SWAP1 DIV PUSH1 0xFF AND ISZERO PUSH2 0x6C8 JUMPI PUSH1 0x40 MLOAD PUSH32 0x8C379A000000000000000000000000000000000000000000000000000000000 DUP2 MSTORE PUSH1 0x4 ADD PUSH2 0x6BF SWAP1 PUSH2 0x12EC JUMP JUMPDEST PUSH1 0x40 MLOAD DUP1 SWAP2 SUB SWAP1 REVERT JUMPDEST PUSH1 0x1 PUSH1 0x0 DUP1 CALLER PUSH20 0xFFFFFFFFFFFFFFFFFFFFFFFFFFFFFFFFFFFFFFFF AND PUSH20 0xFFFFFFFFFFFFFFFFFFFFFFFFFFFFFFFFFFFFFFFF AND DUP2 MSTORE PUSH1 0x20 ADD SWAP1 DUP2 MSTORE PUSH1 0x20 ADD PUSH1 0x0 KECCAK256 PUSH1 0x0 PUSH2 0x100 EXP DUP2 SLOAD DUP2 PUSH1 0xFF MUL NOT AND SWAP1 DUP4 ISZERO ISZERO MUL OR SWAP1 SSTORE POP CALLER PUSH20 0xFFFFFFFFFFFFFFFFFFFFFFFFFFFFFFFFFFFFFFFF AND PUSH32 0x47CEE97CB7ACD717B3C0AA1435D004CD5B3C8C57D70DBCEB4E4458BBD60E39D4 DUP5 PUSH1 0x40 MLOAD PUSH2 0x765 SWAP2 SWAP1 PUSH2 0xF42 JUMP JUMPDEST PUSH1 0x40 MLOAD DUP1 SWAP2 SUB SWAP1 LOG2 PUSH1 0x0 PUSH2 0x3E8 PUSH1 0x5 PUSH4 0xFFFFFFFF AND DUP6 PUSH2 0x785 SWAP2 SWAP1 PUSH2 0x1561 JUMP JUMPDEST PUSH2 0x78F SWAP2 SWAP1 PUSH2 0x13D6 JUMP JUMPDEST SWAP1 POP PUSH32 0x0 PUSH20 0xFFFFFFFFFFFFFFFFFFFFFFFFFFFFFFFFFFFFFFFF AND PUSH4 0xA9059CBB PUSH1 0x7 PUSH1 0x0 SWAP1 SLOAD SWAP1 PUSH2 0x100 EXP SWAP1 DIV PUSH20 0xFFFFFFFFFFFFFFFFFFFFFFFFFFFFFFFFFFFFFFFF AND DUP4 PUSH1 0x40 MLOAD DUP4 PUSH4 0xFFFFFFFF AND PUSH1 0xE0 SHL DUP2 MSTORE PUSH1 0x4 ADD PUSH2 0x80E SWAP3 SWAP2 SWAP1 PUSH2 0x1407 JUMP JUMPDEST PUSH1 0x20 PUSH1 0x40 MLOAD DUP1 DUP4 SUB DUP2 PUSH1 0x0 DUP8 GAS CALL ISZERO DUP1 ISZERO PUSH2 0x82D JUMPI RETURNDATASIZE PUSH1 0x0 DUP1 RETURNDATACOPY RETURNDATASIZE PUSH1 0x0 REVERT JUMPDEST POP POP POP POP PUSH1 0x40 MLOAD RETURNDATASIZE PUSH1 0x1F NOT PUSH1 0x1F DUP3 ADD AND DUP3 ADD DUP1 PUSH1 0x40 MSTORE POP DUP2 ADD SWAP1 PUSH2 0x851 SWAP2 SWAP1 PUSH2 0x145C JUMP JUMPDEST POP DUP1 DUP5 PUSH2 0x85E SWAP2 SWAP1 PUSH2 0x15A3 JUMP JUMPDEST SWAP4 POP PUSH32 0x0 PUSH20 0xFFFFFFFFFFFFFFFFFFFFFFFFFFFFFFFFFFFFFFFF AND PUSH4 0xA9059CBB CALLER DUP7 PUSH1 0x40 MLOAD DUP4 PUSH4 0xFFFFFFFF AND PUSH1 0xE0 SHL DUP2 MSTORE PUSH1 0x4 ADD PUSH2 0x8BB SWAP3 SWAP2 SWAP1 PUSH2 0x1407 JUMP JUMPDEST PUSH1 0x20 PUSH1 0x40 MLOAD DUP1 DUP4 SUB DUP2 PUSH1 0x0 DUP8 GAS CALL ISZERO DUP1 ISZERO PUSH2 0x8DA JUMPI RETURNDATASIZE PUSH1 0x0 DUP1 RETURNDATACOPY RETURNDATASIZE PUSH1 0x0 REVERT JUMPDEST POP POP POP POP PUSH1 0x40 MLOAD RETURNDATASIZE PUSH1 0x1F NOT PUSH1 0x1F DUP3 ADD AND DUP3 ADD DUP1 PUSH1 0x40 MSTORE POP DUP2 ADD SWAP1 PUSH2 0x8FE SWAP2 SWAP1 PUSH2 0x145C JUMP JUMPDEST POP POP POP POP POP JUMP JUMPDEST PUSH1 0x0 PUSH1 0x20 MSTORE DUP1 PUSH1 0x0 MSTORE PUSH1 0x40 PUSH1 0x0 KECCAK256 PUSH1 0x0 SWAP2 POP SLOAD SWAP1 PUSH2 0x100 EXP SWAP1 DIV PUSH1 0xFF AND DUP2 JUMP JUMPDEST PUSH1 0x0 DUP1 DUP6 DUP6 PUSH1 0x40 MLOAD PUSH1 0x20 ADD PUSH2 0x93B SWAP3 SWAP2 SWAP1 PUSH2 0x1640 JUMP JUMPDEST PUSH1 0x40 MLOAD PUSH1 0x20 DUP2 DUP4 SUB SUB DUP2 MSTORE SWAP1 PUSH1 0x40 MSTORE DUP1 MLOAD SWAP1 PUSH1 0x20 ADD KECCAK256 SWAP1 POP PUSH1 0x0 PUSH2 0x9C1 DUP6 DUP6 DUP1 DUP1 PUSH1 0x20 MUL PUSH1 0x20 ADD PUSH1 0x40 MLOAD SWAP1 DUP2 ADD PUSH1 0x40 MSTORE DUP1 SWAP4 SWAP3 SWAP2 SWAP1 DUP2 DUP2 MSTORE PUSH1 0x20 ADD DUP4 DUP4 PUSH1 0x20 MUL DUP1 DUP3 DUP5 CALLDATACOPY PUSH1 0x0 DUP2 DUP5 ADD MSTORE PUSH1 0x1F NOT PUSH1 0x1F DUP3 ADD AND SWAP1 POP DUP1 DUP4 ADD SWAP3 POP POP POP POP POP POP POP PUSH32 0x0 DUP5 PUSH2 0xE0A JUMP JUMPDEST SWAP1 POP DUP1 SWAP3 POP POP POP SWAP5 SWAP4 POP POP POP POP JUMP JUMPDEST PUSH1 0x7 PUSH1 0x0 SWAP1 SLOAD SWAP1 PUSH2 0x100 EXP SWAP1 DIV PUSH20 0xFFFFFFFFFFFFFFFFFFFFFFFFFFFFFFFFFFFFFFFF AND PUSH20 0xFFFFFFFFFFFFFFFFFFFFFFFFFFFFFFFFFFFFFFFF AND CALLER PUSH20 0xFFFFFFFFFFFFFFFFFFFFFFFFFFFFFFFFFFFFFFFF AND EQ PUSH2 0xA60 JUMPI PUSH1 0x40 MLOAD PUSH32 0x8C379A000000000000000000000000000000000000000000000000000000000 DUP2 MSTORE PUSH1 0x4 ADD PUSH2 0xA57 SWAP1 PUSH2 0x16B8 JUMP JUMPDEST PUSH1 0x40 MLOAD DUP1 SWAP2 SUB SWAP1 REVERT JUMPDEST PUSH2 0xA69 DUP2 PUSH2 0xCDE JUMP JUMPDEST PUSH2 0xAA8 JUMPI PUSH1 0x40 MLOAD PUSH32 0x8C379A000000000000000000000000000000000000000000000000000000000 DUP2 MSTORE PUSH1 0x4 ADD PUSH2 0xA9F SWAP1 PUSH2 0x1280 JUMP JUMPDEST PUSH1 0x40 MLOAD DUP1 SWAP2 SUB SWAP1 REVERT JUMPDEST PUSH1 0x2 PUSH1 0x0 DUP3 PUSH1 0xFF AND PUSH1 0xFF AND DUP2 MSTORE PUSH1 0x20 ADD SWAP1 DUP2 MSTORE PUSH1 0x20 ADD PUSH1 0x0 KECCAK256 PUSH1 0x0 SWAP1 SLOAD SWAP1 PUSH2 0x100 EXP SWAP1 DIV PUSH1 0xFF AND ISZERO PUSH2 0xB0F JUMPI PUSH1 0x40 MLOAD PUSH32 0x8C379A000000000000000000000000000000000000000000000000000000000 DUP2 MSTORE PUSH1 0x4 ADD PUSH2 0xB06 SWAP1 PUSH2 0x12EC JUMP JUMPDEST PUSH1 0x40 MLOAD DUP1 SWAP2 SUB SWAP1 REVERT JUMPDEST PUSH1 0x0 PUSH1 0x3 SLOAD SUB PUSH2 0xBBA JUMPI PUSH32 0x0 PUSH20 0xFFFFFFFFFFFFFFFFFFFFFFFFFFFFFFFFFFFFFFFF AND PUSH4 0x70A08231 ADDRESS PUSH1 0x40 MLOAD DUP3 PUSH4 0xFFFFFFFF AND PUSH1 0xE0 SHL DUP2 MSTORE PUSH1 0x4 ADD PUSH2 0xB72 SWAP2 SWAP1 PUSH2 0x131B JUMP JUMPDEST PUSH1 0x20 PUSH1 0x40 MLOAD DUP1 DUP4 SUB DUP2 DUP7 GAS STATICCALL ISZERO DUP1 ISZERO PUSH2 0xB8F JUMPI RETURNDATASIZE PUSH1 0x0 DUP1 RETURNDATACOPY RETURNDATASIZE PUSH1 0x0 REVERT JUMPDEST POP POP POP POP PUSH1 0x40 MLOAD RETURNDATASIZE PUSH1 0x1F NOT PUSH1 0x1F DUP3 ADD AND DUP3 ADD DUP1 PUSH1 0x40 MSTORE POP DUP2 ADD SWAP1 PUSH2 0xBB3 SWAP2 SWAP1 PUSH2 0x134B JUMP JUMPDEST PUSH1 0x3 DUP2 SWAP1 SSTORE POP JUMPDEST PUSH1 0x1 PUSH1 0x2 PUSH1 0x0 DUP4 PUSH1 0xFF AND PUSH1 0xFF AND DUP2 MSTORE PUSH1 0x20 ADD SWAP1 DUP2 MSTORE PUSH1 0x20 ADD PUSH1 0x0 KECCAK256 PUSH1 0x0 PUSH2 0x100 EXP DUP2 SLOAD DUP2 PUSH1 0xFF MUL NOT AND SWAP1 DUP4 ISZERO ISZERO MUL OR SWAP1 SSTORE POP PUSH32 0x0 PUSH20 0xFFFFFFFFFFFFFFFFFFFFFFFFFFFFFFFFFFFFFFFF AND PUSH4 0xA9059CBB PUSH1 0x7 PUSH1 0x0 SWAP1 SLOAD SWAP1 PUSH2 0x100 EXP SWAP1 DIV PUSH20 0xFFFFFFFFFFFFFFFFFFFFFFFFFFFFFFFFFFFFFFFF AND PUSH1 0x4 PUSH1 0x3 SLOAD PUSH2 0xC5A SWAP2 SWAP1 PUSH2 0x13D6 JUMP JUMPDEST PUSH1 0x40 MLOAD DUP4 PUSH4 0xFFFFFFFF AND PUSH1 0xE0 SHL DUP2 MSTORE PUSH1 0x4 ADD PUSH2 0xC77 SWAP3 SWAP2 SWAP1 PUSH2 0x1407 JUMP JUMPDEST PUSH1 0x20 PUSH1 0x40 MLOAD DUP1 DUP4 SUB DUP2 PUSH1 0x0 DUP8 GAS CALL ISZERO DUP1 ISZERO PUSH2 0xC96 JUMPI RETURNDATASIZE PUSH1 0x0 DUP1 RETURNDATACOPY RETURNDATASIZE PUSH1 0x0 REVERT JUMPDEST POP POP POP POP PUSH1 0x40 MLOAD RETURNDATASIZE PUSH1 0x1F NOT PUSH1 0x1F DUP3 ADD AND DUP3 ADD DUP1 PUSH1 0x40 MSTORE POP DUP2 ADD SWAP1 PUSH2 0xCBA SWAP2 SWAP1 PUSH2 0x145C JUMP JUMPDEST POP POP JUMP JUMPDEST PUSH1 0x2 PUSH1 0x20 MSTORE DUP1 PUSH1 0x0 MSTORE PUSH1 0x40 PUSH1 0x0 KECCAK256 PUSH1 0x0 SWAP2 POP SLOAD SWAP1 PUSH2 0x100 EXP SWAP1 DIV PUSH1 0xFF AND DUP2 JUMP JUMPDEST PUSH1 0x0 DUP1 PUSH3 0x15180 PUSH1 0x1 DUP5 PUSH1 0x2 PUSH2 0xCF4 SWAP2 SWAP1 PUSH2 0x16D8 JUMP JUMPDEST PUSH2 0xCFE SWAP2 SWAP1 PUSH2 0x1715 JUMP JUMPDEST PUSH1 0xFF AND PUSH2 0xD0B SWAP2 SWAP1 PUSH2 0x175A JUMP JUMPDEST PUSH4 0xFFFFFFFF AND PUSH1 0x5 SLOAD PUSH2 0xD1E SWAP2 SWAP1 PUSH2 0x1797 JUMP JUMPDEST SWAP1 POP PUSH1 0x0 PUSH3 0x15180 PUSH4 0xFFFFFFFF AND DUP3 PUSH2 0xD37 SWAP2 SWAP1 PUSH2 0x1797 JUMP JUMPDEST SWAP1 POP DUP2 TIMESTAMP LT ISZERO DUP1 ISZERO PUSH2 0xD49 JUMPI POP DUP1 TIMESTAMP GT ISZERO JUMPDEST SWAP3 POP POP POP SWAP2 SWAP1 POP JUMP JUMPDEST PUSH1 0x5 SLOAD DUP2 JUMP JUMPDEST PUSH1 0x1 PUSH1 0x20 MSTORE DUP1 PUSH1 0x0 MSTORE PUSH1 0x40 PUSH1 0x0 KECCAK256 PUSH1 0x0 SWAP2 POP SLOAD SWAP1 PUSH2 0x100 EXP SWAP1 DIV PUSH1 0xFF AND DUP2 JUMP JUMPDEST PUSH1 0x0 DUP1 PUSH3 0x15180 PUSH4 0xFFFFFFFF AND PUSH3 0x15180 PUSH1 0x1 DUP6 PUSH1 0x2 PUSH2 0xD98 SWAP2 SWAP1 PUSH2 0x16D8 JUMP JUMPDEST PUSH2 0xDA2 SWAP2 SWAP1 PUSH2 0x1715 JUMP JUMPDEST PUSH1 0xFF AND PUSH2 0xDAF SWAP2 SWAP1 PUSH2 0x175A JUMP JUMPDEST PUSH4 0xFFFFFFFF AND PUSH1 0x5 SLOAD PUSH2 0xDC2 SWAP2 SWAP1 PUSH2 0x1797 JUMP JUMPDEST PUSH2 0xDCC SWAP2 SWAP1 PUSH2 0x1797 JUMP JUMPDEST SWAP1 POP DUP1 TIMESTAMP LT ISZERO DUP1 ISZERO PUSH2 0xE02 JUMPI POP PUSH1 0x1 PUSH1 0x0 DUP5 PUSH1 0xFF AND PUSH1 0xFF AND DUP2 MSTORE PUSH1 0x20 ADD SWAP1 DUP2 MSTORE PUSH1 0x20 ADD PUSH1 0x0 KECCAK256 PUSH1 0x0 SWAP1 SLOAD SWAP1 PUSH2 0x100 EXP SWAP1 DIV PUSH1 0xFF AND ISZERO JUMPDEST SWAP2 POP POP SWAP2 SWAP1 POP JUMP JUMPDEST PUSH1 0x0 DUP3 PUSH2 0xE17 DUP6 DUP5 PUSH2 0xE21 JUMP JUMPDEST EQ SWAP1 POP SWAP4 SWAP3 POP POP POP JUMP JUMPDEST PUSH1 0x0 DUP1 DUP3 SWAP1 POP PUSH1 0x0 JUMPDEST DUP5 MLOAD DUP2 LT ISZERO PUSH2 0xE6C JUMPI PUSH2 0xE57 DUP3 DUP7 DUP4 DUP2 MLOAD DUP2 LT PUSH2 0xE4A JUMPI PUSH2 0xE49 PUSH2 0x17CB JUMP JUMPDEST JUMPDEST PUSH1 0x20 MUL PUSH1 0x20 ADD ADD MLOAD PUSH2 0xE77 JUMP JUMPDEST SWAP2 POP DUP1 DUP1 PUSH2 0xE64 SWAP1 PUSH2 0x17FA JUMP JUMPDEST SWAP2 POP POP PUSH2 0xE2A JUMP JUMPDEST POP DUP1 SWAP2 POP POP SWAP3 SWAP2 POP POP JUMP JUMPDEST PUSH1 0x0 DUP2 DUP4 LT PUSH2 0xE8F JUMPI PUSH2 0xE8A DUP3 DUP5 PUSH2 0xEA2 JUMP JUMPDEST PUSH2 0xE9A JUMP JUMPDEST PUSH2 0xE99 DUP4 DUP4 PUSH2 0xEA2 JUMP JUMPDEST JUMPDEST SWAP1 POP SWAP3 SWAP2 POP POP JUMP JUMPDEST PUSH1 0x0 DUP3 PUSH1 0x0 MSTORE DUP2 PUSH1 0x20 MSTORE PUSH1 0x40 PUSH1 0x0 KECCAK256 SWAP1 POP SWAP3 SWAP2 POP POP JUMP JUMPDEST PUSH1 0x0 DUP1 REVERT JUMPDEST PUSH1 0x0 DUP1 REVERT JUMPDEST PUSH1 0x0 PUSH1 0xFF DUP3 AND SWAP1 POP SWAP2 SWAP1 POP JUMP JUMPDEST PUSH2 0xED9 DUP2 PUSH2 0xEC3 JUMP JUMPDEST DUP2 EQ PUSH2 0xEE4 JUMPI PUSH1 0x0 DUP1 REVERT JUMPDEST POP JUMP JUMPDEST PUSH1 0x0 DUP2 CALLDATALOAD SWAP1 POP PUSH2 0xEF6 DUP2 PUSH2 0xED0 JUMP JUMPDEST SWAP3 SWAP2 POP POP JUMP JUMPDEST PUSH1 0x0 PUSH1 0x20 DUP3 DUP5 SUB SLT ISZERO PUSH2 0xF12 JUMPI PUSH2 0xF11 PUSH2 0xEB9 JUMP JUMPDEST JUMPDEST PUSH1 0x0 PUSH2 0xF20 DUP5 DUP3 DUP6 ADD PUSH2 0xEE7 JUMP JUMPDEST SWAP2 POP POP SWAP3 SWAP2 POP POP JUMP JUMPDEST PUSH1 0x0 DUP2 SWAP1 POP SWAP2 SWAP1 POP JUMP JUMPDEST PUSH2 0xF3C DUP2 PUSH2 0xF29 JUMP JUMPDEST DUP3 MSTORE POP POP JUMP JUMPDEST PUSH1 0x0 PUSH1 0x20 DUP3 ADD SWAP1 POP PUSH2 0xF57 PUSH1 0x0 DUP4 ADD DUP5 PUSH2 0xF33 JUMP JUMPDEST SWAP3 SWAP2 POP POP JUMP JUMPDEST PUSH1 0x0 DUP2 SWAP1 POP SWAP2 SWAP1 POP JUMP JUMPDEST PUSH2 0xF70 DUP2 PUSH2 0xF5D JUMP JUMPDEST DUP3 MSTORE POP POP JUMP JUMPDEST PUSH1 0x0 PUSH1 0x20 DUP3 ADD SWAP1 POP PUSH2 0xF8B PUSH1 0x0 DUP4 ADD DUP5 PUSH2 0xF67 JUMP JUMPDEST SWAP3 SWAP2 POP POP JUMP JUMPDEST PUSH2 0xF9A DUP2 PUSH2 0xF29 JUMP JUMPDEST DUP2 EQ PUSH2 0xFA5 JUMPI PUSH1 0x0 DUP1 REVERT JUMPDEST POP JUMP JUMPDEST PUSH1 0x0 DUP2 CALLDATALOAD SWAP1 POP PUSH2 0xFB7 DUP2 PUSH2 0xF91 JUMP JUMPDEST SWAP3 SWAP2 POP POP JUMP JUMPDEST PUSH1 0x0 DUP1 REVERT JUMPDEST PUSH1 0x0 DUP1 REVERT JUMPDEST PUSH1 0x0 DUP1 REVERT JUMPDEST PUSH1 0x0 DUP1 DUP4 PUSH1 0x1F DUP5 ADD SLT PUSH2 0xFE2 JUMPI PUSH2 0xFE1 PUSH2 0xFBD JUMP JUMPDEST JUMPDEST DUP3 CALLDATALOAD SWAP1 POP PUSH8 0xFFFFFFFFFFFFFFFF DUP2 GT ISZERO PUSH2 0xFFF JUMPI PUSH2 0xFFE PUSH2 0xFC2 JUMP JUMPDEST JUMPDEST PUSH1 0x20 DUP4 ADD SWAP2 POP DUP4 PUSH1 0x20 DUP3 MUL DUP4 ADD GT ISZERO PUSH2 0x101B JUMPI PUSH2 0x101A PUSH2 0xFC7 JUMP JUMPDEST JUMPDEST SWAP3 POP SWAP3 SWAP1 POP JUMP JUMPDEST PUSH1 0x0 DUP1 PUSH1 0x0 PUSH1 0x40 DUP5 DUP7 SUB SLT ISZERO PUSH2 0x103B JUMPI PUSH2 0x103A PUSH2 0xEB9 JUMP JUMPDEST JUMPDEST PUSH1 0x0 PUSH2 0x1049 DUP7 DUP3 DUP8 ADD PUSH2 0xFA8 JUMP JUMPDEST SWAP4 POP POP PUSH1 0x20 DUP5 ADD CALLDATALOAD PUSH8 0xFFFFFFFFFFFFFFFF DUP2 GT ISZERO PUSH2 0x106A JUMPI PUSH2 0x1069 PUSH2 0xEBE JUMP JUMPDEST JUMPDEST PUSH2 0x1076 DUP7 DUP3 DUP8 ADD PUSH2 0xFCC JUMP JUMPDEST SWAP3 POP SWAP3 POP POP SWAP3 POP SWAP3 POP SWAP3 JUMP JUMPDEST PUSH1 0x0 PUSH20 0xFFFFFFFFFFFFFFFFFFFFFFFFFFFFFFFFFFFFFFFF DUP3 AND SWAP1 POP SWAP2 SWAP1 POP JUMP JUMPDEST PUSH1 0x0 PUSH2 0x10AD DUP3 PUSH2 0x1082 JUMP JUMPDEST SWAP1 POP SWAP2 SWAP1 POP JUMP JUMPDEST PUSH2 0x10BD DUP2 PUSH2 0x10A2 JUMP JUMPDEST DUP2 EQ PUSH2 0x10C8 JUMPI PUSH1 0x0 DUP1 REVERT JUMPDEST POP JUMP JUMPDEST PUSH1 0x0 DUP2 CALLDATALOAD SWAP1 POP PUSH2 0x10DA DUP2 PUSH2 0x10B4 JUMP JUMPDEST SWAP3 SWAP2 POP POP JUMP JUMPDEST PUSH1 0x0 PUSH1 0x20 DUP3 DUP5 SUB SLT ISZERO PUSH2 0x10F6 JUMPI PUSH2 0x10F5 PUSH2 0xEB9 JUMP JUMPDEST JUMPDEST PUSH1 0x0 PUSH2 0x1104 DUP5 DUP3 DUP6 ADD PUSH2 0x10CB JUMP JUMPDEST SWAP2 POP POP SWAP3 SWAP2 POP POP JUMP JUMPDEST PUSH1 0x0 DUP2 ISZERO ISZERO SWAP1 POP SWAP2 SWAP1 POP JUMP JUMPDEST PUSH2 0x1122 DUP2 PUSH2 0x110D JUMP JUMPDEST DUP3 MSTORE POP POP JUMP JUMPDEST PUSH1 0x0 PUSH1 0x20 DUP3 ADD SWAP1 POP PUSH2 0x113D PUSH1 0x0 DUP4 ADD DUP5 PUSH2 0x1119 JUMP JUMPDEST SWAP3 SWAP2 POP POP JUMP JUMPDEST PUSH1 0x0 DUP1 PUSH1 0x0 DUP1 PUSH1 0x60 DUP6 DUP8 SUB SLT ISZERO PUSH2 0x115D JUMPI PUSH2 0x115C PUSH2 0xEB9 JUMP JUMPDEST JUMPDEST PUSH1 0x0 PUSH2 0x116B DUP8 DUP3 DUP9 ADD PUSH2 0x10CB JUMP JUMPDEST SWAP5 POP POP PUSH1 0x20 PUSH2 0x117C DUP8 DUP3 DUP9 ADD PUSH2 0xFA8 JUMP JUMPDEST SWAP4 POP POP PUSH1 0x40 DUP6 ADD CALLDATALOAD PUSH8 0xFFFFFFFFFFFFFFFF DUP2 GT ISZERO PUSH2 0x119D JUMPI PUSH2 0x119C PUSH2 0xEBE JUMP JUMPDEST JUMPDEST PUSH2 0x11A9 DUP8 DUP3 DUP9 ADD PUSH2 0xFCC JUMP JUMPDEST SWAP3 POP SWAP3 POP POP SWAP3 SWAP6 SWAP2 SWAP5 POP SWAP3 POP JUMP JUMPDEST PUSH1 0x0 DUP3 DUP3 MSTORE PUSH1 0x20 DUP3 ADD SWAP1 POP SWAP3 SWAP2 POP POP JUMP JUMPDEST PUSH32 0x4E6F742063726561746F72000000000000000000000000000000000000000000 PUSH1 0x0 DUP3 ADD MSTORE POP JUMP JUMPDEST PUSH1 0x0 PUSH2 0x11FE PUSH1 0xB DUP4 PUSH2 0x11B7 JUMP JUMPDEST SWAP2 POP PUSH2 0x1209 DUP3 PUSH2 0x11C8 JUMP JUMPDEST PUSH1 0x20 DUP3 ADD SWAP1 POP SWAP2 SWAP1 POP JUMP JUMPDEST PUSH1 0x0 PUSH1 0x20 DUP3 ADD SWAP1 POP DUP2 DUP2 SUB PUSH1 0x0 DUP4 ADD MSTORE PUSH2 0x122D DUP2 PUSH2 0x11F1 JUMP JUMPDEST SWAP1 POP SWAP2 SWAP1 POP JUMP JUMPDEST PUSH32 0x4E6F7420696E20636C61696D20706572696F6400000000000000000000000000 PUSH1 0x0 DUP3 ADD MSTORE POP JUMP JUMPDEST PUSH1 0x0 PUSH2 0x126A PUSH1 0x13 DUP4 PUSH2 0x11B7 JUMP JUMPDEST SWAP2 POP PUSH2 0x1275 DUP3 PUSH2 0x1234 JUMP JUMPDEST PUSH1 0x20 DUP3 ADD SWAP1 POP SWAP2 SWAP1 POP JUMP JUMPDEST PUSH1 0x0 PUSH1 0x20 DUP3 ADD SWAP1 POP DUP2 DUP2 SUB PUSH1 0x0 DUP4 ADD MSTORE PUSH2 0x1299 DUP2 PUSH2 0x125D JUMP JUMPDEST SWAP1 POP SWAP2 SWAP1 POP JUMP JUMPDEST PUSH32 0x416C726561647920636C61696D65640000000000000000000000000000000000 PUSH1 0x0 DUP3 ADD MSTORE POP JUMP JUMPDEST PUSH1 0x0 PUSH2 0x12D6 PUSH1 0xF DUP4 PUSH2 0x11B7 JUMP JUMPDEST SWAP2 POP PUSH2 0x12E1 DUP3 PUSH2 0x12A0 JUMP JUMPDEST PUSH1 0x20 DUP3 ADD SWAP1 POP SWAP2 SWAP1 POP JUMP JUMPDEST PUSH1 0x0 PUSH1 0x20 DUP3 ADD SWAP1 POP DUP2 DUP2 SUB PUSH1 0x0 DUP4 ADD MSTORE PUSH2 0x1305 DUP2 PUSH2 0x12C9 JUMP JUMPDEST SWAP1 POP SWAP2 SWAP1 POP JUMP JUMPDEST PUSH2 0x1315 DUP2 PUSH2 0x10A2 JUMP JUMPDEST DUP3 MSTORE POP POP JUMP JUMPDEST PUSH1 0x0 PUSH1 0x20 DUP3 ADD SWAP1 POP PUSH2 0x1330 PUSH1 0x0 DUP4 ADD DUP5 PUSH2 0x130C JUMP JUMPDEST SWAP3 SWAP2 POP POP JUMP JUMPDEST PUSH1 0x0 DUP2 MLOAD SWAP1 POP PUSH2 0x1345 DUP2 PUSH2 0xF91 JUMP JUMPDEST SWAP3 SWAP2 POP POP JUMP JUMPDEST PUSH1 0x0 PUSH1 0x20 DUP3 DUP5 SUB SLT ISZERO PUSH2 0x1361 JUMPI PUSH2 0x1360 PUSH2 0xEB9 JUMP JUMPDEST JUMPDEST PUSH1 0x0 PUSH2 0x136F DUP5 DUP3 DUP6 ADD PUSH2 0x1336 JUMP JUMPDEST SWAP2 POP POP SWAP3 SWAP2 POP POP JUMP JUMPDEST PUSH32 0x4E487B7100000000000000000000000000000000000000000000000000000000 PUSH1 0x0 MSTORE PUSH1 0x12 PUSH1 0x4 MSTORE PUSH1 0x24 PUSH1 0x0 REVERT JUMPDEST PUSH32 0x4E487B7100000000000000000000000000000000000000000000000000000000 PUSH1 0x0 MSTORE PUSH1 0x11 PUSH1 0x4 MSTORE PUSH1 0x24 PUSH1 0x0 REVERT JUMPDEST PUSH1 0x0 PUSH2 0x13E1 DUP3 PUSH2 0xF29 JUMP JUMPDEST SWAP2 POP PUSH2 0x13EC DUP4 PUSH2 0xF29 JUMP JUMPDEST SWAP3 POP DUP3 PUSH2 0x13FC JUMPI PUSH2 0x13FB PUSH2 0x1378 JUMP JUMPDEST JUMPDEST DUP3 DUP3 DIV SWAP1 POP SWAP3 SWAP2 POP POP JUMP JUMPDEST PUSH1 0x0 PUSH1 0x40 DUP3 ADD SWAP1 POP PUSH2 0x141C PUSH1 0x0 DUP4 ADD DUP6 PUSH2 0x130C JUMP JUMPDEST PUSH2 0x1429 PUSH1 0x20 DUP4 ADD DUP5 PUSH2 0xF33 JUMP JUMPDEST SWAP4 SWAP3 POP POP POP JUMP JUMPDEST PUSH2 0x1439 DUP2 PUSH2 0x110D JUMP JUMPDEST DUP2 EQ PUSH2 0x1444 JUMPI PUSH1 0x0 DUP1 REVERT JUMPDEST POP JUMP JUMPDEST PUSH1 0x0 DUP2 MLOAD SWAP1 POP PUSH2 0x1456 DUP2 PUSH2 0x1430 JUMP JUMPDEST SWAP3 SWAP2 POP POP JUMP JUMPDEST PUSH1 0x0 PUSH1 0x20 DUP3 DUP5 SUB SLT ISZERO PUSH2 0x1472 JUMPI PUSH2 0x1471 PUSH2 0xEB9 JUMP JUMPDEST JUMPDEST PUSH1 0x0 PUSH2 0x1480 DUP5 DUP3 DUP6 ADD PUSH2 0x1447 JUMP JUMPDEST SWAP2 POP POP SWAP3 SWAP2 POP POP JUMP JUMPDEST PUSH32 0x4E6F7420537461727465642F4578706972656400000000000000000000000000 PUSH1 0x0 DUP3 ADD MSTORE POP JUMP JUMPDEST PUSH1 0x0 PUSH2 0x14BF PUSH1 0x13 DUP4 PUSH2 0x11B7 JUMP JUMPDEST SWAP2 POP PUSH2 0x14CA DUP3 PUSH2 0x1489 JUMP JUMPDEST PUSH1 0x20 DUP3 ADD SWAP1 POP SWAP2 SWAP1 POP JUMP JUMPDEST PUSH1 0x0 PUSH1 0x20 DUP3 ADD SWAP1 POP DUP2 DUP2 SUB PUSH1 0x0 DUP4 ADD MSTORE PUSH2 0x14EE DUP2 PUSH2 0x14B2 JUMP JUMPDEST SWAP1 POP SWAP2 SWAP1 POP JUMP JUMPDEST PUSH32 0x496E76616C69642070726F6F6600000000000000000000000000000000000000 PUSH1 0x0 DUP3 ADD MSTORE POP JUMP JUMPDEST PUSH1 0x0 PUSH2 0x152B PUSH1 0xD DUP4 PUSH2 0x11B7 JUMP JUMPDEST SWAP2 POP PUSH2 0x1536 DUP3 PUSH2 0x14F5 JUMP JUMPDEST PUSH1 0x20 DUP3 ADD SWAP1 POP SWAP2 SWAP1 POP JUMP JUMPDEST PUSH1 0x0 PUSH1 0x20 DUP3 ADD SWAP1 POP DUP2 DUP2 SUB PUSH1 0x0 DUP4 ADD MSTORE PUSH2 0x155A DUP2 PUSH2 0x151E JUMP JUMPDEST SWAP1 POP SWAP2 SWAP1 POP JUMP JUMPDEST PUSH1 0x0 PUSH2 0x156C DUP3 PUSH2 0xF29 JUMP JUMPDEST SWAP2 POP PUSH2 0x1577 DUP4 PUSH2 0xF29 JUMP JUMPDEST SWAP3 POP DUP3 DUP3 MUL PUSH2 0x1585 DUP2 PUSH2 0xF29 JUMP JUMPDEST SWAP2 POP DUP3 DUP3 DIV DUP5 EQ DUP4 ISZERO OR PUSH2 0x159C JUMPI PUSH2 0x159B PUSH2 0x13A7 JUMP JUMPDEST JUMPDEST POP SWAP3 SWAP2 POP POP JUMP JUMPDEST PUSH1 0x0 PUSH2 0x15AE DUP3 PUSH2 0xF29 JUMP JUMPDEST SWAP2 POP PUSH2 0x15B9 DUP4 PUSH2 0xF29 JUMP JUMPDEST SWAP3 POP DUP3 DUP3 SUB SWAP1 POP DUP2 DUP2 GT ISZERO PUSH2 0x15D1 JUMPI PUSH2 0x15D0 PUSH2 0x13A7 JUMP JUMPDEST JUMPDEST SWAP3 SWAP2 POP POP JUMP JUMPDEST PUSH1 0x0 DUP2 PUSH1 0x60 SHL SWAP1 POP SWAP2 SWAP1 POP JUMP JUMPDEST PUSH1 0x0 PUSH2 0x15EF DUP3 PUSH2 0x15D7 JUMP JUMPDEST SWAP1 POP SWAP2 SWAP1 POP JUMP JUMPDEST PUSH1 0x0 PUSH2 0x1601 DUP3 PUSH2 0x15E4 JUMP JUMPDEST SWAP1 POP SWAP2 SWAP1 POP JUMP JUMPDEST PUSH2 0x1619 PUSH2 0x1614 DUP3 PUSH2 0x10A2 JUMP JUMPDEST PUSH2 0x15F6 JUMP JUMPDEST DUP3 MSTORE POP POP JUMP JUMPDEST PUSH1 0x0 DUP2 SWAP1 POP SWAP2 SWAP1 POP JUMP JUMPDEST PUSH2 0x163A PUSH2 0x1635 DUP3 PUSH2 0xF29 JUMP JUMPDEST PUSH2 0x161F JUMP JUMPDEST DUP3 MSTORE POP POP JUMP JUMPDEST PUSH1 0x0 PUSH2 0x164C DUP3 DUP6 PUSH2 0x1608 JUMP JUMPDEST PUSH1 0x14 DUP3 ADD SWAP2 POP PUSH2 0x165C DUP3 DUP5 PUSH2 0x1629 JUMP JUMPDEST PUSH1 0x20 DUP3 ADD SWAP2 POP DUP2 SWAP1 POP SWAP4 SWAP3 POP POP POP JUMP JUMPDEST PUSH32 0x4E6F74206F776E65720000000000000000000000000000000000000000000000 PUSH1 0x0 DUP3 ADD MSTORE POP JUMP JUMPDEST PUSH1 0x0 PUSH2 0x16A2 PUSH1 0x9 DUP4 PUSH2 0x11B7 JUMP JUMPDEST SWAP2 POP PUSH2 0x16AD DUP3 PUSH2 0x166C JUMP JUMPDEST PUSH1 0x20 DUP3 ADD SWAP1 POP SWAP2 SWAP1 POP JUMP JUMPDEST PUSH1 0x0 PUSH1 0x20 DUP3 ADD SWAP1 POP DUP2 DUP2 SUB PUSH1 0x0 DUP4 ADD MSTORE PUSH2 0x16D1 DUP2 PUSH2 0x1695 JUMP JUMPDEST SWAP1 POP SWAP2 SWAP1 POP JUMP JUMPDEST PUSH1 0x0 PUSH2 0x16E3 DUP3 PUSH2 0xEC3 JUMP JUMPDEST SWAP2 POP PUSH2 0x16EE DUP4 PUSH2 0xEC3 JUMP JUMPDEST SWAP3 POP DUP3 DUP3 MUL PUSH2 0x16FC DUP2 PUSH2 0xEC3 JUMP JUMPDEST SWAP2 POP DUP1 DUP3 EQ PUSH2 0x170E JUMPI PUSH2 0x170D PUSH2 0x13A7 JUMP JUMPDEST JUMPDEST POP SWAP3 SWAP2 POP POP JUMP JUMPDEST PUSH1 0x0 PUSH2 0x1720 DUP3 PUSH2 0xEC3 JUMP JUMPDEST SWAP2 POP PUSH2 0x172B DUP4 PUSH2 0xEC3 JUMP JUMPDEST SWAP3 POP DUP3 DUP3 ADD SWAP1 POP PUSH1 0xFF DUP2 GT ISZERO PUSH2 0x1744 JUMPI PUSH2 0x1743 PUSH2 0x13A7 JUMP JUMPDEST JUMPDEST SWAP3 SWAP2 POP POP JUMP JUMPDEST PUSH1 0x0 PUSH4 0xFFFFFFFF DUP3 AND SWAP1 POP SWAP2 SWAP1 POP JUMP JUMPDEST PUSH1 0x0 PUSH2 0x1765 DUP3 PUSH2 0x174A JUMP JUMPDEST SWAP2 POP PUSH2 0x1770 DUP4 PUSH2 0x174A JUMP JUMPDEST SWAP3 POP DUP3 DUP3 MUL PUSH2 0x177E DUP2 PUSH2 0x174A JUMP JUMPDEST SWAP2 POP DUP1 DUP3 EQ PUSH2 0x1790 JUMPI PUSH2 0x178F PUSH2 0x13A7 JUMP JUMPDEST JUMPDEST POP SWAP3 SWAP2 POP POP JUMP JUMPDEST PUSH1 0x0 PUSH2 0x17A2 DUP3 PUSH2 0xF29 JUMP JUMPDEST SWAP2 POP PUSH2 0x17AD DUP4 PUSH2 0xF29 JUMP JUMPDEST SWAP3 POP DUP3 DUP3 ADD SWAP1 POP DUP1 DUP3 GT ISZERO PUSH2 0x17C5 JUMPI PUSH2 0x17C4 PUSH2 0x13A7 JUMP JUMPDEST JUMPDEST SWAP3 SWAP2 POP POP JUMP JUMPDEST PUSH32 0x4E487B7100000000000000000000000000000000000000000000000000000000 PUSH1 0x0 MSTORE PUSH1 0x32 PUSH1 0x4 MSTORE PUSH1 0x24 PUSH1 0x0 REVERT JUMPDEST PUSH1 0x0 PUSH2 0x1805 DUP3 PUSH2 0xF29 JUMP JUMPDEST SWAP2 POP PUSH32 0xFFFFFFFFFFFFFFFFFFFFFFFFFFFFFFFFFFFFFFFFFFFFFFFFFFFFFFFFFFFFFFFF DUP3 SUB PUSH2 0x1837 JUMPI PUSH2 0x1836 PUSH2 0x13A7 JUMP JUMPDEST JUMPDEST PUSH1 0x1 DUP3 ADD SWAP1 POP SWAP2 SWAP1 POP JUMP INVALID LOG2 PUSH5 0x6970667358 0x22 SLT KECCAK256 PUSH28 0xAF54D21B4D3EB2288E1C3AD115D6BBCFBBBEF58273A1EB4F0A310504 CREATE SWAP3 ADD PUSH5 0x736F6C6343 STOP ADDMOD SLT STOP CALLER LOG2 PUSH5 0x6970667358 0x22 SLT KECCAK256 BYTE PUSH20 0x619CBE6D0EE21DBFF2C0CCCE3208779A9F609380 0xCD 0x4B DUP16 0xBE 0xCD 0xB1 ORIGIN MSTORE CREATE2 RETURNDATACOPY PUSH5 0x736F6C6343 STOP ADDMOD SLT STOP CALLER "},"methodIdentifiers":{"airdropUserList(address)":"06d9c569","createNewAirdrop(bool,address,uint256,uint256,uint256,string,bytes32)":"78563a04","feeAddress()":"41275358","feeValue()":"9fddaa93","getAllAirdrops()":"d7444eeb","getAllCreatorAirdrops(address)":"e887673d","getAllTokenAirdrops(address)":"38c7c2bc","maxClaimPeriod()":"6ae3484e","minClaimPeriod()":"191d6163","owner()":"8da5cb5b","renounceOwnership()":"715018a6","setClaimPeriod(uint256,uint256)":"df6ec1bd","setFees(address,uint256)":"5e5c6ada","transferOwnership(address)":"f2fde38b"}}}}}