{
  "_format": "hh-sol-artifact-1",
  "contractName": "Token",
  "sourceName": "contracts/Token.sol",
  "abi": [
    {
      "inputs": [
        {
          "internalType": "string",
          "name": "_name",
          "type": "string"
        },
        {
          "internalType": "string",
          "name": "_symbol",
          "type": "string"
        }
      ],
      "stateMutability": "nonpayable",
      "type": "constructor"
    },
    {
      "anonymous": false,
      "inputs": [
        {
          "indexed": true,
          "internalType": "address",
          "name": "owner",
          "type": "address"
        },
        {
          "indexed": true,
          "internalType": "address",
          "name": "spender",
          "type": "address"
        },
        {
          "indexed": false,
          "internalType": "uint256",
          "name": "value",
          "type": "uint256"
        }
      ],
      "name": "Approval",
      "type": "event"
    },
    {
      "anonymous": false,
      "inputs": [
        {
          "indexed": true,
          "internalType": "address",
          "name": "from",
          "type": "address"
        },
        {
          "indexed": true,
          "internalType": "address",
          "name": "to",
          "type": "address"
        },
        {
          "indexed": false,
          "internalType": "uint256",
          "name": "value",
          "type": "uint256"
        }
      ],
      "name": "Transfer",
      "type": "event"
    },
    {
      "anonymous": false,
      "inputs": [
        {
          "indexed": false,
          "internalType": "address",
          "name": "newOwner",
          "type": "address"
        }
      ],
      "name": "changedOwner",
      "type": "event"
    },
    {
      "inputs": [
        {
          "internalType": "address",
          "name": "owner",
          "type": "address"
        },
        {
          "internalType": "address",
          "name": "spender",
          "type": "address"
        }
      ],
      "name": "allowance",
      "outputs": [
        {
          "internalType": "uint256",
          "name": "",
          "type": "uint256"
        }
      ],
      "stateMutability": "view",
      "type": "function"
    },
    {
      "inputs": [
        {
          "internalType": "address",
          "name": "spender",
          "type": "address"
        },
        {
          "internalType": "uint256",
          "name": "amount",
          "type": "uint256"
        }
      ],
      "name": "approve",
      "outputs": [
        {
          "internalType": "bool",
          "name": "",
          "type": "bool"
        }
      ],
      "stateMutability": "nonpayable",
      "type": "function"
    },
    {
      "inputs": [
        {
          "internalType": "address",
          "name": "account",
          "type": "address"
        }
      ],
      "name": "balanceOf",
      "outputs": [
        {
          "internalType": "uint256",
          "name": "",
          "type": "uint256"
        }
      ],
      "stateMutability": "view",
      "type": "function"
    },
    {
      "inputs": [
        {
          "internalType": "address",
          "name": "_account",
          "type": "address"
        },
        {
          "internalType": "uint256",
          "name": "_amount",
          "type": "uint256"
        }
      ],
      "name": "burn",
      "outputs": [],
      "stateMutability": "nonpayable",
      "type": "function"
    },
    {
      "inputs": [],
      "name": "changeOwner",
      "outputs": [],
      "stateMutability": "nonpayable",
      "type": "function"
    },
    {
      "inputs": [],
      "name": "decimals",
      "outputs": [
        {
          "internalType": "uint8",
          "name": "",
          "type": "uint8"
        }
      ],
      "stateMutability": "view",
      "type": "function"
    },
    {
      "inputs": [
        {
          "internalType": "address",
          "name": "spender",
          "type": "address"
        },
        {
          "internalType": "uint256",
          "name": "subtractedValue",
          "type": "uint256"
        }
      ],
      "name": "decreaseAllowance",
      "outputs": [
        {
          "internalType": "bool",
          "name": "",
          "type": "bool"
        }
      ],
      "stateMutability": "nonpayable",
      "type": "function"
    },
    {
      "inputs": [
        {
          "internalType": "address",
          "name": "spender",
          "type": "address"
        },
        {
          "internalType": "uint256",
          "name": "addedValue",
          "type": "uint256"
        }
      ],
      "name": "increaseAllowance",
      "outputs": [
        {
          "internalType": "bool",
          "name": "",
          "type": "bool"
        }
      ],
      "stateMutability": "nonpayable",
      "type": "function"
    },
    {
      "inputs": [
        {
          "internalType": "address",
          "name": "_account",
          "type": "address"
        },
        {
          "internalType": "uint256",
          "name": "_amount",
          "type": "uint256"
        }
      ],
      "name": "mint",
      "outputs": [],
      "stateMutability": "nonpayable",
      "type": "function"
    },
    {
      "inputs": [],
      "name": "name",
      "outputs": [
        {
          "internalType": "string",
          "name": "",
          "type": "string"
        }
      ],
      "stateMutability": "view",
      "type": "function"
    },
    {
      "inputs": [],
      "name": "owner",
      "outputs": [
        {
          "internalType": "address",
          "name": "",
          "type": "address"
        }
      ],
      "stateMutability": "view",
      "type": "function"
    },
    {
      "inputs": [],
      "name": "symbol",
      "outputs": [
        {
          "internalType": "string",
          "name": "",
          "type": "string"
        }
      ],
      "stateMutability": "view",
      "type": "function"
    },
    {
      "inputs": [],
      "name": "totalSupply",
      "outputs": [
        {
          "internalType": "uint256",
          "name": "",
          "type": "uint256"
        }
      ],
      "stateMutability": "view",
      "type": "function"
    },
    {
      "inputs": [
        {
          "internalType": "address",
          "name": "to",
          "type": "address"
        },
        {
          "internalType": "uint256",
          "name": "amount",
          "type": "uint256"
        }
      ],
      "name": "transfer",
      "outputs": [
        {
          "internalType": "bool",
          "name": "",
          "type": "bool"
        }
      ],
      "stateMutability": "nonpayable",
      "type": "function"
    },
    {
      "inputs": [
        {
          "internalType": "address",
          "name": "from",
          "type": "address"
        },
        {
          "internalType": "address",
          "name": "to",
          "type": "address"
        },
        {
          "internalType": "uint256",
          "name": "amount",
          "type": "uint256"
        }
      ],
      "name": "transferFrom",
      "outputs": [
        {
          "internalType": "bool",
          "name": "",
          "type": "bool"
        }
      ],
      "stateMutability": "nonpayable",
      "type": "function"
    },
    {
      "inputs": [],
      "name": "withdraw",
      "outputs": [],
      "stateMutability": "nonpayable",
      "type": "function"
    }
  ],
  "bytecode": "0x60806040523480156200001157600080fd5b50604051620023da380380620023da8339818101604052810190620000379190620003f0565b818181600390816200004a9190620006c0565b5080600490816200005c9190620006c0565b50505033600560006101000a81548173ffffffffffffffffffffffffffffffffffffffff021916908373ffffffffffffffffffffffffffffffffffffffff160217905550620000de600560009054906101000a900473ffffffffffffffffffffffffffffffffffffffff1669d3c21bcecceda1000000620000e660201b60201c565b5050620008c2565b600073ffffffffffffffffffffffffffffffffffffffff168273ffffffffffffffffffffffffffffffffffffffff160362000158576040517f08c379a00000000000000000000000000000000000000000000000000000000081526004016200014f9062000808565b60405180910390fd5b6200016c600083836200025360201b60201c565b806002600082825462000180919062000859565b92505081905550806000808473ffffffffffffffffffffffffffffffffffffffff1673ffffffffffffffffffffffffffffffffffffffff168152602001908152602001600020600082825401925050819055508173ffffffffffffffffffffffffffffffffffffffff16600073ffffffffffffffffffffffffffffffffffffffff167fddf252ad1be2c89b69c2b068fc378daa952ba7f163c4a11628f55a4df523b3ef83604051620002339190620008a5565b60405180910390a36200024f600083836200025860201b60201c565b5050565b505050565b505050565b6000604051905090565b600080fd5b600080fd5b600080fd5b600080fd5b6000601f19601f8301169050919050565b7f4e487b7100000000000000000000000000000000000000000000000000000000600052604160045260246000fd5b620002c6826200027b565b810181811067ffffffffffffffff82111715620002e857620002e76200028c565b5b80604052505050565b6000620002fd6200025d565b90506200030b8282620002bb565b919050565b600067ffffffffffffffff8211156200032e576200032d6200028c565b5b62000339826200027b565b9050602081019050919050565b60005b838110156200036657808201518184015260208101905062000349565b60008484015250505050565b600062000389620003838462000310565b620002f1565b905082815260208101848484011115620003a857620003a762000276565b5b620003b584828562000346565b509392505050565b600082601f830112620003d557620003d462000271565b5b8151620003e784826020860162000372565b91505092915050565b600080604083850312156200040a576200040962000267565b5b600083015167ffffffffffffffff8111156200042b576200042a6200026c565b5b6200043985828601620003bd565b925050602083015167ffffffffffffffff8111156200045d576200045c6200026c565b5b6200046b85828601620003bd565b9150509250929050565b600081519050919050565b7f4e487b7100000000000000000000000000000000000000000000000000000000600052602260045260246000fd5b60006002820490506001821680620004c857607f821691505b602082108103620004de57620004dd62000480565b5b50919050565b60008190508160005260206000209050919050565b60006020601f8301049050919050565b600082821b905092915050565b600060088302620005487fffffffffffffffffffffffffffffffffffffffffffffffffffffffffffffffff8262000509565b62000554868362000509565b95508019841693508086168417925050509392505050565b6000819050919050565b6000819050919050565b6000620005a16200059b62000595846200056c565b62000576565b6200056c565b9050919050565b6000819050919050565b620005bd8362000580565b620005d5620005cc82620005a8565b84845462000516565b825550505050565b600090565b620005ec620005dd565b620005f9818484620005b2565b505050565b5b81811015620006215762000615600082620005e2565b600181019050620005ff565b5050565b601f82111562000670576200063a81620004e4565b6200064584620004f9565b8101602085101562000655578190505b6200066d6200066485620004f9565b830182620005fe565b50505b505050565b600082821c905092915050565b6000620006956000198460080262000675565b1980831691505092915050565b6000620006b0838362000682565b9150826002028217905092915050565b620006cb8262000475565b67ffffffffffffffff811115620006e757620006e66200028c565b5b620006f38254620004af565b6200070082828562000625565b600060209050601f83116001811462000738576000841562000723578287015190505b6200072f8582620006a2565b8655506200079f565b601f1984166200074886620004e4565b60005b8281101562000772578489015182556001820191506020850194506020810190506200074b565b868310156200079257848901516200078e601f89168262000682565b8355505b6001600288020188555050505b505050505050565b600082825260208201905092915050565b7f45524332303a206d696e7420746f20746865207a65726f206164647265737300600082015250565b6000620007f0601f83620007a7565b9150620007fd82620007b8565b602082019050919050565b600060208201905081810360008301526200082381620007e1565b9050919050565b7f4e487b7100000000000000000000000000000000000000000000000000000000600052601160045260246000fd5b600062000866826200056c565b915062000873836200056c565b92508282019050808211156200088e576200088d6200082a565b5b92915050565b6200089f816200056c565b82525050565b6000602082019050620008bc600083018462000894565b92915050565b611b0880620008d26000396000f3fe608060405234801561001057600080fd5b50600436106101005760003560e01c806362a09477116100975780639dc29fac116100665780639dc29fac1461028b578063a457c2d7146102a7578063a9059cbb146102d7578063dd62ed3e1461030757610100565b806362a094771461021557806370a082311461021f5780638da5cb5b1461024f57806395d89b411461026d57610100565b8063313ce567116100d3578063313ce567146101a157806339509351146101bf5780633ccfd60b146101ef57806340c10f19146101f957610100565b806306fdde0314610105578063095ea7b31461012357806318160ddd1461015357806323b872dd14610171575b600080fd5b61010d610337565b60405161011a9190611199565b60405180910390f35b61013d60048036038101906101389190611254565b6103c9565b60405161014a91906112af565b60405180910390f35b61015b6103ec565b60405161016891906112d9565b60405180910390f35b61018b600480360381019061018691906112f4565b6103f6565b60405161019891906112af565b60405180910390f35b6101a9610425565b6040516101b69190611363565b60405180910390f35b6101d960048036038101906101d49190611254565b61042e565b6040516101e691906112af565b60405180910390f35b6101f7610465565b005b610213600480360381019061020e9190611254565b6104a2565b005b61021d610540565b005b6102396004803603810190610234919061137e565b61064a565b60405161024691906112d9565b60405180910390f35b610257610692565b60405161026491906113ba565b60405180910390f35b6102756106b8565b6040516102829190611199565b60405180910390f35b6102a560048036038101906102a09190611254565b61074a565b005b6102c160048036038101906102bc9190611254565b6107e8565b6040516102ce91906112af565b60405180910390f35b6102f160048036038101906102ec9190611254565b61085f565b6040516102fe91906112af565b60405180910390f35b610321600480360381019061031c91906113d5565b610882565b60405161032e91906112d9565b60405180910390f35b60606003805461034690611444565b80601f016020809104026020016040519081016040528092919081815260200182805461037290611444565b80156103bf5780601f10610394576101008083540402835291602001916103bf565b820191906000526020600020905b8154815290600101906020018083116103a257829003601f168201915b5050505050905090565b6000806103d4610909565b90506103e1818585610911565b600191505092915050565b6000600254905090565b600080610401610909565b905061040e858285610ada565b610419858585610b66565b60019150509392505050565b60006012905090565b600080610439610909565b905061045a81858561044b8589610882565b61045591906114a4565b610911565b600191505092915050565b60006104703361064a565b905061049e600560009054906101000a900473ffffffffffffffffffffffffffffffffffffffff168261085f565b5050565b3373ffffffffffffffffffffffffffffffffffffffff16600560009054906101000a900473ffffffffffffffffffffffffffffffffffffffff1673ffffffffffffffffffffffffffffffffffffffff1614610532576040517f08c379a00000000000000000000000000000000000000000000000000000000081526004016105299061154a565b60405180910390fd5b61053c8282610ddc565b5050565b3373ffffffffffffffffffffffffffffffffffffffff16600560009054906101000a900473ffffffffffffffffffffffffffffffffffffffff1673ffffffffffffffffffffffffffffffffffffffff16146105d0576040517f08c379a00000000000000000000000000000000000000000000000000000000081526004016105c79061154a565b60405180910390fd5b33600560006101000a81548173ffffffffffffffffffffffffffffffffffffffff021916908373ffffffffffffffffffffffffffffffffffffffff1602179055507f60e854dee8a55570a6abfe04f9b753b9f0d8fc282b5c2b783219d8d5529c30883360405161064091906113ba565b60405180910390a1565b60008060008373ffffffffffffffffffffffffffffffffffffffff1673ffffffffffffffffffffffffffffffffffffffff168152602001908152602001600020549050919050565b600560009054906101000a900473ffffffffffffffffffffffffffffffffffffffff1681565b6060600480546106c790611444565b80601f01602080910402602001604051908101604052809291908181526020018280546106f390611444565b80156107405780601f1061071557610100808354040283529160200191610740565b820191906000526020600020905b81548152906001019060200180831161072357829003601f168201915b5050505050905090565b3373ffffffffffffffffffffffffffffffffffffffff16600560009054906101000a900473ffffffffffffffffffffffffffffffffffffffff1673ffffffffffffffffffffffffffffffffffffffff16146107da576040517f08c379a00000000000000000000000000000000000000000000000000000000081526004016107d19061154a565b60405180910390fd5b6107e48282610f32565b5050565b6000806107f3610909565b905060006108018286610882565b905083811015610846576040517f08c379a000000000000000000000000000000000000000000000000000000000815260040161083d906115dc565b60405180910390fd5b6108538286868403610911565b60019250505092915050565b60008061086a610909565b9050610877818585610b66565b600191505092915050565b6000600160008473ffffffffffffffffffffffffffffffffffffffff1673ffffffffffffffffffffffffffffffffffffffff16815260200190815260200160002060008373ffffffffffffffffffffffffffffffffffffffff1673ffffffffffffffffffffffffffffffffffffffff16815260200190815260200160002054905092915050565b600033905090565b600073ffffffffffffffffffffffffffffffffffffffff168373ffffffffffffffffffffffffffffffffffffffff1603610980576040517f08c379a00000000000000000000000000000000000000000000000000000000081526004016109779061166e565b60405180910390fd5b600073ffffffffffffffffffffffffffffffffffffffff168273ffffffffffffffffffffffffffffffffffffffff16036109ef576040517f08c379a00000000000000000000000000000000000000000000000000000000081526004016109e690611700565b60405180910390fd5b80600160008573ffffffffffffffffffffffffffffffffffffffff1673ffffffffffffffffffffffffffffffffffffffff16815260200190815260200160002060008473ffffffffffffffffffffffffffffffffffffffff1673ffffffffffffffffffffffffffffffffffffffff168152602001908152602001600020819055508173ffffffffffffffffffffffffffffffffffffffff168373ffffffffffffffffffffffffffffffffffffffff167f8c5be1e5ebec7d5bd14f71427d1e84f3dd0314c0f7b2291e5b200ac8c7c3b92583604051610acd91906112d9565b60405180910390a3505050565b6000610ae68484610882565b90507fffffffffffffffffffffffffffffffffffffffffffffffffffffffffffffffff8114610b605781811015610b52576040517f08c379a0000000000000000000000000000000000000000000000000000000008152600401610b499061176c565b60405180910390fd5b610b5f8484848403610911565b5b50505050565b600073ffffffffffffffffffffffffffffffffffffffff168373ffffffffffffffffffffffffffffffffffffffff1603610bd5576040517f08c379a0000000000000000000000000000000000000000000000000000000008152600401610bcc906117fe565b60405180910390fd5b600073ffffffffffffffffffffffffffffffffffffffff168273ffffffffffffffffffffffffffffffffffffffff1603610c44576040517f08c379a0000000000000000000000000000000000000000000000000000000008152600401610c3b90611890565b60405180910390fd5b610c4f8383836110ff565b60008060008573ffffffffffffffffffffffffffffffffffffffff1673ffffffffffffffffffffffffffffffffffffffff16815260200190815260200160002054905081811015610cd5576040517f08c379a0000000000000000000000000000000000000000000000000000000008152600401610ccc90611922565b60405180910390fd5b8181036000808673ffffffffffffffffffffffffffffffffffffffff1673ffffffffffffffffffffffffffffffffffffffff16815260200190815260200160002081905550816000808573ffffffffffffffffffffffffffffffffffffffff1673ffffffffffffffffffffffffffffffffffffffff168152602001908152602001600020600082825401925050819055508273ffffffffffffffffffffffffffffffffffffffff168473ffffffffffffffffffffffffffffffffffffffff167fddf252ad1be2c89b69c2b068fc378daa952ba7f163c4a11628f55a4df523b3ef84604051610dc391906112d9565b60405180910390a3610dd6848484611104565b50505050565b600073ffffffffffffffffffffffffffffffffffffffff168273ffffffffffffffffffffffffffffffffffffffff1603610e4b576040517f08c379a0000000000000000000000000000000000000000000000000000000008152600401610e429061198e565b60405180910390fd5b610e57600083836110ff565b8060026000828254610e6991906114a4565b92505081905550806000808473ffffffffffffffffffffffffffffffffffffffff1673ffffffffffffffffffffffffffffffffffffffff168152602001908152602001600020600082825401925050819055508173ffffffffffffffffffffffffffffffffffffffff16600073ffffffffffffffffffffffffffffffffffffffff167fddf252ad1be2c89b69c2b068fc378daa952ba7f163c4a11628f55a4df523b3ef83604051610f1a91906112d9565b60405180910390a3610f2e60008383611104565b5050565b600073ffffffffffffffffffffffffffffffffffffffff168273ffffffffffffffffffffffffffffffffffffffff1603610fa1576040517f08c379a0000000000000000000000000000000000000000000000000000000008152600401610f9890611a20565b60405180910390fd5b610fad826000836110ff565b60008060008473ffffffffffffffffffffffffffffffffffffffff1673ffffffffffffffffffffffffffffffffffffffff16815260200190815260200160002054905081811015611033576040517f08c379a000000000000000000000000000000000000000000000000000000000815260040161102a90611ab2565b60405180910390fd5b8181036000808573ffffffffffffffffffffffffffffffffffffffff1673ffffffffffffffffffffffffffffffffffffffff1681526020019081526020016000208190555081600260008282540392505081905550600073ffffffffffffffffffffffffffffffffffffffff168373ffffffffffffffffffffffffffffffffffffffff167fddf252ad1be2c89b69c2b068fc378daa952ba7f163c4a11628f55a4df523b3ef846040516110e691906112d9565b60405180910390a36110fa83600084611104565b505050565b505050565b505050565b600081519050919050565b600082825260208201905092915050565b60005b83811015611143578082015181840152602081019050611128565b60008484015250505050565b6000601f19601f8301169050919050565b600061116b82611109565b6111758185611114565b9350611185818560208601611125565b61118e8161114f565b840191505092915050565b600060208201905081810360008301526111b38184611160565b905092915050565b600080fd5b600073ffffffffffffffffffffffffffffffffffffffff82169050919050565b60006111eb826111c0565b9050919050565b6111fb816111e0565b811461120657600080fd5b50565b600081359050611218816111f2565b92915050565b6000819050919050565b6112318161121e565b811461123c57600080fd5b50565b60008135905061124e81611228565b92915050565b6000806040838503121561126b5761126a6111bb565b5b600061127985828601611209565b925050602061128a8582860161123f565b9150509250929050565b60008115159050919050565b6112a981611294565b82525050565b60006020820190506112c460008301846112a0565b92915050565b6112d38161121e565b82525050565b60006020820190506112ee60008301846112ca565b92915050565b60008060006060848603121561130d5761130c6111bb565b5b600061131b86828701611209565b935050602061132c86828701611209565b925050604061133d8682870161123f565b9150509250925092565b600060ff82169050919050565b61135d81611347565b82525050565b60006020820190506113786000830184611354565b92915050565b600060208284031215611394576113936111bb565b5b60006113a284828501611209565b91505092915050565b6113b4816111e0565b82525050565b60006020820190506113cf60008301846113ab565b92915050565b600080604083850312156113ec576113eb6111bb565b5b60006113fa85828601611209565b925050602061140b85828601611209565b9150509250929050565b7f4e487b7100000000000000000000000000000000000000000000000000000000600052602260045260246000fd5b6000600282049050600182168061145c57607f821691505b60208210810361146f5761146e611415565b5b50919050565b7f4e487b7100000000000000000000000000000000000000000000000000000000600052601160045260246000fd5b60006114af8261121e565b91506114ba8361121e565b92508282019050808211156114d2576114d1611475565b5b92915050565b7f6f6e6c794f776e65723a2063616c6c6572206973206e6f7420746865206f776e60008201527f6572000000000000000000000000000000000000000000000000000000000000602082015250565b6000611534602283611114565b915061153f826114d8565b604082019050919050565b6000602082019050818103600083015261156381611527565b9050919050565b7f45524332303a2064656372656173656420616c6c6f77616e63652062656c6f7760008201527f207a65726f000000000000000000000000000000000000000000000000000000602082015250565b60006115c6602583611114565b91506115d18261156a565b604082019050919050565b600060208201905081810360008301526115f5816115b9565b9050919050565b7f45524332303a20617070726f76652066726f6d20746865207a65726f2061646460008201527f7265737300000000000000000000000000000000000000000000000000000000602082015250565b6000611658602483611114565b9150611663826115fc565b604082019050919050565b600060208201905081810360008301526116878161164b565b9050919050565b7f45524332303a20617070726f766520746f20746865207a65726f20616464726560008201527f7373000000000000000000000000000000000000000000000000000000000000602082015250565b60006116ea602283611114565b91506116f58261168e565b604082019050919050565b60006020820190508181036000830152611719816116dd565b9050919050565b7f45524332303a20696e73756666696369656e7420616c6c6f77616e6365000000600082015250565b6000611756601d83611114565b915061176182611720565b602082019050919050565b6000602082019050818103600083015261178581611749565b9050919050565b7f45524332303a207472616e736665722066726f6d20746865207a65726f20616460008201527f6472657373000000000000000000000000000000000000000000000000000000602082015250565b60006117e8602583611114565b91506117f38261178c565b604082019050919050565b60006020820190508181036000830152611817816117db565b9050919050565b7f45524332303a207472616e7366657220746f20746865207a65726f206164647260008201527f6573730000000000000000000000000000000000000000000000000000000000602082015250565b600061187a602383611114565b91506118858261181e565b604082019050919050565b600060208201905081810360008301526118a98161186d565b9050919050565b7f45524332303a207472616e7366657220616d6f756e742065786365656473206260008201527f616c616e63650000000000000000000000000000000000000000000000000000602082015250565b600061190c602683611114565b9150611917826118b0565b604082019050919050565b6000602082019050818103600083015261193b816118ff565b9050919050565b7f45524332303a206d696e7420746f20746865207a65726f206164647265737300600082015250565b6000611978601f83611114565b915061198382611942565b602082019050919050565b600060208201905081810360008301526119a78161196b565b9050919050565b7f45524332303a206275726e2066726f6d20746865207a65726f2061646472657360008201527f7300000000000000000000000000000000000000000000000000000000000000602082015250565b6000611a0a602183611114565b9150611a15826119ae565b604082019050919050565b60006020820190508181036000830152611a39816119fd565b9050919050565b7f45524332303a206275726e20616d6f756e7420657863656564732062616c616e60008201527f6365000000000000000000000000000000000000000000000000000000000000602082015250565b6000611a9c602283611114565b9150611aa782611a40565b604082019050919050565b60006020820190508181036000830152611acb81611a8f565b905091905056fea26469706673582212200cf63996d98dece0942ac819665a4aca6e5f1ba8954e6d1c67bc2ef5b9e6049f64736f6c63430008120033",
  "linkReferences": {},
  "deployedLinkReferences": {}
}