{
  "_format": "hh-sol-artifact-1",
  "contractName": "MerkleFactory",
  "sourceName": "contracts/MerkleFactory.sol",
  "abi": [
    {
      "inputs": [
        {
          "internalType": "address",
          "name": "_weth",
          "type": "address"
        }
      ],
      "stateMutability": "nonpayable",
      "type": "constructor"
    },
    {
      "anonymous": false,
      "inputs": [
        {
          "indexed": true,
          "internalType": "address",
          "name": "previousOwner",
          "type": "address"
        },
        {
          "indexed": true,
          "internalType": "address",
          "name": "newOwner",
          "type": "address"
        }
      ],
      "name": "OwnershipTransferred",
      "type": "event"
    },
    {
      "inputs": [
        {
          "internalType": "address",
          "name": "",
          "type": "address"
        }
      ],
      "name": "airdropUserList",
      "outputs": [
        {
          "internalType": "string",
          "name": "",
          "type": "string"
        }
      ],
      "stateMutability": "view",
      "type": "function"
    },
    {
      "inputs": [
        {
          "internalType": "bool",
          "name": "_isPayingInToken",
          "type": "bool"
        },
        {
          "internalType": "address",
          "name": "_token",
          "type": "address"
        },
        {
          "internalType": "uint256",
          "name": "_amount",
          "type": "uint256"
        },
        {
          "internalType": "uint256",
          "name": "_startDate",
          "type": "uint256"
        },
        {
          "internalType": "uint256",
          "name": "_endDate",
          "type": "uint256"
        },
        {
          "internalType": "string",
          "name": "_url",
          "type": "string"
        },
        {
          "internalType": "bytes32",
          "name": "_merkleRoot",
          "type": "bytes32"
        }
      ],
      "name": "createNewAirdrop",
      "outputs": [],
      "stateMutability": "payable",
      "type": "function"
    },
    {
      "inputs": [],
      "name": "feeAddress",
      "outputs": [
        {
          "internalType": "address payable",
          "name": "",
          "type": "address"
        }
      ],
      "stateMutability": "view",
      "type": "function"
    },
    {
      "inputs": [],
      "name": "feeValue",
      "outputs": [
        {
          "internalType": "uint256",
          "name": "",
          "type": "uint256"
        }
      ],
      "stateMutability": "view",
      "type": "function"
    },
    {
      "inputs": [],
      "name": "getAllAirdrops",
      "outputs": [
        {
          "internalType": "address[]",
          "name": "",
          "type": "address[]"
        }
      ],
      "stateMutability": "view",
      "type": "function"
    },
    {
      "inputs": [
        {
          "internalType": "address",
          "name": "_creator",
          "type": "address"
        }
      ],
      "name": "getAllCreatorAirdrops",
      "outputs": [
        {
          "internalType": "address[]",
          "name": "",
          "type": "address[]"
        }
      ],
      "stateMutability": "view",
      "type": "function"
    },
    {
      "inputs": [
        {
          "internalType": "address",
          "name": "_token",
          "type": "address"
        }
      ],
      "name": "getAllTokenAirdrops",
      "outputs": [
        {
          "internalType": "address[]",
          "name": "",
          "type": "address[]"
        }
      ],
      "stateMutability": "view",
      "type": "function"
    },
    {
      "inputs": [],
      "name": "maxClaimPeriod",
      "outputs": [
        {
          "internalType": "uint256",
          "name": "",
          "type": "uint256"
        }
      ],
      "stateMutability": "view",
      "type": "function"
    },
    {
      "inputs": [],
      "name": "minClaimPeriod",
      "outputs": [
        {
          "internalType": "uint256",
          "name": "",
          "type": "uint256"
        }
      ],
      "stateMutability": "view",
      "type": "function"
    },
    {
      "inputs": [],
      "name": "owner",
      "outputs": [
        {
          "internalType": "address",
          "name": "",
          "type": "address"
        }
      ],
      "stateMutability": "view",
      "type": "function"
    },
    {
      "inputs": [],
      "name": "renounceOwnership",
      "outputs": [],
      "stateMutability": "nonpayable",
      "type": "function"
    },
    {
      "inputs": [
        {
          "internalType": "uint256",
          "name": "min",
          "type": "uint256"
        },
        {
          "internalType": "uint256",
          "name": "max",
          "type": "uint256"
        }
      ],
      "name": "setClaimPeriod",
      "outputs": [],
      "stateMutability": "nonpayable",
      "type": "function"
    },
    {
      "inputs": [
        {
          "internalType": "address payable",
          "name": "_newAddress",
          "type": "address"
        },
        {
          "internalType": "uint256",
          "name": "_newFees",
          "type": "uint256"
        }
      ],
      "name": "setFees",
      "outputs": [],
      "stateMutability": "nonpayable",
      "type": "function"
    },
    {
      "inputs": [
        {
          "internalType": "address",
          "name": "newOwner",
          "type": "address"
        }
      ],
      "name": "transferOwnership",
      "outputs": [],
      "stateMutability": "nonpayable",
      "type": "function"
    }
  ],
  "bytecode": "0x60a0604052662386f26fc10000600555621275006007556276a7006008553480156200002a57600080fd5b5060405162003a9338038062003a93833981810160405281019062000050919062000222565b6200007062000064620000ec60201b60201c565b620000f460201b60201c565b8073ffffffffffffffffffffffffffffffffffffffff1660808173ffffffffffffffffffffffffffffffffffffffff168152505033600660006101000a81548173ffffffffffffffffffffffffffffffffffffffff021916908373ffffffffffffffffffffffffffffffffffffffff1602179055505062000254565b600033905090565b60008060009054906101000a900473ffffffffffffffffffffffffffffffffffffffff169050816000806101000a81548173ffffffffffffffffffffffffffffffffffffffff021916908373ffffffffffffffffffffffffffffffffffffffff1602179055508173ffffffffffffffffffffffffffffffffffffffff168173ffffffffffffffffffffffffffffffffffffffff167f8be0079c531659141344cd1fd0a4f28419497f9722a3daafe3b4186f6b6457e060405160405180910390a35050565b600080fd5b600073ffffffffffffffffffffffffffffffffffffffff82169050919050565b6000620001ea82620001bd565b9050919050565b620001fc81620001dd565b81146200020857600080fd5b50565b6000815190506200021c81620001f1565b92915050565b6000602082840312156200023b576200023a620001b8565b5b60006200024b848285016200020b565b91505092915050565b60805161382362000270600039600061071501526138236000f3fe608060405260043610620000f25760003560e01c806378563a04116200008b578063d7444eeb1162000061578063d7444eeb14620002d7578063df6ec1bd1462000307578063e887673d1462000335578063f2fde38b146200037957620000f2565b806378563a0414620002575780638da5cb5b14620002775780639fddaa9314620002a757620000f2565b80634127535811620000cd5780634127535814620001af5780635e5c6ada14620001df5780636ae3484e146200020d578063715018a6146200023d57620000f2565b806306d9c56914620000f7578063191d6163146200013b57806338c7c2bc146200016b575b600080fd5b3480156200010457600080fd5b506200012360048036038101906200011d919062000ed6565b620003a7565b60405162000132919062000fa2565b60405180910390f35b3480156200014857600080fd5b50620001536200044f565b60405162000162919062000fe1565b60405180910390f35b3480156200017857600080fd5b5062000197600480360381019062000191919062000ed6565b62000455565b604051620001a69190620010cc565b60405180910390f35b348015620001bc57600080fd5b50620001c762000524565b604051620001d6919062001115565b60405180910390f35b348015620001ec57600080fd5b506200020b600480360381019062000205919062001194565b6200054a565b005b3480156200021a57600080fd5b5062000225620005a0565b60405162000234919062000fe1565b60405180910390f35b3480156200024a57600080fd5b5062000255620005a6565b005b6200027560048036038101906200026f9190620013a4565b620005be565b005b3480156200028457600080fd5b506200028f62000aca565b6040516200029e919062001487565b60405180910390f35b348015620002b457600080fd5b50620002bf62000af3565b604051620002ce919062000fe1565b60405180910390f35b348015620002e457600080fd5b50620002ef62000af9565b604051620002fe9190620010cc565b60405180910390f35b3480156200031457600080fd5b506200033360048036038101906200032d9190620014a4565b62000b89565b005b3480156200034257600080fd5b506200036160048036038101906200035b919062000ed6565b62000ba5565b604051620003709190620010cc565b60405180910390f35b3480156200038657600080fd5b50620003a560048036038101906200039f919062000ed6565b62000c74565b005b60036020528060005260406000206000915090508054620003c8906200151a565b80601f0160208091040260200160405190810160405280929190818152602001828054620003f6906200151a565b8015620004475780601f106200041b5761010080835404028352916020019162000447565b820191906000526020600020905b8154815290600101906020018083116200042957829003601f168201915b505050505081565b60075481565b6060600160008373ffffffffffffffffffffffffffffffffffffffff1673ffffffffffffffffffffffffffffffffffffffff1681526020019081526020016000208054806020026020016040519081016040528092919081815260200182805480156200051857602002820191906000526020600020905b8160009054906101000a900473ffffffffffffffffffffffffffffffffffffffff1673ffffffffffffffffffffffffffffffffffffffff1681526020019060010190808311620004cd575b50505050509050919050565b600660009054906101000a900473ffffffffffffffffffffffffffffffffffffffff1681565b6200055462000cfe565b81600660006101000a81548173ffffffffffffffffffffffffffffffffffffffff021916908373ffffffffffffffffffffffffffffffffffffffff160217905550806005819055505050565b60085481565b620005b062000cfe565b620005bc600062000d83565b565b60008484620005ce91906200157e565b90506007548110158015620005e557506008548111155b62000627576040517f08c379a00000000000000000000000000000000000000000000000000000000081526004016200061e906200162f565b60405180910390fd5b600086116200066d576040517f08c379a00000000000000000000000000000000000000000000000000000000081526004016200066490620016a1565b60405180910390fd5b600087336200067b62000aca565b8888876040516200068c9062000e4f565b6200069d96959493929190620016d4565b604051809103906000f080158015620006ba573d6000803e3d6000fd5b50905083600360008373ffffffffffffffffffffffffffffffffffffffff1673ffffffffffffffffffffffffffffffffffffffff16815260200190815260200160002090816200070b919062001913565b508815620007e3577f000000000000000000000000000000000000000000000000000000000000000073ffffffffffffffffffffffffffffffffffffffff166323b872dd33600660009054906101000a900473ffffffffffffffffffffffffffffffffffffffff166005546040518463ffffffff1660e01b8152600401620007969392919062001a5b565b6020604051808303816000875af1158015620007b6573d6000803e3d6000fd5b505050506040513d601f19601f82011682018060405250810190620007dc919062001aaf565b5062000896565b6005543410156200082b576040517f08c379a0000000000000000000000000000000000000000000000000000000008152600401620008229062001b31565b60405180910390fd5b600660009054906101000a900473ffffffffffffffffffffffffffffffffffffffff1673ffffffffffffffffffffffffffffffffffffffff166108fc349081150290604051600060405180830381858888f1935050505015801562000894573d6000803e3d6000fd5b505b6004819080600181540180825580915050600190039060005260206000200160009091909190916101000a81548173ffffffffffffffffffffffffffffffffffffffff021916908373ffffffffffffffffffffffffffffffffffffffff160217905550600160008973ffffffffffffffffffffffffffffffffffffffff1673ffffffffffffffffffffffffffffffffffffffff168152602001908152602001600020819080600181540180825580915050600190039060005260206000200160009091909190916101000a81548173ffffffffffffffffffffffffffffffffffffffff021916908373ffffffffffffffffffffffffffffffffffffffff160217905550600260003373ffffffffffffffffffffffffffffffffffffffff1673ffffffffffffffffffffffffffffffffffffffff168152602001908152602001600020819080600181540180825580915050600190039060005260206000200160009091909190916101000a81548173ffffffffffffffffffffffffffffffffffffffff021916908373ffffffffffffffffffffffffffffffffffffffff1602179055508773ffffffffffffffffffffffffffffffffffffffff166323b872dd33838a6040518463ffffffff1660e01b815260040162000a789392919062001b53565b6020604051808303816000875af115801562000a98573d6000803e3d6000fd5b505050506040513d601f19601f8201168201806040525081019062000abe919062001aaf565b50505050505050505050565b60008060009054906101000a900473ffffffffffffffffffffffffffffffffffffffff16905090565b60055481565b6060600480548060200260200160405190810160405280929190818152602001828054801562000b7f57602002820191906000526020600020905b8160009054906101000a900473ffffffffffffffffffffffffffffffffffffffff1673ffffffffffffffffffffffffffffffffffffffff168152602001906001019080831162000b34575b5050505050905090565b62000b9362000cfe565b81600781905550806008819055505050565b6060600260008373ffffffffffffffffffffffffffffffffffffffff1673ffffffffffffffffffffffffffffffffffffffff16815260200190815260200160002080548060200260200160405190810160405280929190818152602001828054801562000c6857602002820191906000526020600020905b8160009054906101000a900473ffffffffffffffffffffffffffffffffffffffff1673ffffffffffffffffffffffffffffffffffffffff168152602001906001019080831162000c1d575b50505050509050919050565b62000c7e62000cfe565b600073ffffffffffffffffffffffffffffffffffffffff168173ffffffffffffffffffffffffffffffffffffffff160362000cf0576040517f08c379a000000000000000000000000000000000000000000000000000000000815260040162000ce79062001c06565b60405180910390fd5b62000cfb8162000d83565b50565b62000d0862000e47565b73ffffffffffffffffffffffffffffffffffffffff1662000d2862000aca565b73ffffffffffffffffffffffffffffffffffffffff161462000d81576040517f08c379a000000000000000000000000000000000000000000000000000000000815260040162000d789062001c78565b60405180910390fd5b565b60008060009054906101000a900473ffffffffffffffffffffffffffffffffffffffff169050816000806101000a81548173ffffffffffffffffffffffffffffffffffffffff021916908373ffffffffffffffffffffffffffffffffffffffff1602179055508173ffffffffffffffffffffffffffffffffffffffff168173ffffffffffffffffffffffffffffffffffffffff167f8be0079c531659141344cd1fd0a4f28419497f9722a3daafe3b4186f6b6457e060405160405180910390a35050565b600033905090565b611b538062001c9b83390190565b6000604051905090565b600080fd5b600080fd5b600073ffffffffffffffffffffffffffffffffffffffff82169050919050565b600062000e9e8262000e71565b9050919050565b62000eb08162000e91565b811462000ebc57600080fd5b50565b60008135905062000ed08162000ea5565b92915050565b60006020828403121562000eef5762000eee62000e67565b5b600062000eff8482850162000ebf565b91505092915050565b600081519050919050565b600082825260208201905092915050565b60005b8381101562000f4457808201518184015260208101905062000f27565b60008484015250505050565b6000601f19601f8301169050919050565b600062000f6e8262000f08565b62000f7a818562000f13565b935062000f8c81856020860162000f24565b62000f978162000f50565b840191505092915050565b6000602082019050818103600083015262000fbe818462000f61565b905092915050565b6000819050919050565b62000fdb8162000fc6565b82525050565b600060208201905062000ff8600083018462000fd0565b92915050565b600081519050919050565b600082825260208201905092915050565b6000819050602082019050919050565b620010358162000e91565b82525050565b60006200104983836200102a565b60208301905092915050565b6000602082019050919050565b60006200106f8262000ffe565b6200107b818562001009565b935062001088836200101a565b8060005b83811015620010bf578151620010a388826200103b565b9750620010b08362001055565b9250506001810190506200108c565b5085935050505092915050565b60006020820190508181036000830152620010e8818462001062565b905092915050565b6000620010fd8262000e71565b9050919050565b6200110f81620010f0565b82525050565b60006020820190506200112c600083018462001104565b92915050565b6200113d81620010f0565b81146200114957600080fd5b50565b6000813590506200115d8162001132565b92915050565b6200116e8162000fc6565b81146200117a57600080fd5b50565b6000813590506200118e8162001163565b92915050565b60008060408385031215620011ae57620011ad62000e67565b5b6000620011be858286016200114c565b9250506020620011d1858286016200117d565b9150509250929050565b60008115159050919050565b620011f281620011db565b8114620011fe57600080fd5b50565b6000813590506200121281620011e7565b92915050565b600080fd5b600080fd5b7f4e487b7100000000000000000000000000000000000000000000000000000000600052604160045260246000fd5b6200125c8262000f50565b810181811067ffffffffffffffff821117156200127e576200127d62001222565b5b80604052505050565b60006200129362000e5d565b9050620012a1828262001251565b919050565b600067ffffffffffffffff821115620012c457620012c362001222565b5b620012cf8262000f50565b9050602081019050919050565b82818337600083830152505050565b600062001302620012fc84620012a6565b62001287565b9050828152602081018484840111156200132157620013206200121d565b5b6200132e848285620012dc565b509392505050565b600082601f8301126200134e576200134d62001218565b5b813562001360848260208601620012eb565b91505092915050565b6000819050919050565b6200137e8162001369565b81146200138a57600080fd5b50565b6000813590506200139e8162001373565b92915050565b600080600080600080600060e0888a031215620013c657620013c562000e67565b5b6000620013d68a828b0162001201565b9750506020620013e98a828b0162000ebf565b9650506040620013fc8a828b016200117d565b95505060606200140f8a828b016200117d565b9450506080620014228a828b016200117d565b93505060a088013567ffffffffffffffff81111562001446576200144562000e6c565b5b620014548a828b0162001336565b92505060c0620014678a828b016200138d565b91505092959891949750929550565b620014818162000e91565b82525050565b60006020820190506200149e600083018462001476565b92915050565b60008060408385031215620014be57620014bd62000e67565b5b6000620014ce858286016200117d565b9250506020620014e1858286016200117d565b9150509250929050565b7f4e487b7100000000000000000000000000000000000000000000000000000000600052602260045260246000fd5b600060028204905060018216806200153357607f821691505b602082108103620015495762001548620014eb565b5b50919050565b7f4e487b7100000000000000000000000000000000000000000000000000000000600052601160045260246000fd5b60006200158b8262000fc6565b9150620015988362000fc6565b9250828203905081811115620015b357620015b26200154f565b5b92915050565b7f496e76616c6964206475726174696f6e20746f20636c61696d2061697264726f60008201527f7000000000000000000000000000000000000000000000000000000000000000602082015250565b60006200161760218362000f13565b91506200162482620015b9565b604082019050919050565b600060208201905081810360008301526200164a8162001608565b9050919050565b7f5a65726f20616d6f756e74000000000000000000000000000000000000000000600082015250565b600062001689600b8362000f13565b9150620016968262001651565b602082019050919050565b60006020820190508181036000830152620016bc816200167a565b9050919050565b620016ce8162001369565b82525050565b600060c082019050620016eb600083018962001476565b620016fa602083018862001476565b62001709604083018762001476565b62001718606083018662000fd0565b62001727608083018562000fd0565b6200173660a0830184620016c3565b979650505050505050565b60008190508160005260206000209050919050565b60006020601f8301049050919050565b600082821b905092915050565b600060088302620017a57fffffffffffffffffffffffffffffffffffffffffffffffffffffffffffffffff8262001766565b620017b1868362001766565b95508019841693508086168417925050509392505050565b6000819050919050565b6000620017f4620017ee620017e88462000fc6565b620017c9565b62000fc6565b9050919050565b6000819050919050565b6200181083620017d3565b620018286200181f82620017fb565b84845462001773565b825550505050565b600090565b6200183f62001830565b6200184c81848462001805565b505050565b5b8181101562001874576200186860008262001835565b60018101905062001852565b5050565b601f821115620018c3576200188d8162001741565b620018988462001756565b81016020851015620018a8578190505b620018c0620018b78562001756565b83018262001851565b50505b505050565b600082821c905092915050565b6000620018e860001984600802620018c8565b1980831691505092915050565b6000620019038383620018d5565b9150826002028217905092915050565b6200191e8262000f08565b67ffffffffffffffff8111156200193a576200193962001222565b5b6200194682546200151a565b6200195382828562001878565b600060209050601f8311600181146200198b576000841562001976578287015190505b620019828582620018f5565b865550620019f2565b601f1984166200199b8662001741565b60005b82811015620019c5578489015182556001820191506020850194506020810190506200199e565b86831015620019e55784890151620019e1601f891682620018d5565b8355505b6001600288020188555050505b505050505050565b600062001a1b62001a1562001a0f8462000e71565b620017c9565b62000e71565b9050919050565b600062001a2f82620019fa565b9050919050565b600062001a438262001a22565b9050919050565b62001a558162001a36565b82525050565b600060608201905062001a72600083018662001476565b62001a81602083018562001a4a565b62001a90604083018462000fd0565b949350505050565b60008151905062001aa981620011e7565b92915050565b60006020828403121562001ac85762001ac762000e67565b5b600062001ad88482850162001a98565b91505092915050565b7f46656573206e6f74207061696400000000000000000000000000000000000000600082015250565b600062001b19600d8362000f13565b915062001b268262001ae1565b602082019050919050565b6000602082019050818103600083015262001b4c8162001b0a565b9050919050565b600060608201905062001b6a600083018662001476565b62001b79602083018562001476565b62001b88604083018462000fd0565b949350505050565b7f4f776e61626c653a206e6577206f776e657220697320746865207a65726f206160008201527f6464726573730000000000000000000000000000000000000000000000000000602082015250565b600062001bee60268362000f13565b915062001bfb8262001b90565b604082019050919050565b6000602082019050818103600083015262001c218162001bdf565b9050919050565b7f4f776e61626c653a2063616c6c6572206973206e6f7420746865206f776e6572600082015250565b600062001c6060208362000f13565b915062001c6d8262001c28565b602082019050919050565b6000602082019050818103600083015262001c938162001c51565b905091905056fe60c06040523480156200001157600080fd5b5060405162001b5338038062001b538339818101604052810190620000379190620001ef565b80608081815250508573ffffffffffffffffffffffffffffffffffffffff1660a08173ffffffffffffffffffffffffffffffffffffffff1681525050826004819055508160058190555084600660006101000a81548173ffffffffffffffffffffffffffffffffffffffff021916908373ffffffffffffffffffffffffffffffffffffffff16021790555083600760006101000a81548173ffffffffffffffffffffffffffffffffffffffff021916908373ffffffffffffffffffffffffffffffffffffffff1602179055505050505050506200028b565b600080fd5b600073ffffffffffffffffffffffffffffffffffffffff82169050919050565b6000620001418262000114565b9050919050565b620001538162000134565b81146200015f57600080fd5b50565b600081519050620001738162000148565b92915050565b6000819050919050565b6200018e8162000179565b81146200019a57600080fd5b50565b600081519050620001ae8162000183565b92915050565b6000819050919050565b620001c981620001b4565b8114620001d557600080fd5b50565b600081519050620001e981620001be565b92915050565b60008060008060008060c087890312156200020f576200020e6200010f565b5b60006200021f89828a0162000162565b96505060206200023289828a0162000162565b95505060406200024589828a0162000162565b94505060606200025889828a016200019d565b93505060806200026b89828a016200019d565b92505060a06200027e89828a01620001d8565b9150509295509295509295565b60805160a051611878620002db600039600081816103d2015281816104a4015281816107930152818161086201528181610b1b0152610bee01526000818161057c015261099c01526118786000f3fe608060405234801561001057600080fd5b50600436106100b45760003560e01c8063a9dc9ecf11610071578063a9dc9ecf1461018d578063b0d36e25146101a9578063c202e732146101d9578063c24a0f8b14610209578063c41d927214610227578063dc6d144614610257576100b4565b8063082b1d1f146100b95780630b97bc86146100d55780632eb4a7ab146100f35780632f52ebb7146101115780633b7fcdca1461012d578063a06bf4bd1461015d575b600080fd5b6100d360048036038101906100ce9190610efc565b610287565b005b6100dd610574565b6040516100ea9190610f42565b60405180910390f35b6100fb61057a565b6040516101089190610f76565b60405180910390f35b61012b60048036038101906101269190611022565b61059e565b005b610147600480360381019061014291906110e0565b610905565b6040516101549190611128565b60405180910390f35b61017760048036038101906101729190611143565b610925565b6040516101849190611128565b60405180910390f35b6101a760048036038101906101a29190610efc565b6109d0565b005b6101c360048036038101906101be9190610efc565b610cbe565b6040516101d09190611128565b60405180910390f35b6101f360048036038101906101ee9190610efc565b610cde565b6040516102009190611128565b60405180910390f35b610211610d52565b60405161021e9190610f42565b60405180910390f35b610241600480360381019061023c9190610efc565b610d58565b60405161024e9190611128565b60405180910390f35b610271600480360381019061026c9190610efc565b610d78565b60405161027e9190611128565b60405180910390f35b600660009054906101000a900473ffffffffffffffffffffffffffffffffffffffff1673ffffffffffffffffffffffffffffffffffffffff163373ffffffffffffffffffffffffffffffffffffffff1614610317576040517f08c379a000000000000000000000000000000000000000000000000000000000815260040161030e90611214565b60405180910390fd5b61032081610cde565b61035f576040517f08c379a000000000000000000000000000000000000000000000000000000000815260040161035690611280565b60405180910390fd5b600160008260ff1660ff16815260200190815260200160002060009054906101000a900460ff16156103c6576040517f08c379a00000000000000000000000000000000000000000000000000000000081526004016103bd906112ec565b60405180910390fd5b600060035403610471577f000000000000000000000000000000000000000000000000000000000000000073ffffffffffffffffffffffffffffffffffffffff166370a08231306040518263ffffffff1660e01b8152600401610429919061131b565b602060405180830381865afa158015610446573d6000803e3d6000fd5b505050506040513d601f19601f8201168201806040525081019061046a919061134b565b6003819055505b60018060008360ff1660ff16815260200190815260200160002060006101000a81548160ff0219169083151502179055507f000000000000000000000000000000000000000000000000000000000000000073ffffffffffffffffffffffffffffffffffffffff1663a9059cbb600660009054906101000a900473ffffffffffffffffffffffffffffffffffffffff16600460035461051091906113d6565b6040518363ffffffff1660e01b815260040161052d929190611407565b6020604051808303816000875af115801561054c573d6000803e3d6000fd5b505050506040513d601f19601f82011682018060405250810190610570919061145c565b5050565b60045481565b7f000000000000000000000000000000000000000000000000000000000000000081565b60045442101580156105b257506005544211155b6105f1576040517f08c379a00000000000000000000000000000000000000000000000000000000081526004016105e8906114d5565b60405180910390fd5b6105fd33848484610925565b61063c576040517f08c379a000000000000000000000000000000000000000000000000000000000815260040161063390611541565b60405180910390fd5b6000803373ffffffffffffffffffffffffffffffffffffffff1673ffffffffffffffffffffffffffffffffffffffff16815260200190815260200160002060009054906101000a900460ff16156106c8576040517f08c379a00000000000000000000000000000000000000000000000000000000081526004016106bf906112ec565b60405180910390fd5b60016000803373ffffffffffffffffffffffffffffffffffffffff1673ffffffffffffffffffffffffffffffffffffffff16815260200190815260200160002060006101000a81548160ff0219169083151502179055503373ffffffffffffffffffffffffffffffffffffffff167f47cee97cb7acd717b3c0aa1435d004cd5b3c8c57d70dbceb4e4458bbd60e39d4846040516107659190610f42565b60405180910390a260006103e8600563ffffffff16856107859190611561565b61078f91906113d6565b90507f000000000000000000000000000000000000000000000000000000000000000073ffffffffffffffffffffffffffffffffffffffff1663a9059cbb600760009054906101000a900473ffffffffffffffffffffffffffffffffffffffff16836040518363ffffffff1660e01b815260040161080e929190611407565b6020604051808303816000875af115801561082d573d6000803e3d6000fd5b505050506040513d601f19601f82011682018060405250810190610851919061145c565b50808461085e91906115a3565b93507f000000000000000000000000000000000000000000000000000000000000000073ffffffffffffffffffffffffffffffffffffffff1663a9059cbb33866040518363ffffffff1660e01b81526004016108bb929190611407565b6020604051808303816000875af11580156108da573d6000803e3d6000fd5b505050506040513d601f19601f820116820180604052508101906108fe919061145c565b5050505050565b60006020528060005260406000206000915054906101000a900460ff1681565b600080858560405160200161093b929190611640565b60405160208183030381529060405280519060200120905060006109c1858580806020026020016040519081016040528093929190818152602001838360200280828437600081840152601f19601f820116905080830192505050505050507f000000000000000000000000000000000000000000000000000000000000000084610e0a565b90508092505050949350505050565b600760009054906101000a900473ffffffffffffffffffffffffffffffffffffffff1673ffffffffffffffffffffffffffffffffffffffff163373ffffffffffffffffffffffffffffffffffffffff1614610a60576040517f08c379a0000000000000000000000000000000000000000000000000000000008152600401610a57906116b8565b60405180910390fd5b610a6981610cde565b610aa8576040517f08c379a0000000000000000000000000000000000000000000000000000000008152600401610a9f90611280565b60405180910390fd5b600260008260ff1660ff16815260200190815260200160002060009054906101000a900460ff1615610b0f576040517f08c379a0000000000000000000000000000000000000000000000000000000008152600401610b06906112ec565b60405180910390fd5b600060035403610bba577f000000000000000000000000000000000000000000000000000000000000000073ffffffffffffffffffffffffffffffffffffffff166370a08231306040518263ffffffff1660e01b8152600401610b72919061131b565b602060405180830381865afa158015610b8f573d6000803e3d6000fd5b505050506040513d601f19601f82011682018060405250810190610bb3919061134b565b6003819055505b6001600260008360ff1660ff16815260200190815260200160002060006101000a81548160ff0219169083151502179055507f000000000000000000000000000000000000000000000000000000000000000073ffffffffffffffffffffffffffffffffffffffff1663a9059cbb600760009054906101000a900473ffffffffffffffffffffffffffffffffffffffff166004600354610c5a91906113d6565b6040518363ffffffff1660e01b8152600401610c77929190611407565b6020604051808303816000875af1158015610c96573d6000803e3d6000fd5b505050506040513d601f19601f82011682018060405250810190610cba919061145c565b5050565b60026020528060005260406000206000915054906101000a900460ff1681565b600080620151806001846002610cf491906116d8565b610cfe9190611715565b60ff16610d0b919061175a565b63ffffffff16600554610d1e9190611797565b905060006201518063ffffffff1682610d379190611797565b9050814210158015610d495750804211155b92505050919050565b60055481565b60016020528060005260406000206000915054906101000a900460ff1681565b6000806201518063ffffffff16620151806001856002610d9891906116d8565b610da29190611715565b60ff16610daf919061175a565b63ffffffff16600554610dc29190611797565b610dcc9190611797565b9050804210158015610e025750600160008460ff1660ff16815260200190815260200160002060009054906101000a900460ff16155b915050919050565b600082610e178584610e21565b1490509392505050565b60008082905060005b8451811015610e6c57610e5782868381518110610e4a57610e496117cb565b5b6020026020010151610e77565b91508080610e64906117fa565b915050610e2a565b508091505092915050565b6000818310610e8f57610e8a8284610ea2565b610e9a565b610e998383610ea2565b5b905092915050565b600082600052816020526040600020905092915050565b600080fd5b600080fd5b600060ff82169050919050565b610ed981610ec3565b8114610ee457600080fd5b50565b600081359050610ef681610ed0565b92915050565b600060208284031215610f1257610f11610eb9565b5b6000610f2084828501610ee7565b91505092915050565b6000819050919050565b610f3c81610f29565b82525050565b6000602082019050610f576000830184610f33565b92915050565b6000819050919050565b610f7081610f5d565b82525050565b6000602082019050610f8b6000830184610f67565b92915050565b610f9a81610f29565b8114610fa557600080fd5b50565b600081359050610fb781610f91565b92915050565b600080fd5b600080fd5b600080fd5b60008083601f840112610fe257610fe1610fbd565b5b8235905067ffffffffffffffff811115610fff57610ffe610fc2565b5b60208301915083602082028301111561101b5761101a610fc7565b5b9250929050565b60008060006040848603121561103b5761103a610eb9565b5b600061104986828701610fa8565b935050602084013567ffffffffffffffff81111561106a57611069610ebe565b5b61107686828701610fcc565b92509250509250925092565b600073ffffffffffffffffffffffffffffffffffffffff82169050919050565b60006110ad82611082565b9050919050565b6110bd816110a2565b81146110c857600080fd5b50565b6000813590506110da816110b4565b92915050565b6000602082840312156110f6576110f5610eb9565b5b6000611104848285016110cb565b91505092915050565b60008115159050919050565b6111228161110d565b82525050565b600060208201905061113d6000830184611119565b92915050565b6000806000806060858703121561115d5761115c610eb9565b5b600061116b878288016110cb565b945050602061117c87828801610fa8565b935050604085013567ffffffffffffffff81111561119d5761119c610ebe565b5b6111a987828801610fcc565b925092505092959194509250565b600082825260208201905092915050565b7f4e6f742063726561746f72000000000000000000000000000000000000000000600082015250565b60006111fe600b836111b7565b9150611209826111c8565b602082019050919050565b6000602082019050818103600083015261122d816111f1565b9050919050565b7f4e6f7420696e20636c61696d20706572696f6400000000000000000000000000600082015250565b600061126a6013836111b7565b915061127582611234565b602082019050919050565b600060208201905081810360008301526112998161125d565b9050919050565b7f416c726561647920636c61696d65640000000000000000000000000000000000600082015250565b60006112d6600f836111b7565b91506112e1826112a0565b602082019050919050565b60006020820190508181036000830152611305816112c9565b9050919050565b611315816110a2565b82525050565b6000602082019050611330600083018461130c565b92915050565b60008151905061134581610f91565b92915050565b60006020828403121561136157611360610eb9565b5b600061136f84828501611336565b91505092915050565b7f4e487b7100000000000000000000000000000000000000000000000000000000600052601260045260246000fd5b7f4e487b7100000000000000000000000000000000000000000000000000000000600052601160045260246000fd5b60006113e182610f29565b91506113ec83610f29565b9250826113fc576113fb611378565b5b828204905092915050565b600060408201905061141c600083018561130c565b6114296020830184610f33565b9392505050565b6114398161110d565b811461144457600080fd5b50565b60008151905061145681611430565b92915050565b60006020828403121561147257611471610eb9565b5b600061148084828501611447565b91505092915050565b7f4e6f7420537461727465642f4578706972656400000000000000000000000000600082015250565b60006114bf6013836111b7565b91506114ca82611489565b602082019050919050565b600060208201905081810360008301526114ee816114b2565b9050919050565b7f496e76616c69642070726f6f6600000000000000000000000000000000000000600082015250565b600061152b600d836111b7565b9150611536826114f5565b602082019050919050565b6000602082019050818103600083015261155a8161151e565b9050919050565b600061156c82610f29565b915061157783610f29565b925082820261158581610f29565b9150828204841483151761159c5761159b6113a7565b5b5092915050565b60006115ae82610f29565b91506115b983610f29565b92508282039050818111156115d1576115d06113a7565b5b92915050565b60008160601b9050919050565b60006115ef826115d7565b9050919050565b6000611601826115e4565b9050919050565b611619611614826110a2565b6115f6565b82525050565b6000819050919050565b61163a61163582610f29565b61161f565b82525050565b600061164c8285611608565b60148201915061165c8284611629565b6020820191508190509392505050565b7f4e6f74206f776e65720000000000000000000000000000000000000000000000600082015250565b60006116a26009836111b7565b91506116ad8261166c565b602082019050919050565b600060208201905081810360008301526116d181611695565b9050919050565b60006116e382610ec3565b91506116ee83610ec3565b92508282026116fc81610ec3565b915080821461170e5761170d6113a7565b5b5092915050565b600061172082610ec3565b915061172b83610ec3565b9250828201905060ff811115611744576117436113a7565b5b92915050565b600063ffffffff82169050919050565b60006117658261174a565b91506117708361174a565b925082820261177e8161174a565b91508082146117905761178f6113a7565b5b5092915050565b60006117a282610f29565b91506117ad83610f29565b92508282019050808211156117c5576117c46113a7565b5b92915050565b7f4e487b7100000000000000000000000000000000000000000000000000000000600052603260045260246000fd5b600061180582610f29565b91507fffffffffffffffffffffffffffffffffffffffffffffffffffffffffffffffff8203611837576118366113a7565b5b60018201905091905056fea26469706673582212207baf54d21b4d3eb2288e1c3ad115d6bbcfbbbef58273a1eb4f0a310504f0920164736f6c63430008120033a26469706673582212201a73619cbe6d0ee21dbff2c0ccce3208779a9f609380cd4b8fbecdb13252f53e64736f6c63430008120033",
  "linkReferences": {},
  "deployedLinkReferences": {}
}