{
  "_format": "hh-sol-artifact-1",
  "contractName": "MerkleChild",
  "sourceName": "contracts/MerkleChild.sol",
  "abi": [
    {
      "inputs": [
        {
          "internalType": "address",
          "name": "_token",
          "type": "address"
        },
        {
          "internalType": "address",
          "name": "_creator",
          "type": "address"
        },
        {
          "internalType": "address",
          "name": "_owner",
          "type": "address"
        },
        {
          "internalType": "uint256",
          "name": "_startDate",
          "type": "uint256"
        },
        {
          "internalType": "uint256",
          "name": "_endDate",
          "type": "uint256"
        },
        {
          "internalType": "bytes32",
          "name": "_merkleRoot",
          "type": "bytes32"
        }
      ],
      "stateMutability": "nonpayable",
      "type": "constructor"
    },
    {
      "anonymous": false,
      "inputs": [
        {
          "indexed": true,
          "internalType": "address",
          "name": "to",
          "type": "address"
        },
        {
          "indexed": false,
          "internalType": "uint256",
          "name": "amount",
          "type": "uint256"
        }
      ],
      "name": "Claim",
      "type": "event"
    },
    {
      "inputs": [
        {
          "internalType": "uint8",
          "name": "roundId",
          "type": "uint8"
        }
      ],
      "name": "canCreatorClaim",
      "outputs": [
        {
          "internalType": "bool",
          "name": "",
          "type": "bool"
        }
      ],
      "stateMutability": "view",
      "type": "function"
    },
    {
      "inputs": [
        {
          "internalType": "uint8",
          "name": "roundId",
          "type": "uint8"
        }
      ],
      "name": "canOwnerClaim",
      "outputs": [
        {
          "internalType": "bool",
          "name": "",
          "type": "bool"
        }
      ],
      "stateMutability": "view",
      "type": "function"
    },
    {
      "inputs": [
        {
          "internalType": "address",
          "name": "user",
          "type": "address"
        },
        {
          "internalType": "uint256",
          "name": "amount",
          "type": "uint256"
        },
        {
          "internalType": "bytes32[]",
          "name": "proof",
          "type": "bytes32[]"
        }
      ],
      "name": "canUserClaim",
      "outputs": [
        {
          "internalType": "bool",
          "name": "",
          "type": "bool"
        }
      ],
      "stateMutability": "view",
      "type": "function"
    },
    {
      "inputs": [
        {
          "internalType": "uint256",
          "name": "amount",
          "type": "uint256"
        },
        {
          "internalType": "bytes32[]",
          "name": "proof",
          "type": "bytes32[]"
        }
      ],
      "name": "claim",
      "outputs": [],
      "stateMutability": "nonpayable",
      "type": "function"
    },
    {
      "inputs": [
        {
          "internalType": "uint8",
          "name": "roundId",
          "type": "uint8"
        }
      ],
      "name": "creatorClaim",
      "outputs": [],
      "stateMutability": "nonpayable",
      "type": "function"
    },
    {
      "inputs": [
        {
          "internalType": "uint8",
          "name": "",
          "type": "uint8"
        }
      ],
      "name": "creatorClaimed",
      "outputs": [
        {
          "internalType": "bool",
          "name": "",
          "type": "bool"
        }
      ],
      "stateMutability": "view",
      "type": "function"
    },
    {
      "inputs": [],
      "name": "endDate",
      "outputs": [
        {
          "internalType": "uint256",
          "name": "",
          "type": "uint256"
        }
      ],
      "stateMutability": "view",
      "type": "function"
    },
    {
      "inputs": [],
      "name": "merkleRoot",
      "outputs": [
        {
          "internalType": "bytes32",
          "name": "",
          "type": "bytes32"
        }
      ],
      "stateMutability": "view",
      "type": "function"
    },
    {
      "inputs": [
        {
          "internalType": "uint8",
          "name": "roundId",
          "type": "uint8"
        }
      ],
      "name": "ownerClaim",
      "outputs": [],
      "stateMutability": "nonpayable",
      "type": "function"
    },
    {
      "inputs": [
        {
          "internalType": "uint8",
          "name": "",
          "type": "uint8"
        }
      ],
      "name": "ownerClaimed",
      "outputs": [
        {
          "internalType": "bool",
          "name": "",
          "type": "bool"
        }
      ],
      "stateMutability": "view",
      "type": "function"
    },
    {
      "inputs": [],
      "name": "startDate",
      "outputs": [
        {
          "internalType": "uint256",
          "name": "",
          "type": "uint256"
        }
      ],
      "stateMutability": "view",
      "type": "function"
    },
    {
      "inputs": [
        {
          "internalType": "address",
          "name": "",
          "type": "address"
        }
      ],
      "name": "userClaimed",
      "outputs": [
        {
          "internalType": "bool",
          "name": "",
          "type": "bool"
        }
      ],
      "stateMutability": "view",
      "type": "function"
    }
  ],
  "bytecode": "0x60c06040523480156200001157600080fd5b5060405162001b5338038062001b538339818101604052810190620000379190620001ef565b80608081815250508573ffffffffffffffffffffffffffffffffffffffff1660a08173ffffffffffffffffffffffffffffffffffffffff1681525050826004819055508160058190555084600660006101000a81548173ffffffffffffffffffffffffffffffffffffffff021916908373ffffffffffffffffffffffffffffffffffffffff16021790555083600760006101000a81548173ffffffffffffffffffffffffffffffffffffffff021916908373ffffffffffffffffffffffffffffffffffffffff1602179055505050505050506200028b565b600080fd5b600073ffffffffffffffffffffffffffffffffffffffff82169050919050565b6000620001418262000114565b9050919050565b620001538162000134565b81146200015f57600080fd5b50565b600081519050620001738162000148565b92915050565b6000819050919050565b6200018e8162000179565b81146200019a57600080fd5b50565b600081519050620001ae8162000183565b92915050565b6000819050919050565b620001c981620001b4565b8114620001d557600080fd5b50565b600081519050620001e981620001be565b92915050565b60008060008060008060c087890312156200020f576200020e6200010f565b5b60006200021f89828a0162000162565b96505060206200023289828a0162000162565b95505060406200024589828a0162000162565b94505060606200025889828a016200019d565b93505060806200026b89828a016200019d565b92505060a06200027e89828a01620001d8565b9150509295509295509295565b60805160a051611878620002db600039600081816103d2015281816104a4015281816107930152818161086201528181610b1b0152610bee01526000818161057c015261099c01526118786000f3fe608060405234801561001057600080fd5b50600436106100b45760003560e01c8063a9dc9ecf11610071578063a9dc9ecf1461018d578063b0d36e25146101a9578063c202e732146101d9578063c24a0f8b14610209578063c41d927214610227578063dc6d144614610257576100b4565b8063082b1d1f146100b95780630b97bc86146100d55780632eb4a7ab146100f35780632f52ebb7146101115780633b7fcdca1461012d578063a06bf4bd1461015d575b600080fd5b6100d360048036038101906100ce9190610efc565b610287565b005b6100dd610574565b6040516100ea9190610f42565b60405180910390f35b6100fb61057a565b6040516101089190610f76565b60405180910390f35b61012b60048036038101906101269190611022565b61059e565b005b610147600480360381019061014291906110e0565b610905565b6040516101549190611128565b60405180910390f35b61017760048036038101906101729190611143565b610925565b6040516101849190611128565b60405180910390f35b6101a760048036038101906101a29190610efc565b6109d0565b005b6101c360048036038101906101be9190610efc565b610cbe565b6040516101d09190611128565b60405180910390f35b6101f360048036038101906101ee9190610efc565b610cde565b6040516102009190611128565b60405180910390f35b610211610d52565b60405161021e9190610f42565b60405180910390f35b610241600480360381019061023c9190610efc565b610d58565b60405161024e9190611128565b60405180910390f35b610271600480360381019061026c9190610efc565b610d78565b60405161027e9190611128565b60405180910390f35b600660009054906101000a900473ffffffffffffffffffffffffffffffffffffffff1673ffffffffffffffffffffffffffffffffffffffff163373ffffffffffffffffffffffffffffffffffffffff1614610317576040517f08c379a000000000000000000000000000000000000000000000000000000000815260040161030e90611214565b60405180910390fd5b61032081610cde565b61035f576040517f08c379a000000000000000000000000000000000000000000000000000000000815260040161035690611280565b60405180910390fd5b600160008260ff1660ff16815260200190815260200160002060009054906101000a900460ff16156103c6576040517f08c379a00000000000000000000000000000000000000000000000000000000081526004016103bd906112ec565b60405180910390fd5b600060035403610471577f000000000000000000000000000000000000000000000000000000000000000073ffffffffffffffffffffffffffffffffffffffff166370a08231306040518263ffffffff1660e01b8152600401610429919061131b565b602060405180830381865afa158015610446573d6000803e3d6000fd5b505050506040513d601f19601f8201168201806040525081019061046a919061134b565b6003819055505b60018060008360ff1660ff16815260200190815260200160002060006101000a81548160ff0219169083151502179055507f000000000000000000000000000000000000000000000000000000000000000073ffffffffffffffffffffffffffffffffffffffff1663a9059cbb600660009054906101000a900473ffffffffffffffffffffffffffffffffffffffff16600460035461051091906113d6565b6040518363ffffffff1660e01b815260040161052d929190611407565b6020604051808303816000875af115801561054c573d6000803e3d6000fd5b505050506040513d601f19601f82011682018060405250810190610570919061145c565b5050565b60045481565b7f000000000000000000000000000000000000000000000000000000000000000081565b60045442101580156105b257506005544211155b6105f1576040517f08c379a00000000000000000000000000000000000000000000000000000000081526004016105e8906114d5565b60405180910390fd5b6105fd33848484610925565b61063c576040517f08c379a000000000000000000000000000000000000000000000000000000000815260040161063390611541565b60405180910390fd5b6000803373ffffffffffffffffffffffffffffffffffffffff1673ffffffffffffffffffffffffffffffffffffffff16815260200190815260200160002060009054906101000a900460ff16156106c8576040517f08c379a00000000000000000000000000000000000000000000000000000000081526004016106bf906112ec565b60405180910390fd5b60016000803373ffffffffffffffffffffffffffffffffffffffff1673ffffffffffffffffffffffffffffffffffffffff16815260200190815260200160002060006101000a81548160ff0219169083151502179055503373ffffffffffffffffffffffffffffffffffffffff167f47cee97cb7acd717b3c0aa1435d004cd5b3c8c57d70dbceb4e4458bbd60e39d4846040516107659190610f42565b60405180910390a260006103e8600563ffffffff16856107859190611561565b61078f91906113d6565b90507f000000000000000000000000000000000000000000000000000000000000000073ffffffffffffffffffffffffffffffffffffffff1663a9059cbb600760009054906101000a900473ffffffffffffffffffffffffffffffffffffffff16836040518363ffffffff1660e01b815260040161080e929190611407565b6020604051808303816000875af115801561082d573d6000803e3d6000fd5b505050506040513d601f19601f82011682018060405250810190610851919061145c565b50808461085e91906115a3565b93507f000000000000000000000000000000000000000000000000000000000000000073ffffffffffffffffffffffffffffffffffffffff1663a9059cbb33866040518363ffffffff1660e01b81526004016108bb929190611407565b6020604051808303816000875af11580156108da573d6000803e3d6000fd5b505050506040513d601f19601f820116820180604052508101906108fe919061145c565b5050505050565b60006020528060005260406000206000915054906101000a900460ff1681565b600080858560405160200161093b929190611640565b60405160208183030381529060405280519060200120905060006109c1858580806020026020016040519081016040528093929190818152602001838360200280828437600081840152601f19601f820116905080830192505050505050507f000000000000000000000000000000000000000000000000000000000000000084610e0a565b90508092505050949350505050565b600760009054906101000a900473ffffffffffffffffffffffffffffffffffffffff1673ffffffffffffffffffffffffffffffffffffffff163373ffffffffffffffffffffffffffffffffffffffff1614610a60576040517f08c379a0000000000000000000000000000000000000000000000000000000008152600401610a57906116b8565b60405180910390fd5b610a6981610cde565b610aa8576040517f08c379a0000000000000000000000000000000000000000000000000000000008152600401610a9f90611280565b60405180910390fd5b600260008260ff1660ff16815260200190815260200160002060009054906101000a900460ff1615610b0f576040517f08c379a0000000000000000000000000000000000000000000000000000000008152600401610b06906112ec565b60405180910390fd5b600060035403610bba577f000000000000000000000000000000000000000000000000000000000000000073ffffffffffffffffffffffffffffffffffffffff166370a08231306040518263ffffffff1660e01b8152600401610b72919061131b565b602060405180830381865afa158015610b8f573d6000803e3d6000fd5b505050506040513d601f19601f82011682018060405250810190610bb3919061134b565b6003819055505b6001600260008360ff1660ff16815260200190815260200160002060006101000a81548160ff0219169083151502179055507f000000000000000000000000000000000000000000000000000000000000000073ffffffffffffffffffffffffffffffffffffffff1663a9059cbb600760009054906101000a900473ffffffffffffffffffffffffffffffffffffffff166004600354610c5a91906113d6565b6040518363ffffffff1660e01b8152600401610c77929190611407565b6020604051808303816000875af1158015610c96573d6000803e3d6000fd5b505050506040513d601f19601f82011682018060405250810190610cba919061145c565b5050565b60026020528060005260406000206000915054906101000a900460ff1681565b600080620151806001846002610cf491906116d8565b610cfe9190611715565b60ff16610d0b919061175a565b63ffffffff16600554610d1e9190611797565b905060006201518063ffffffff1682610d379190611797565b9050814210158015610d495750804211155b92505050919050565b60055481565b60016020528060005260406000206000915054906101000a900460ff1681565b6000806201518063ffffffff16620151806001856002610d9891906116d8565b610da29190611715565b60ff16610daf919061175a565b63ffffffff16600554610dc29190611797565b610dcc9190611797565b9050804210158015610e025750600160008460ff1660ff16815260200190815260200160002060009054906101000a900460ff16155b915050919050565b600082610e178584610e21565b1490509392505050565b60008082905060005b8451811015610e6c57610e5782868381518110610e4a57610e496117cb565b5b6020026020010151610e77565b91508080610e64906117fa565b915050610e2a565b508091505092915050565b6000818310610e8f57610e8a8284610ea2565b610e9a565b610e998383610ea2565b5b905092915050565b600082600052816020526040600020905092915050565b600080fd5b600080fd5b600060ff82169050919050565b610ed981610ec3565b8114610ee457600080fd5b50565b600081359050610ef681610ed0565b92915050565b600060208284031215610f1257610f11610eb9565b5b6000610f2084828501610ee7565b91505092915050565b6000819050919050565b610f3c81610f29565b82525050565b6000602082019050610f576000830184610f33565b92915050565b6000819050919050565b610f7081610f5d565b82525050565b6000602082019050610f8b6000830184610f67565b92915050565b610f9a81610f29565b8114610fa557600080fd5b50565b600081359050610fb781610f91565b92915050565b600080fd5b600080fd5b600080fd5b60008083601f840112610fe257610fe1610fbd565b5b8235905067ffffffffffffffff811115610fff57610ffe610fc2565b5b60208301915083602082028301111561101b5761101a610fc7565b5b9250929050565b60008060006040848603121561103b5761103a610eb9565b5b600061104986828701610fa8565b935050602084013567ffffffffffffffff81111561106a57611069610ebe565b5b61107686828701610fcc565b92509250509250925092565b600073ffffffffffffffffffffffffffffffffffffffff82169050919050565b60006110ad82611082565b9050919050565b6110bd816110a2565b81146110c857600080fd5b50565b6000813590506110da816110b4565b92915050565b6000602082840312156110f6576110f5610eb9565b5b6000611104848285016110cb565b91505092915050565b60008115159050919050565b6111228161110d565b82525050565b600060208201905061113d6000830184611119565b92915050565b6000806000806060858703121561115d5761115c610eb9565b5b600061116b878288016110cb565b945050602061117c87828801610fa8565b935050604085013567ffffffffffffffff81111561119d5761119c610ebe565b5b6111a987828801610fcc565b925092505092959194509250565b600082825260208201905092915050565b7f4e6f742063726561746f72000000000000000000000000000000000000000000600082015250565b60006111fe600b836111b7565b9150611209826111c8565b602082019050919050565b6000602082019050818103600083015261122d816111f1565b9050919050565b7f4e6f7420696e20636c61696d20706572696f6400000000000000000000000000600082015250565b600061126a6013836111b7565b915061127582611234565b602082019050919050565b600060208201905081810360008301526112998161125d565b9050919050565b7f416c726561647920636c61696d65640000000000000000000000000000000000600082015250565b60006112d6600f836111b7565b91506112e1826112a0565b602082019050919050565b60006020820190508181036000830152611305816112c9565b9050919050565b611315816110a2565b82525050565b6000602082019050611330600083018461130c565b92915050565b60008151905061134581610f91565b92915050565b60006020828403121561136157611360610eb9565b5b600061136f84828501611336565b91505092915050565b7f4e487b7100000000000000000000000000000000000000000000000000000000600052601260045260246000fd5b7f4e487b7100000000000000000000000000000000000000000000000000000000600052601160045260246000fd5b60006113e182610f29565b91506113ec83610f29565b9250826113fc576113fb611378565b5b828204905092915050565b600060408201905061141c600083018561130c565b6114296020830184610f33565b9392505050565b6114398161110d565b811461144457600080fd5b50565b60008151905061145681611430565b92915050565b60006020828403121561147257611471610eb9565b5b600061148084828501611447565b91505092915050565b7f4e6f7420537461727465642f4578706972656400000000000000000000000000600082015250565b60006114bf6013836111b7565b91506114ca82611489565b602082019050919050565b600060208201905081810360008301526114ee816114b2565b9050919050565b7f496e76616c69642070726f6f6600000000000000000000000000000000000000600082015250565b600061152b600d836111b7565b9150611536826114f5565b602082019050919050565b6000602082019050818103600083015261155a8161151e565b9050919050565b600061156c82610f29565b915061157783610f29565b925082820261158581610f29565b9150828204841483151761159c5761159b6113a7565b5b5092915050565b60006115ae82610f29565b91506115b983610f29565b92508282039050818111156115d1576115d06113a7565b5b92915050565b60008160601b9050919050565b60006115ef826115d7565b9050919050565b6000611601826115e4565b9050919050565b611619611614826110a2565b6115f6565b82525050565b6000819050919050565b61163a61163582610f29565b61161f565b82525050565b600061164c8285611608565b60148201915061165c8284611629565b6020820191508190509392505050565b7f4e6f74206f776e65720000000000000000000000000000000000000000000000600082015250565b60006116a26009836111b7565b91506116ad8261166c565b602082019050919050565b600060208201905081810360008301526116d181611695565b9050919050565b60006116e382610ec3565b91506116ee83610ec3565b92508282026116fc81610ec3565b915080821461170e5761170d6113a7565b5b5092915050565b600061172082610ec3565b915061172b83610ec3565b9250828201905060ff811115611744576117436113a7565b5b92915050565b600063ffffffff82169050919050565b60006117658261174a565b91506117708361174a565b925082820261177e8161174a565b91508082146117905761178f6113a7565b5b5092915050565b60006117a282610f29565b91506117ad83610f29565b92508282019050808211156117c5576117c46113a7565b5b92915050565b7f4e487b7100000000000000000000000000000000000000000000000000000000600052603260045260246000fd5b600061180582610f29565b91507fffffffffffffffffffffffffffffffffffffffffffffffffffffffffffffffff8203611837576118366113a7565b5b60018201905091905056fea26469706673582212207baf54d21b4d3eb2288e1c3ad115d6bbcfbbbef58273a1eb4f0a310504f0920164736f6c63430008120033",
  "linkReferences": {},
  "deployedLinkReferences": {}
}